{
  "contractName": "AutoStaking",
  "abi": [
    {
      "inputs": [],
      "stateMutability": "nonpayable",
      "type": "constructor"
    },
    {
      "inputs": [],
      "name": "daiToken",
      "outputs": [
        {
          "internalType": "contract DaiToken",
          "name": "",
          "type": "address"
        }
      ],
      "stateMutability": "view",
      "type": "function"
    },
    {
      "inputs": [],
      "name": "name",
      "outputs": [
        {
          "internalType": "string",
          "name": "",
          "type": "string"
        }
      ],
      "stateMutability": "view",
      "type": "function"
    },
    {
      "inputs": [],
      "name": "owner",
      "outputs": [
        {
          "internalType": "address",
          "name": "",
          "type": "address"
        }
      ],
      "stateMutability": "view",
      "type": "function"
    },
    {
      "inputs": [],
      "name": "stakingContract",
      "outputs": [
        {
          "internalType": "contract StakingContract",
          "name": "",
          "type": "address"
        }
      ],
      "stateMutability": "view",
      "type": "function"
    },
    {
      "inputs": [],
      "name": "staking_interation_counter",
      "outputs": [
        {
          "internalType": "uint256",
          "name": "",
          "type": "uint256"
        }
      ],
      "stateMutability": "view",
      "type": "function"
    },
    {
      "inputs": [],
      "name": "claim_rewards",
      "outputs": [
        {
          "internalType": "bool",
          "name": "success",
          "type": "bool"
        }
      ],
      "stateMutability": "nonpayable",
      "type": "function"
    },
    {
      "inputs": [
        {
          "internalType": "uint256",
          "name": "amount",
          "type": "uint256"
        }
      ],
      "name": "unstake",
      "outputs": [
        {
          "internalType": "bool",
          "name": "success",
          "type": "bool"
        }
      ],
      "stateMutability": "nonpayable",
      "type": "function"
    },
    {
      "inputs": [
        {
          "internalType": "uint256",
          "name": "amount",
          "type": "uint256"
        }
      ],
      "name": "stake",
      "outputs": [
        {
          "internalType": "bool",
          "name": "success",
          "type": "bool"
        }
      ],
      "stateMutability": "nonpayable",
      "type": "function"
    },
    {
      "inputs": [],
      "name": "terminate_staking",
      "outputs": [
        {
          "internalType": "bool",
          "name": "success",
          "type": "bool"
        }
      ],
      "stateMutability": "nonpayable",
      "type": "function"
    },
    {
      "inputs": [
        {
          "internalType": "address",
          "name": "_staking_address",
          "type": "address"
        }
      ],
      "name": "link_staking_farm",
      "outputs": [],
      "stateMutability": "nonpayable",
      "type": "function"
    },
    {
      "inputs": [
        {
          "internalType": "contract DaiToken",
          "name": "_daiToken",
          "type": "address"
        }
      ],
      "name": "link_protocol_token",
      "outputs": [],
      "stateMutability": "nonpayable",
      "type": "function"
    },
    {
      "inputs": [],
      "name": "update_staking_interation_counter",
      "outputs": [],
      "stateMutability": "nonpayable",
      "type": "function"
    }
  ],
  "bytecode": "0x60806040526040518060400160405280600b81526020017f4175746f5374616b696e670000000000000000000000000000000000000000008152506000908051906020019061004f9291906100a3565b5034801561005c57600080fd5b5033600360006101000a81548173ffffffffffffffffffffffffffffffffffffffff021916908373ffffffffffffffffffffffffffffffffffffffff16021790555061014e565b828054600181600116156101000203166002900490600052602060002090601f0160209004810192826100d95760008555610120565b82601f106100f257805160ff1916838001178555610120565b82800160010185558215610120579182015b8281111561011f578251825591602001919060010190610104565b5b50905061012d9190610131565b5090565b5b8082111561014a576000816000905550600101610132565b5090565b610e288061015d6000396000f3fe608060405234801561001057600080fd5b50600436106100b45760003560e01c80639b048358116100715780639b0483581461017d578063a694fc3a14610187578063be22f546146101b7578063c5eb2f68146101d5578063e6f1daf2146101f1578063ee99205c1461020f576100b4565b806306fdde03146100b95780630d3e3651146100d757806320789a8e146100f55780632e17de781461011157806387c545af146101415780638da5cb5b1461015f575b600080fd5b6100c161022d565b6040516100ce9190610c0a565b60405180910390f35b6100df6102cb565b6040516100ec9190610c2c565b60405180910390f35b61010f600480360381019061010a9190610a67565b6102d1565b005b61012b60048036038101906101269190610a90565b610370565b6040516101389190610bb9565b60405180910390f35b61014961040b565b6040516101569190610bb9565b60405180910390f35b610167610414565b6040516101749190610b75565b60405180910390f35b61018561043a565b005b6101a1600480360381019061019c9190610a90565b6104a3565b6040516101ae9190610bb9565b60405180910390f35b6101bf610610565b6040516101cc9190610bd4565b60405180910390f35b6101ef60048036038101906101ea9190610a15565b610636565b005b6101f96106d5565b6040516102069190610bb9565b60405180910390f35b6102176108e1565b6040516102249190610bef565b60405180910390f35b60008054600181600116156101000203166002900480601f0160208091040260200160405190810160405280929190818152602001828054600181600116156101000203166002900480156102c35780601f10610298576101008083540402835291602001916102c3565b820191906000526020600020905b8154815290600101906020018083116102a657829003601f168201915b505050505081565b60045481565b600360009054906101000a900473ffffffffffffffffffffffffffffffffffffffff1673ffffffffffffffffffffffffffffffffffffffff163373ffffffffffffffffffffffffffffffffffffffff161461032b5761036d565b80600160006101000a81548173ffffffffffffffffffffffffffffffffffffffff021916908373ffffffffffffffffffffffffffffffffffffffff1602179055505b50565b6000600260009054906101000a900473ffffffffffffffffffffffffffffffffffffffff1673ffffffffffffffffffffffffffffffffffffffff1663448f42e18360006040518363ffffffff1660e01b81526004016103d0929190610c47565b600060405180830381600087803b1580156103ea57600080fd5b505af11580156103fe573d6000803e3d6000fd5b5050505060019050919050565b60006001905090565b600360009054906101000a900473ffffffffffffffffffffffffffffffffffffffff1681565b600360009054906101000a900473ffffffffffffffffffffffffffffffffffffffff1673ffffffffffffffffffffffffffffffffffffffff163373ffffffffffffffffffffffffffffffffffffffff1614610494576104a1565b6001600454016004819055505b565b6000600160009054906101000a900473ffffffffffffffffffffffffffffffffffffffff1673ffffffffffffffffffffffffffffffffffffffff1663095ea7b3600260009054906101000a900473ffffffffffffffffffffffffffffffffffffffff16846040518363ffffffff1660e01b8152600401610524929190610b90565b602060405180830381600087803b15801561053e57600080fd5b505af1158015610552573d6000803e3d6000fd5b505050506040513d601f19601f820116820180604052508101906105769190610a3e565b50600260009054906101000a900473ffffffffffffffffffffffffffffffffffffffff1673ffffffffffffffffffffffffffffffffffffffff166345c15b428360006040518363ffffffff1660e01b81526004016105d5929190610c47565b600060405180830381600087803b1580156105ef57600080fd5b505af1158015610603573d6000803e3d6000fd5b5050505060019050919050565b600160009054906101000a900473ffffffffffffffffffffffffffffffffffffffff1681565b600360009054906101000a900473ffffffffffffffffffffffffffffffffffffffff1673ffffffffffffffffffffffffffffffffffffffff163373ffffffffffffffffffffffffffffffffffffffff1614610690576106d2565b80600260006101000a81548173ffffffffffffffffffffffffffffffffffffffff021916908373ffffffffffffffffffffffffffffffffffffffff1602179055505b50565b600080600160009054906101000a900473ffffffffffffffffffffffffffffffffffffffff1673ffffffffffffffffffffffffffffffffffffffff166370a08231306040518263ffffffff1660e01b81526004016107339190610b75565b60206040518083038186803b15801561074b57600080fd5b505afa15801561075f573d6000803e3d6000fd5b505050506040513d601f19601f820116820180604052508101906107839190610ab9565b9050600260009054906101000a900473ffffffffffffffffffffffffffffffffffffffff1673ffffffffffffffffffffffffffffffffffffffff16638222cf206040518163ffffffff1660e01b8152600401600060405180830381600087803b1580156107ef57600080fd5b505af1158015610803573d6000803e3d6000fd5b505050506000600160009054906101000a900473ffffffffffffffffffffffffffffffffffffffff1673ffffffffffffffffffffffffffffffffffffffff166370a08231306040518263ffffffff1660e01b81526004016108649190610b75565b60206040518083038186803b15801561087c57600080fd5b505afa158015610890573d6000803e3d6000fd5b505050506040513d601f19601f820116820180604052508101906108b49190610ab9565b905060006108cb838361090790919063ffffffff16565b90506108d6816104a3565b506001935050505090565b600260009054906101000a900473ffffffffffffffffffffffffffffffffffffffff1681565b600061094983836040518060400160405280601e81526020017f536166654d6174683a207375627472616374696f6e206f766572666c6f770000815250610951565b905092915050565b6000838311158290610999576040517f08c379a00000000000000000000000000000000000000000000000000000000081526004016109909190610c0a565b60405180910390fd5b5060008385039050809150509392505050565b6000813590506109bb81610d96565b92915050565b6000815190506109d081610dad565b92915050565b6000813590506109e581610dc4565b92915050565b6000813590506109fa81610ddb565b92915050565b600081519050610a0f81610ddb565b92915050565b600060208284031215610a2757600080fd5b6000610a35848285016109ac565b91505092915050565b600060208284031215610a5057600080fd5b6000610a5e848285016109c1565b91505092915050565b600060208284031215610a7957600080fd5b6000610a87848285016109d6565b91505092915050565b600060208284031215610aa257600080fd5b6000610ab0848285016109eb565b91505092915050565b600060208284031215610acb57600080fd5b6000610ad984828501610a00565b91505092915050565b610aeb81610c8c565b82525050565b610afa81610cb0565b82525050565b610b0981610cf8565b82525050565b610b1881610d1c565b82525050565b610b2781610d40565b82525050565b6000610b3882610c70565b610b428185610c7b565b9350610b52818560208601610d52565b610b5b81610d85565b840191505092915050565b610b6f81610cee565b82525050565b6000602082019050610b8a6000830184610ae2565b92915050565b6000604082019050610ba56000830185610ae2565b610bb26020830184610b66565b9392505050565b6000602082019050610bce6000830184610af1565b92915050565b6000602082019050610be96000830184610b00565b92915050565b6000602082019050610c046000830184610b0f565b92915050565b60006020820190508181036000830152610c248184610b2d565b905092915050565b6000602082019050610c416000830184610b66565b92915050565b6000604082019050610c5c6000830185610b66565b610c696020830184610b1e565b9392505050565b600081519050919050565b600082825260208201905092915050565b6000610c9782610cce565b9050919050565b6000610ca982610cce565b9050919050565b60008115159050919050565b6000610cc782610c9e565b9050919050565b600073ffffffffffffffffffffffffffffffffffffffff82169050919050565b6000819050919050565b6000610d0382610d0a565b9050919050565b6000610d1582610cce565b9050919050565b6000610d2782610d2e565b9050919050565b6000610d3982610cce565b9050919050565b6000610d4b82610cee565b9050919050565b60005b83811015610d70578082015181840152602081019050610d55565b83811115610d7f576000848401525b50505050565b6000601f19601f8301169050919050565b610d9f81610c8c565b8114610daa57600080fd5b50565b610db681610cb0565b8114610dc157600080fd5b50565b610dcd81610cbc565b8114610dd857600080fd5b50565b610de481610cee565b8114610def57600080fd5b5056fea2646970667358221220cc3ff409dcc77ce862491dd4dd6c3123360315268208a4823ad1d1e8826a4be664736f6c63430007060033",
  "immutableReferences": {},
  "source": "pragma solidity ^0.7.6;\r\n//pragma solidity ^0.6.12;\r\n// SPDX-License-Identifier: Unlicensed\r\npragma experimental ABIEncoderV2;\r\nimport \"./DaiToken.sol\";\r\n\r\n\r\n\r\n//This will be different for each different protocol\r\ninterface StakingContract {\r\n    function transfer_tax_to_reward_pool(uint _amount) external;\r\n\tfunction collect_staker_rewards() external;\r\n\tfunction add_stake_charity_allocation(uint _amount, uint selected_charity_id) external;\r\n\tfunction remove_stake_charity_allocation(uint _amount, uint selected_charity_id) external;\r\n}\r\n\r\n\r\n\r\n\r\n\r\n\r\n\r\ncontract AutoStaking {\r\n\tstring public name = \"AutoStaking\";\r\n\tDaiToken public daiToken;\r\n\tStakingContract public stakingContract;\r\n\taddress public owner;\r\n\tusing SafeMath for uint256;\r\n\tuint public staking_interation_counter;\r\n\r\n\r\n\r\n\r\n\tconstructor() public {\r\n\t\towner = msg.sender;\r\n\t}\r\n\r\n\r\n\r\n\r\n\t//1. After contract creation, manually transfer tokens needed for staking from owner's wallet to this smart contract\r\n\t//2. Call stake function below to stake this smart contract's initial token balance\r\n\r\n\tfunction claim_rewards() public returns (bool success) {\r\n\t//use a cron job to repeatedly call this function externally\r\n\r\n\t\t//1. check amount of claimable rewards of the target protocol\r\n\t\t//2. if above a certain amount, claim rewards to this smart contract\r\n\t\t//3. programmatically sell this smart contract's accumulated rewards on a DEX\r\n\t\t//4. (optional) call the stake function below to auto-compound staking\r\n\t\tuint256 initialBalance = daiToken.balanceOf(address(this));\r\n\t\tstakingContract.collect_staker_rewards();\r\n        uint256 post_claim_Balance = daiToken.balanceOf(address(this));\r\n\r\n\r\n\r\n        uint256 collected_amount = post_claim_Balance.sub(initialBalance);\r\n\t\tstake(collected_amount);\r\n\t\treturn true;\r\n\t}\r\n\tfunction unstake(uint256 amount) public returns (bool success) {\r\n\t\t//1. execute unstaking logic in the target protocol\r\n\t\tstakingContract.remove_stake_charity_allocation(amount, 0);\r\n\t\treturn true;\r\n\t}\r\n\tfunction stake(uint256 amount) public returns (bool success) {\r\n\t\t//1. execute staking logic in the target protocol\r\n\t\tdaiToken.approve(address(stakingContract), amount);//daiToken.uniswapV2Router()\r\n\t\tstakingContract.add_stake_charity_allocation(amount, 0);\r\n\t\treturn true;\r\n\t}\r\n\tfunction terminate_staking() public returns (bool success) {\r\n\t\t//1. call unstake function\r\n\t\t//2. transfer tokens from this smart contract back into the owner's wallet address\r\n\t\treturn true;\r\n\t}\r\n\r\n\r\n\r\n//////////////////////////////////////////////////////////////////////////////////////////////////////////////////////////////////////////////////////////////////\r\n//////////////////////////////////////////////////////////////////////////////////////////////////////////////////////////////////////////////////////////////////\r\n    function link_staking_farm(address _staking_address) public{\r\n\t\tif(msg.sender!=owner){\r\n\t\t\treturn;\r\n\t\t}\r\n        stakingContract = StakingContract(_staking_address);\r\n\r\n    }\r\n\tfunction link_protocol_token(DaiToken _daiToken) public {\r\n\t\tif(msg.sender!=owner){\r\n\t\t\treturn;\r\n\t\t}\r\n\t\tdaiToken = _daiToken;\r\n\t}\r\n\tfunction update_staking_interation_counter() public {\r\n\t\tif(msg.sender!=owner){\r\n\t\t\treturn;\r\n\t\t}\r\n\t\tstaking_interation_counter = staking_interation_counter + 1;\r\n\t}\r\n\r\n\r\n\t\r\n}",
  "sourcePath": "C:/Users/Bofan/defi_tutorial/src/contracts/AutoStaking.sol",
  "compiler": {
    "name": "solc",
    "version": "0.7.6+commit.7338295f.Emscripten.clang"
  },
  "schemaVersion": "3.2.3",
  "updatedAt": "2021-08-28T16:07:26.082Z",
  "networkType": "ethereum",
  "devdoc": {
    "kind": "dev",
    "methods": {},
    "version": 1
  },
  "userdoc": {
    "kind": "user",
    "methods": {},
    "version": 1
  }
}