{
  "contractName": "Donation_Processor",
  "abi": [
    {
      "inputs": [],
      "stateMutability": "nonpayable",
      "type": "constructor"
    },
    {
      "anonymous": false,
      "inputs": [
        {
          "indexed": false,
          "internalType": "uint256",
          "name": "amount",
          "type": "uint256"
        },
        {
          "indexed": false,
          "internalType": "uint256",
          "name": "converted_amount",
          "type": "uint256"
        },
        {
          "indexed": false,
          "internalType": "uint256",
          "name": "received_amount",
          "type": "uint256"
        },
        {
          "indexed": false,
          "internalType": "string",
          "name": "currency",
          "type": "string"
        },
        {
          "indexed": false,
          "internalType": "string",
          "name": "org_name",
          "type": "string"
        },
        {
          "indexed": true,
          "internalType": "address",
          "name": "donor_address",
          "type": "address"
        },
        {
          "indexed": true,
          "internalType": "address",
          "name": "receiver",
          "type": "address"
        },
        {
          "indexed": false,
          "internalType": "uint256",
          "name": "input_decimals",
          "type": "uint256"
        },
        {
          "indexed": false,
          "internalType": "uint256",
          "name": "output_decimals",
          "type": "uint256"
        },
        {
          "indexed": false,
          "internalType": "uint256",
          "name": "date",
          "type": "uint256"
        }
      ],
      "name": "Transaction",
      "type": "event"
    },
    {
      "anonymous": false,
      "inputs": [
        {
          "indexed": true,
          "internalType": "uint256",
          "name": "id",
          "type": "uint256"
        },
        {
          "indexed": true,
          "internalType": "address",
          "name": "charity_address",
          "type": "address"
        },
        {
          "indexed": false,
          "internalType": "uint256",
          "name": "amount",
          "type": "uint256"
        },
        {
          "indexed": false,
          "internalType": "uint256",
          "name": "timestamp",
          "type": "uint256"
        },
        {
          "indexed": false,
          "internalType": "uint256",
          "name": "output_decimals",
          "type": "uint256"
        }
      ],
      "name": "Wire_Withdraw",
      "type": "event"
    },
    {
      "inputs": [],
      "name": "collected_transaction_fees",
      "outputs": [
        {
          "internalType": "uint256",
          "name": "",
          "type": "uint256"
        }
      ],
      "stateMutability": "view",
      "type": "function"
    },
    {
      "inputs": [],
      "name": "delegate_address",
      "outputs": [
        {
          "internalType": "address",
          "name": "",
          "type": "address"
        }
      ],
      "stateMutability": "view",
      "type": "function"
    },
    {
      "inputs": [
        {
          "internalType": "address",
          "name": "",
          "type": "address"
        }
      ],
      "name": "donationAllocation",
      "outputs": [
        {
          "internalType": "uint256",
          "name": "",
          "type": "uint256"
        }
      ],
      "stateMutability": "view",
      "type": "function"
    },
    {
      "inputs": [
        {
          "internalType": "address",
          "name": "",
          "type": "address"
        }
      ],
      "name": "donation_count",
      "outputs": [
        {
          "internalType": "uint256",
          "name": "",
          "type": "uint256"
        }
      ],
      "stateMutability": "view",
      "type": "function"
    },
    {
      "inputs": [],
      "name": "donation_transaction_fee",
      "outputs": [
        {
          "internalType": "uint256",
          "name": "",
          "type": "uint256"
        }
      ],
      "stateMutability": "view",
      "type": "function"
    },
    {
      "inputs": [],
      "name": "final_currency",
      "outputs": [
        {
          "internalType": "address",
          "name": "",
          "type": "address"
        }
      ],
      "stateMutability": "view",
      "type": "function"
    },
    {
      "inputs": [],
      "name": "final_currency_decimal",
      "outputs": [
        {
          "internalType": "uint256",
          "name": "",
          "type": "uint256"
        }
      ],
      "stateMutability": "view",
      "type": "function"
    },
    {
      "inputs": [
        {
          "internalType": "address",
          "name": "",
          "type": "address"
        }
      ],
      "name": "is_admin",
      "outputs": [
        {
          "internalType": "bool",
          "name": "",
          "type": "bool"
        }
      ],
      "stateMutability": "view",
      "type": "function"
    },
    {
      "inputs": [],
      "name": "name",
      "outputs": [
        {
          "internalType": "string",
          "name": "",
          "type": "string"
        }
      ],
      "stateMutability": "view",
      "type": "function"
    },
    {
      "inputs": [],
      "name": "owner",
      "outputs": [
        {
          "internalType": "address",
          "name": "",
          "type": "address"
        }
      ],
      "stateMutability": "view",
      "type": "function"
    },
    {
      "inputs": [],
      "name": "poolFee",
      "outputs": [
        {
          "internalType": "uint24",
          "name": "",
          "type": "uint24"
        }
      ],
      "stateMutability": "view",
      "type": "function"
    },
    {
      "inputs": [],
      "name": "total_withdraw_count",
      "outputs": [
        {
          "internalType": "uint256",
          "name": "",
          "type": "uint256"
        }
      ],
      "stateMutability": "view",
      "type": "function"
    },
    {
      "inputs": [],
      "name": "uniswapV2Router",
      "outputs": [
        {
          "internalType": "contract IUniswapV2Router02",
          "name": "",
          "type": "address"
        }
      ],
      "stateMutability": "view",
      "type": "function"
    },
    {
      "inputs": [],
      "name": "uniswapV3Router",
      "outputs": [
        {
          "internalType": "contract ISwapRouter",
          "name": "",
          "type": "address"
        }
      ],
      "stateMutability": "view",
      "type": "function"
    },
    {
      "inputs": [],
      "name": "wire_withdraw_count",
      "outputs": [
        {
          "internalType": "uint256",
          "name": "",
          "type": "uint256"
        }
      ],
      "stateMutability": "view",
      "type": "function"
    },
    {
      "stateMutability": "payable",
      "type": "receive"
    },
    {
      "inputs": [
        {
          "internalType": "uint256",
          "name": "_amount",
          "type": "uint256"
        },
        {
          "internalType": "string",
          "name": "_currency",
          "type": "string"
        },
        {
          "internalType": "string",
          "name": "organization_name",
          "type": "string"
        },
        {
          "internalType": "uint256",
          "name": "organization_ein",
          "type": "uint256"
        },
        {
          "internalType": "address payable",
          "name": "charity_wallet",
          "type": "address"
        },
        {
          "internalType": "address",
          "name": "currency_address",
          "type": "address"
        },
        {
          "internalType": "uint256",
          "name": "decimals",
          "type": "uint256"
        }
      ],
      "name": "process_donation",
      "outputs": [],
      "stateMutability": "payable",
      "type": "function"
    },
    {
      "inputs": [
        {
          "internalType": "address",
          "name": "_charity_address",
          "type": "address"
        },
        {
          "internalType": "address",
          "name": "_withdraw_address",
          "type": "address"
        },
        {
          "internalType": "uint256",
          "name": "_amount",
          "type": "uint256"
        }
      ],
      "name": "withdraw_donation",
      "outputs": [],
      "stateMutability": "nonpayable",
      "type": "function"
    },
    {
      "inputs": [
        {
          "internalType": "address",
          "name": "charity_address",
          "type": "address"
        }
      ],
      "name": "get_available_withdraw_amount",
      "outputs": [
        {
          "internalType": "uint256",
          "name": "",
          "type": "uint256"
        }
      ],
      "stateMutability": "view",
      "type": "function"
    },
    {
      "inputs": [],
      "name": "get_collected_transaction_fees",
      "outputs": [
        {
          "internalType": "uint256",
          "name": "",
          "type": "uint256"
        }
      ],
      "stateMutability": "view",
      "type": "function"
    },
    {
      "inputs": [
        {
          "internalType": "uint256",
          "name": "_new_fee",
          "type": "uint256"
        }
      ],
      "name": "set_donation_transaction_fee",
      "outputs": [],
      "stateMutability": "nonpayable",
      "type": "function"
    },
    {
      "inputs": [
        {
          "internalType": "address",
          "name": "_contract_address",
          "type": "address"
        }
      ],
      "name": "set_final_currency",
      "outputs": [],
      "stateMutability": "nonpayable",
      "type": "function"
    },
    {
      "inputs": [
        {
          "internalType": "address",
          "name": "newOwner",
          "type": "address"
        }
      ],
      "name": "transfer_owner",
      "outputs": [],
      "stateMutability": "nonpayable",
      "type": "function"
    },
    {
      "inputs": [
        {
          "internalType": "address",
          "name": "_contract_address",
          "type": "address"
        }
      ],
      "name": "set_delegate_address",
      "outputs": [],
      "stateMutability": "nonpayable",
      "type": "function"
    },
    {
      "inputs": [
        {
          "internalType": "address",
          "name": "newRouter",
          "type": "address"
        }
      ],
      "name": "setRouterAddress",
      "outputs": [],
      "stateMutability": "nonpayable",
      "type": "function"
    },
    {
      "inputs": [
        {
          "internalType": "address",
          "name": "newRouter",
          "type": "address"
        }
      ],
      "name": "setuniswapV3RouterAddress",
      "outputs": [],
      "stateMutability": "nonpayable",
      "type": "function"
    },
    {
      "inputs": [
        {
          "internalType": "address",
          "name": "account",
          "type": "address"
        }
      ],
      "name": "check_if_admin",
      "outputs": [
        {
          "internalType": "bool",
          "name": "",
          "type": "bool"
        }
      ],
      "stateMutability": "view",
      "type": "function"
    },
    {
      "inputs": [
        {
          "internalType": "address",
          "name": "_address",
          "type": "address"
        },
        {
          "internalType": "uint256",
          "name": "_type",
          "type": "uint256"
        }
      ],
      "name": "add_remove_admin",
      "outputs": [],
      "stateMutability": "nonpayable",
      "type": "function"
    }
  ],
  "bytecode": "0x60806040526040518060400160405280601281526020017f446f6e6174696f6e5f50726f636573736f720000000000000000000000000000815250600090805190602001906200005192919062000225565b507307865c6e87b9f70255377e024ace6630c1eaa37f600260006101000a81548173ffffffffffffffffffffffffffffffffffffffff021916908373ffffffffffffffffffffffffffffffffffffffff1602179055506006600355348015620000b957600080fd5b5033600160006101000a81548173ffffffffffffffffffffffffffffffffffffffff021916908373ffffffffffffffffffffffffffffffffffffffff1602179055506001600b60003373ffffffffffffffffffffffffffffffffffffffff1673ffffffffffffffffffffffffffffffffffffffff16815260200190815260200160002060006101000a81548160ff0219169083151502179055506200017873e592427a0aece92de3edee1f18e0157c058615646200017e60201b60201c565b620002db565b600160009054906101000a900473ffffffffffffffffffffffffffffffffffffffff1673ffffffffffffffffffffffffffffffffffffffff163373ffffffffffffffffffffffffffffffffffffffff1614620001da5762000222565b600081905080600760006101000a81548173ffffffffffffffffffffffffffffffffffffffff021916908373ffffffffffffffffffffffffffffffffffffffff160217905550505b50565b828054600181600116156101000203166002900490600052602060002090601f0160209004810192826200025d5760008555620002a9565b82601f106200027857805160ff1916838001178555620002a9565b82800160010185558215620002a9579182015b82811115620002a85782518255916020019190600101906200028b565b5b509050620002b89190620002bc565b5090565b5b80821115620002d7576000816000905550600101620002bd565b5090565b61184480620002eb6000396000f3fe6080604052600436106101a05760003560e01c806384c1e68b116100ec578063afed47e71161008a578063dfc4b8c911610064578063dfc4b8c9146105c8578063e3edb0c0146105f3578063ed504c341461061e578063f2b7786f14610647576101a7565b8063afed47e71461054b578063c6445cae14610574578063d8c325f51461059d576101a7565b806391e25e25116100c657806391e25e251461047d578063a7bd6292146104ba578063aa3082bc146104e3578063aac132de1461050e576101a7565b806384c1e68b1461040d5780638794b773146104365780638da5cb5b14610452576101a7565b80632c76d7a61161015957806342c23bea1161013357806342c23bea1461034f5780636bfb393f1461038c57806374d1bca8146103b75780637a09dc4e146103e2576101a7565b80632c76d7a6146102d05780633133efa9146102fb57806341cb87fc14610326576101a7565b806306fdde03146101ac578063089fe6aa146101d75780630d5fb46a146102025780631694505e1461023f57806325b0b21a1461026a57806328896066146102a7576101a7565b366101a757005b600080fd5b3480156101b857600080fd5b506101c1610670565b6040516101ce9190611576565b60405180910390f35b3480156101e357600080fd5b506101ec61070e565b6040516101f991906115b8565b60405180910390f35b34801561020e57600080fd5b506102296004803603810190610224919061117a565b610714565b60405161023691906115d3565b60405180910390f35b34801561024b57600080fd5b5061025461072c565b604051610261919061155b565b60405180910390f35b34801561027657600080fd5b50610291600480360381019061028c919061117a565b610752565b60405161029e91906115d3565b60405180910390f35b3480156102b357600080fd5b506102ce60048036038101906102c9919061117a565b61079b565b005b3480156102dc57600080fd5b506102e56108aa565b6040516102f29190611540565b60405180910390f35b34801561030757600080fd5b506103106108d0565b60405161031d91906115d3565b60405180910390f35b34801561033257600080fd5b5061034d6004803603810190610348919061117a565b6108d6565b005b34801561035b57600080fd5b506103766004803603810190610371919061117a565b61097b565b60405161038391906115d3565b60405180910390f35b34801561039857600080fd5b506103a1610993565b6040516103ae91906114d3565b60405180910390f35b3480156103c357600080fd5b506103cc6109b9565b6040516103d991906114d3565b60405180910390f35b3480156103ee57600080fd5b506103f76109df565b60405161040491906115d3565b60405180910390f35b34801561041957600080fd5b50610434600480360381019061042f91906111a3565b6109e5565b005b610450600480360381019061044b9190611257565b610b05565b005b34801561045e57600080fd5b50610467610c37565b60405161047491906114d3565b60405180910390f35b34801561048957600080fd5b506104a4600480360381019061049f919061117a565b610c5d565b6040516104b19190611525565b60405180910390f35b3480156104c657600080fd5b506104e160048036038101906104dc919061117a565b610cb3565b005b3480156104ef57600080fd5b506104f8610d52565b60405161050591906115d3565b60405180910390f35b34801561051a57600080fd5b506105356004803603810190610530919061117a565b610d58565b6040516105429190611525565b60405180910390f35b34801561055757600080fd5b50610572600480360381019061056d919061117a565b610d78565b005b34801561058057600080fd5b5061059b6004803603810190610596919061117a565b610e9e565b005b3480156105a957600080fd5b506105b2610f43565b6040516105bf91906115d3565b60405180910390f35b3480156105d457600080fd5b506105dd610f49565b6040516105ea91906115d3565b60405180910390f35b3480156105ff57600080fd5b50610608610f53565b60405161061591906115d3565b60405180910390f35b34801561062a57600080fd5b50610645600480360381019061064091906111f2565b610f59565b005b34801561065357600080fd5b5061066e6004803603810190610669919061122e565b611077565b005b60008054600181600116156101000203166002900480601f0160208091040260200160405190810160405280929190818152602001828054600181600116156101000203166002900480156107065780601f106106db57610100808354040283529160200191610706565b820191906000526020600020905b8154815290600101906020018083116106e957829003601f168201915b505050505081565b610bb881565b600c6020528060005260406000206000915090505481565b600660009054906101000a900473ffffffffffffffffffffffffffffffffffffffff1681565b6000600860008373ffffffffffffffffffffffffffffffffffffffff1673ffffffffffffffffffffffffffffffffffffffff168152602001908152602001600020549050919050565b600160009054906101000a900473ffffffffffffffffffffffffffffffffffffffff1673ffffffffffffffffffffffffffffffffffffffff163373ffffffffffffffffffffffffffffffffffffffff16146107f5576108a7565b600073ffffffffffffffffffffffffffffffffffffffff168173ffffffffffffffffffffffffffffffffffffffff161415610865576040517f08c379a000000000000000000000000000000000000000000000000000000000815260040161085c90611598565b60405180910390fd5b80600160006101000a81548173ffffffffffffffffffffffffffffffffffffffff021916908373ffffffffffffffffffffffffffffffffffffffff1602179055505b50565b600760009054906101000a900473ffffffffffffffffffffffffffffffffffffffff1681565b60055481565b600160009054906101000a900473ffffffffffffffffffffffffffffffffffffffff1673ffffffffffffffffffffffffffffffffffffffff163373ffffffffffffffffffffffffffffffffffffffff161461093057610978565b600081905080600660006101000a81548173ffffffffffffffffffffffffffffffffffffffff021916908373ffffffffffffffffffffffffffffffffffffffff160217905550505b50565b60086020528060005260406000206000915090505481565b600260009054906101000a900473ffffffffffffffffffffffffffffffffffffffff1681565b600d60009054906101000a900473ffffffffffffffffffffffffffffffffffffffff1681565b600a5481565b600d60009054906101000a900473ffffffffffffffffffffffffffffffffffffffff1673ffffffffffffffffffffffffffffffffffffffff16838383604051602401610a33939291906114ee565b6040516020818303038152906040527f84c1e68b000000000000000000000000000000000000000000000000000000007bffffffffffffffffffffffffffffffffffffffffffffffffffffffff19166020820180517bffffffffffffffffffffffffffffffffffffffffffffffffffffffff8381831617835250505050604051610abd91906114bc565b600060405180830381855af49150503d8060008114610af8576040519150601f19603f3d011682016040523d82523d6000602084013e610afd565b606091505b505050505050565b600d60009054906101000a900473ffffffffffffffffffffffffffffffffffffffff1673ffffffffffffffffffffffffffffffffffffffff16898989898989898989604051602401610b5f999897969594939291906115ee565b6040516020818303038152906040527f8794b773000000000000000000000000000000000000000000000000000000007bffffffffffffffffffffffffffffffffffffffffffffffffffffffff19166020820180517bffffffffffffffffffffffffffffffffffffffffffffffffffffffff8381831617835250505050604051610be991906114bc565b600060405180830381855af49150503d8060008114610c24576040519150601f19603f3d011682016040523d82523d6000602084013e610c29565b606091505b505050505050505050505050565b600160009054906101000a900473ffffffffffffffffffffffffffffffffffffffff1681565b6000600b60008373ffffffffffffffffffffffffffffffffffffffff1673ffffffffffffffffffffffffffffffffffffffff16815260200190815260200160002060009054906101000a900460ff169050919050565b600160009054906101000a900473ffffffffffffffffffffffffffffffffffffffff1673ffffffffffffffffffffffffffffffffffffffff163373ffffffffffffffffffffffffffffffffffffffff1614610d0d57610d4f565b80600d60006101000a81548173ffffffffffffffffffffffffffffffffffffffff021916908373ffffffffffffffffffffffffffffffffffffffff1602179055505b50565b60035481565b600b6020528060005260406000206000915054906101000a900460ff1681565b600160009054906101000a900473ffffffffffffffffffffffffffffffffffffffff1673ffffffffffffffffffffffffffffffffffffffff163373ffffffffffffffffffffffffffffffffffffffff1614610dd257610e9b565b80600260006101000a81548173ffffffffffffffffffffffffffffffffffffffff021916908373ffffffffffffffffffffffffffffffffffffffff1602179055508073ffffffffffffffffffffffffffffffffffffffff1663313ce5676040518163ffffffff1660e01b815260040160206040518083038186803b158015610e5957600080fd5b505afa158015610e6d573d6000803e3d6000fd5b505050506040513d601f19601f82011682018060405250810190610e91919061132d565b60ff166003819055505b50565b600160009054906101000a900473ffffffffffffffffffffffffffffffffffffffff1673ffffffffffffffffffffffffffffffffffffffff163373ffffffffffffffffffffffffffffffffffffffff1614610ef857610f40565b600081905080600760006101000a81548173ffffffffffffffffffffffffffffffffffffffff021916908373ffffffffffffffffffffffffffffffffffffffff160217905550505b50565b60045481565b6000600554905090565b60095481565b600160009054906101000a900473ffffffffffffffffffffffffffffffffffffffff1673ffffffffffffffffffffffffffffffffffffffff163373ffffffffffffffffffffffffffffffffffffffff1614610fb357611073565b6001811415611019576001600b60008473ffffffffffffffffffffffffffffffffffffffff1673ffffffffffffffffffffffffffffffffffffffff16815260200190815260200160002060006101000a81548160ff021916908315150217905550611072565b6000600b60008473ffffffffffffffffffffffffffffffffffffffff1673ffffffffffffffffffffffffffffffffffffffff16815260200190815260200160002060006101000a81548160ff0219169083151502179055505b5b5050565b600160009054906101000a900473ffffffffffffffffffffffffffffffffffffffff1673ffffffffffffffffffffffffffffffffffffffff163373ffffffffffffffffffffffffffffffffffffffff16146110d1576110d9565b806004819055505b50565b6000813590506110eb816117b2565b92915050565b600081359050611100816117c9565b92915050565b60008083601f84011261111857600080fd5b8235905067ffffffffffffffff81111561113157600080fd5b60208301915083600182028301111561114957600080fd5b9250929050565b60008135905061115f816117e0565b92915050565b600081519050611174816117f7565b92915050565b60006020828403121561118c57600080fd5b600061119a848285016110dc565b91505092915050565b6000806000606084860312156111b857600080fd5b60006111c6868287016110dc565b93505060206111d7868287016110dc565b92505060406111e886828701611150565b9150509250925092565b6000806040838503121561120557600080fd5b6000611213858286016110dc565b925050602061122485828601611150565b9150509250929050565b60006020828403121561124057600080fd5b600061124e84828501611150565b91505092915050565b600080600080600080600080600060e08a8c03121561127557600080fd5b60006112838c828d01611150565b99505060208a013567ffffffffffffffff8111156112a057600080fd5b6112ac8c828d01611106565b985098505060408a013567ffffffffffffffff8111156112cb57600080fd5b6112d78c828d01611106565b965096505060606112ea8c828d01611150565b94505060806112fb8c828d016110f1565b93505060a061130c8c828d016110dc565b92505060c061131d8c828d01611150565b9150509295985092959850929598565b60006020828403121561133f57600080fd5b600061134d84828501611165565b91505092915050565b61135f816116b3565b82525050565b61136e816116a1565b82525050565b61137d816116c5565b82525050565b600061138e8261166f565b6113988185611685565b93506113a881856020860161176e565b80840191505092915050565b6113bd81611717565b82525050565b6113cc8161173b565b82525050565b60006113de8385611690565b93506113eb83858461175f565b6113f4836117a1565b840190509392505050565b600061140a8261167a565b6114148185611690565b935061142481856020860161176e565b61142d816117a1565b840191505092915050565b6000611445602683611690565b91507f4f776e61626c653a206e6577206f776e657220697320746865207a65726f206160008301527f64647265737300000000000000000000000000000000000000000000000000006020830152604082019050919050565b6114a7816116f1565b82525050565b6114b681611700565b82525050565b60006114c88284611383565b915081905092915050565b60006020820190506114e86000830184611365565b92915050565b60006060820190506115036000830186611365565b6115106020830185611365565b61151d60408301846114ad565b949350505050565b600060208201905061153a6000830184611374565b92915050565b600060208201905061155560008301846113b4565b92915050565b600060208201905061157060008301846113c3565b92915050565b6000602082019050818103600083015261159081846113ff565b905092915050565b600060208201905081810360008301526115b181611438565b9050919050565b60006020820190506115cd600083018461149e565b92915050565b60006020820190506115e860008301846114ad565b92915050565b600060e082019050611603600083018c6114ad565b8181036020830152611616818a8c6113d2565b9050818103604083015261162b81888a6113d2565b905061163a60608301876114ad565b6116476080830186611356565b61165460a0830185611365565b61166160c08301846114ad565b9a9950505050505050505050565b600081519050919050565b600081519050919050565b600081905092915050565b600082825260208201905092915050565b60006116ac826116d1565b9050919050565b60006116be826116d1565b9050919050565b60008115159050919050565b600073ffffffffffffffffffffffffffffffffffffffff82169050919050565b600062ffffff82169050919050565b6000819050919050565b600060ff82169050919050565b600061172282611729565b9050919050565b6000611734826116d1565b9050919050565b60006117468261174d565b9050919050565b6000611758826116d1565b9050919050565b82818337600083830152505050565b60005b8381101561178c578082015181840152602081019050611771565b8381111561179b576000848401525b50505050565b6000601f19601f8301169050919050565b6117bb816116a1565b81146117c657600080fd5b50565b6117d2816116b3565b81146117dd57600080fd5b50565b6117e981611700565b81146117f457600080fd5b50565b6118008161170a565b811461180b57600080fd5b5056fea264697066735822122062885bba62db4f781e71733b6bb1c14c83d1e7bf8afa6c8383db951e93ea57d164736f6c63430007060033",
  "immutableReferences": {},
  "source": "// SPDX-License-Identifier: Unlicensed\r\npragma solidity ^0.7.6;\r\n\r\npragma experimental ABIEncoderV2;\r\nimport \"./DaiToken.sol\";\r\n\r\n\r\n/// @title A contract that processes ERC20 donations\r\n/// @author Bofan Wu\r\n/// @dev All function calls are currently implemented without side effects\r\ncontract Donation_Processor {\r\n    /// @notice Name of contract\r\n    string public name = \"Donation_Processor\";\r\n    /// @notice contract owner\r\n    address public owner;\r\n    /// @notice donations are converted into the USDC stablecoin via a DEX swap\r\n    address public final_currency = 0x07865c6E87B9F70255377e024ace6630C1Eaa37F;//Circle Ropsten USDC\r\n    /// @notice USDC decimal precision\r\n    uint public final_currency_decimal=6;\r\n    using SafeMath for uint256;\r\n\r\n    /// @notice transaction fee that the smart contract charges in basis points\r\n    uint public donation_transaction_fee;\r\n    /// @notice total transaction fee that the smart contract has collected\r\n    uint public collected_transaction_fees;\r\n    /// @notice pointer to UniswapV2\r\n    IUniswapV2Router02 public uniswapV2Router;\r\n    /// @notice pointer to UniswapV3\r\n    ISwapRouter public uniswapV3Router;\r\n    /// @notice tracks accumulation of donations for recipient charities\r\n    mapping (address => uint) public donationAllocation;\r\n    /// @notice tracks total amount of times businesses withdraw their funds\r\n    uint public total_withdraw_count;\r\n    /// @notice tracks total amount of times businesses initiate wire requests via Circle integration\r\n    uint public wire_withdraw_count;\r\n    mapping (address => bool) public is_admin;\r\n    /// @notice UniswapV3 poolFee\r\n    uint24 public constant poolFee = 3000;\r\n    /// @notice tracks number of donations for each user\r\n    mapping (address => uint) public donation_count;\r\n\r\n    /// @notice event recording a donation transaction\r\n    event Transaction(\r\n        uint256 amount,\r\n        uint256 converted_amount,\r\n        uint256 received_amount,\r\n        string currency,\r\n        string org_name,\r\n        address indexed donor_address,\r\n        address indexed receiver,\r\n        uint input_decimals,\r\n        uint output_decimals,\r\n        uint date\r\n    );\r\n\r\n    /// @notice event recording a wire withdraw\r\n    event Wire_Withdraw(\r\n        uint256 indexed id,\r\n        address indexed charity_address,\r\n        uint256 amount,\r\n        uint256 timestamp,\r\n        uint output_decimals\r\n    );\r\n    /// @notice pointer to delegate_call smart contract for upgradability\r\n    address public delegate_address;\r\n\r\n    constructor() public {\r\n        owner = msg.sender;\r\n        is_admin[msg.sender]=true;\r\n\r\n        //setRouterAddress(0x7a250d5630B4cF539739dF2C5dAcb4c659F2488D);\r\n        setuniswapV3RouterAddress(0xE592427A0AEce92De3Edee1F18E0157C05861564);\r\n    }\r\n     //to recieve ETH from uniswapV2Router when swaping\r\n    receive() external payable {}\r\n\r\n    /// @notice Processes a donation from a user\r\n    /// @param _amount  amount of the donated ERC20 token\r\n    /// @param _currency  name of the donated ERC20 token\r\n    /// @param organization_name  name of the organization to receive the donation\r\n    /// @param organization_ein  EIN of the organization to receive the donation\r\n    /// @param charity_wallet  Ethereum address of the organization to receive the donation\r\n    /// @param currency_address  Ethereum address of the donated ERC20 token\r\n    /// @param decimals decimal precision of the donated ERC20 token\r\n    function process_donation(uint _amount,string calldata _currency, string calldata organization_name, uint organization_ein, address payable charity_wallet, address currency_address, uint decimals) external payable{\r\n\r\n        delegate_address.delegatecall(abi.encodeWithSignature(\"process_donation(uint256,string,string,uint256,address,address,uint256)\", _amount, _currency, organization_name, organization_ein, charity_wallet, currency_address, decimals));\r\n\r\n    }\r\n\r\n    /// @notice A charity calls this function to withdraw accumulated donations\r\n    /// @param _charity_address  address of the charity\r\n    /// @param _withdraw_address  address to withdraw to\r\n    /// @param _amount  amount to withdraw\r\n    function withdraw_donation(address _charity_address, address _withdraw_address, uint _amount) public{\r\n\r\n        delegate_address.delegatecall(abi.encodeWithSignature(\"withdraw_donation(address,address,uint256)\", _charity_address, _withdraw_address, _amount));\r\n\r\n    }\r\n//////////////////////////////////////////////////////////////////////////////////////////////////////////////////\r\n    ///////////////////////////////////////////////////////////////////Utility Functions///////////////////////////////////////////////\r\n    //////////////////////////////////////////////////////////////////////////////////////////////////////////////////\r\n    /// @notice A charity calls this function to see how much funds are available to be withdrawn\r\n    /// @param charity_address  address of the charity\r\n    function get_available_withdraw_amount(address charity_address) public view returns (uint){\r\n        return donationAllocation[charity_address];\r\n    }\r\n\r\n\r\n    /// @notice Fetch the total collected transaction fees by the smart contract\r\n\r\n    function get_collected_transaction_fees() public view returns (uint){\r\n        return collected_transaction_fees;\r\n    }\r\n    /// @notice Sets the transaction fee rate of the smart contract\r\n    /// @param _new_fee  new fee \r\n    function set_donation_transaction_fee(uint _new_fee) external{\r\n        if(msg.sender!=owner){//only owner can change\r\n                return;\r\n        }\r\n        donation_transaction_fee=_new_fee;\r\n        return;\r\n    }\r\n    /// @notice Sets the final currency that all donations are converted into (i.e. a stablecoin)\r\n    /// @param _contract_address  address of the new ERC20 token \r\n    function set_final_currency(address _contract_address) external{\r\n        if(msg.sender!=owner){//only owner can change\r\n                return;\r\n        }\r\n        final_currency=_contract_address;\r\n        final_currency_decimal = IERC20(_contract_address).decimals();\r\n        return;\r\n    }\r\n    /// @notice Sets the new owner of the smart contract\r\n    /// @param newOwner  address of the new owner\r\n    function transfer_owner(address newOwner) public{\r\n        if(msg.sender!=owner){\r\n            return;\r\n        }\r\n        require(newOwner != address(0), \"Ownable: new owner is the zero address\");\r\n        owner = newOwner;\r\n    }\r\n    /// @notice Updates the delegate_call address to enable smart contract upgradability \r\n    /// @param _contract_address  address of the delegate smart contract\r\n    function set_delegate_address(address _contract_address) external{\r\n        if(msg.sender!=owner){//only owner can change\r\n                return;\r\n        }\r\n        delegate_address=_contract_address;\r\n        return;\r\n    }\r\n    /// @notice Updates the DEX router address used for token conversions - for UniswapV2 and its forks\r\n    /// @param newRouter  address of the new router\r\n    function setRouterAddress(address newRouter) public{\r\n        if(msg.sender!=owner){\r\n            return;\r\n        }\r\n        IUniswapV2Router02 _newPancakeRouter = IUniswapV2Router02(newRouter);\r\n        uniswapV2Router = _newPancakeRouter;\r\n\r\n        //0x05fF2B0DB69458A0750badebc4f9e13aDd608C7F - BSC Pancake Mainnet (0x10ED43C718714eb63d5aA57B78B54704E256024E)\r\n        //0xD99D1c33F9fC3444f8101754aBC46c52416550D1 - BSC Pancake Testnet Router address\r\n        //0x9Ac64Cc6e4415144C455BD8E4837Fea55603e5c3 - BSC Pancake Testnet Simulator address\r\n\r\n        //0x7a250d5630B4cF539739dF2C5dAcb4c659F2488D - Uniswap v2 - All nets\r\n        //0x1b02dA8Cb0d097eB8D57A175b88c7D8b47997506 - SushiSwap - All nets\r\n\r\n    }\r\n    /// @notice Updates the DEX router address used for token conversions - for UniswapV3\r\n    /// @param newRouter  address of the new router\r\n    function setuniswapV3RouterAddress(address newRouter) public{\r\n        if(msg.sender!=owner){\r\n            return;\r\n        }\r\n        ISwapRouter _newuniswapRouter = ISwapRouter(newRouter);\r\n        uniswapV3Router = _newuniswapRouter;\r\n\r\n        //0xE592427A0AEce92De3Edee1F18E0157C05861564 - Uniswap v3 - All nets\r\n    }\r\n    /// @notice Checks if user has admin privilages\r\n    /// @param account  address of user to be checked\r\n    function check_if_admin(address account) external view returns(bool) {\r\n        return is_admin[account];\r\n    }\r\n\r\n    /// @notice Give or take away admin privilages\r\n    /// @param _address  address of user in question\r\n    /// @param _type  1 to enable admin priviliges, 0 to remove admin priviliges\r\n    function add_remove_admin(address _address, uint _type) public{\r\n        if(msg.sender!=owner){//only owner can add new admins\r\n            return;\r\n        }\r\n\r\n        if(_type==1){///add\r\n            is_admin[_address]=true;\r\n        }\r\n        else{///remove\r\n            is_admin[_address]=false;\r\n        }\r\n        return;\r\n    }\r\n}",
  "sourcePath": "C:/Users/Bofan/github/blockchain-developer-bootcamp-final-project/src/contracts/Donation_Processor.sol",
  "compiler": {
    "name": "solc",
    "version": "0.7.6+commit.7338295f.Emscripten.clang"
  },
  "schemaVersion": "3.2.3",
  "updatedAt": "2021-11-24T02:51:12.220Z",
  "devdoc": {
    "author": "Bofan Wu",
    "details": "All function calls are currently implemented without side effects",
    "kind": "dev",
    "methods": {
      "add_remove_admin(address,uint256)": {
        "params": {
          "_address": "address of user in question",
          "_type": "1 to enable admin priviliges, 0 to remove admin priviliges"
        }
      },
      "check_if_admin(address)": {
        "params": {
          "account": "address of user to be checked"
        }
      },
      "get_available_withdraw_amount(address)": {
        "params": {
          "charity_address": "address of the charity"
        }
      },
      "process_donation(uint256,string,string,uint256,address,address,uint256)": {
        "params": {
          "_amount": "amount of the donated ERC20 token",
          "_currency": "name of the donated ERC20 token",
          "charity_wallet": "Ethereum address of the organization to receive the donation",
          "currency_address": "Ethereum address of the donated ERC20 token",
          "decimals": "decimal precision of the donated ERC20 token",
          "organization_ein": "EIN of the organization to receive the donation",
          "organization_name": "name of the organization to receive the donation"
        }
      },
      "setRouterAddress(address)": {
        "params": {
          "newRouter": "address of the new router"
        }
      },
      "set_delegate_address(address)": {
        "params": {
          "_contract_address": "address of the delegate smart contract"
        }
      },
      "set_donation_transaction_fee(uint256)": {
        "params": {
          "_new_fee": "new fee "
        }
      },
      "set_final_currency(address)": {
        "params": {
          "_contract_address": "address of the new ERC20 token "
        }
      },
      "setuniswapV3RouterAddress(address)": {
        "params": {
          "newRouter": "address of the new router"
        }
      },
      "transfer_owner(address)": {
        "params": {
          "newOwner": "address of the new owner"
        }
      },
      "withdraw_donation(address,address,uint256)": {
        "params": {
          "_amount": "amount to withdraw",
          "_charity_address": "address of the charity",
          "_withdraw_address": "address to withdraw to"
        }
      }
    },
    "title": "A contract that processes ERC20 donations",
    "version": 1
  },
  "userdoc": {
    "events": {
      "Transaction(uint256,uint256,uint256,string,string,address,address,uint256,uint256,uint256)": {
        "notice": "event recording a donation transaction"
      },
      "Wire_Withdraw(uint256,address,uint256,uint256,uint256)": {
        "notice": "event recording a wire withdraw"
      }
    },
    "kind": "user",
    "methods": {
      "add_remove_admin(address,uint256)": {
        "notice": "Give or take away admin privilages"
      },
      "check_if_admin(address)": {
        "notice": "Checks if user has admin privilages"
      },
      "collected_transaction_fees()": {
        "notice": "total transaction fee that the smart contract has collected"
      },
      "delegate_address()": {
        "notice": "pointer to delegate_call smart contract for upgradability"
      },
      "donationAllocation(address)": {
        "notice": "tracks accumulation of donations for recipient charities"
      },
      "donation_count(address)": {
        "notice": "tracks number of donations for each user"
      },
      "donation_transaction_fee()": {
        "notice": "transaction fee that the smart contract charges in basis points"
      },
      "final_currency()": {
        "notice": "donations are converted into the USDC stablecoin via a DEX swap"
      },
      "final_currency_decimal()": {
        "notice": "USDC decimal precision"
      },
      "get_available_withdraw_amount(address)": {
        "notice": "A charity calls this function to see how much funds are available to be withdrawn"
      },
      "get_collected_transaction_fees()": {
        "notice": "Fetch the total collected transaction fees by the smart contract"
      },
      "name()": {
        "notice": "Name of contract"
      },
      "owner()": {
        "notice": "contract owner"
      },
      "poolFee()": {
        "notice": "UniswapV3 poolFee"
      },
      "process_donation(uint256,string,string,uint256,address,address,uint256)": {
        "notice": "Processes a donation from a user"
      },
      "setRouterAddress(address)": {
        "notice": "Updates the DEX router address used for token conversions - for UniswapV2 and its forks"
      },
      "set_delegate_address(address)": {
        "notice": "Updates the delegate_call address to enable smart contract upgradability "
      },
      "set_donation_transaction_fee(uint256)": {
        "notice": "Sets the transaction fee rate of the smart contract"
      },
      "set_final_currency(address)": {
        "notice": "Sets the final currency that all donations are converted into (i.e. a stablecoin)"
      },
      "setuniswapV3RouterAddress(address)": {
        "notice": "Updates the DEX router address used for token conversions - for UniswapV3"
      },
      "total_withdraw_count()": {
        "notice": "tracks total amount of times businesses withdraw their funds"
      },
      "transfer_owner(address)": {
        "notice": "Sets the new owner of the smart contract"
      },
      "uniswapV2Router()": {
        "notice": "pointer to UniswapV2"
      },
      "uniswapV3Router()": {
        "notice": "pointer to UniswapV3"
      },
      "wire_withdraw_count()": {
        "notice": "tracks total amount of times businesses initiate wire requests via Circle integration"
      },
      "withdraw_donation(address,address,uint256)": {
        "notice": "A charity calls this function to withdraw accumulated donations"
      }
    },
    "version": 1
  }
}