{
  "contractName": "Donation_Processor",
  "abi": [
    {
      "inputs": [],
      "stateMutability": "nonpayable",
      "type": "constructor"
    },
    {
      "anonymous": false,
      "inputs": [
        {
          "indexed": false,
          "internalType": "uint256",
          "name": "amount",
          "type": "uint256"
        },
        {
          "indexed": false,
          "internalType": "uint256",
          "name": "converted_amount",
          "type": "uint256"
        },
        {
          "indexed": false,
          "internalType": "uint256",
          "name": "received_amount",
          "type": "uint256"
        },
        {
          "indexed": false,
          "internalType": "string",
          "name": "currency",
          "type": "string"
        },
        {
          "indexed": false,
          "internalType": "string",
          "name": "org_name",
          "type": "string"
        },
        {
          "indexed": true,
          "internalType": "address",
          "name": "donor_address",
          "type": "address"
        },
        {
          "indexed": true,
          "internalType": "address",
          "name": "receiver",
          "type": "address"
        },
        {
          "indexed": false,
          "internalType": "uint256",
          "name": "input_decimals",
          "type": "uint256"
        },
        {
          "indexed": false,
          "internalType": "uint256",
          "name": "output_decimals",
          "type": "uint256"
        },
        {
          "indexed": false,
          "internalType": "uint256",
          "name": "date",
          "type": "uint256"
        }
      ],
      "name": "Transaction",
      "type": "event"
    },
    {
      "anonymous": false,
      "inputs": [
        {
          "indexed": true,
          "internalType": "uint256",
          "name": "id",
          "type": "uint256"
        },
        {
          "indexed": true,
          "internalType": "address",
          "name": "charity_address",
          "type": "address"
        },
        {
          "indexed": false,
          "internalType": "uint256",
          "name": "amount",
          "type": "uint256"
        },
        {
          "indexed": false,
          "internalType": "uint256",
          "name": "timestamp",
          "type": "uint256"
        },
        {
          "indexed": false,
          "internalType": "uint256",
          "name": "output_decimals",
          "type": "uint256"
        }
      ],
      "name": "Wire_Withdraw",
      "type": "event"
    },
    {
      "inputs": [],
      "name": "collected_transaction_fees",
      "outputs": [
        {
          "internalType": "uint256",
          "name": "",
          "type": "uint256"
        }
      ],
      "stateMutability": "view",
      "type": "function",
      "constant": true
    },
    {
      "inputs": [],
      "name": "delegate_address",
      "outputs": [
        {
          "internalType": "address",
          "name": "",
          "type": "address"
        }
      ],
      "stateMutability": "view",
      "type": "function",
      "constant": true
    },
    {
      "inputs": [
        {
          "internalType": "address",
          "name": "",
          "type": "address"
        }
      ],
      "name": "donationAllocation",
      "outputs": [
        {
          "internalType": "uint256",
          "name": "",
          "type": "uint256"
        }
      ],
      "stateMutability": "view",
      "type": "function",
      "constant": true
    },
    {
      "inputs": [],
      "name": "donation_transaction_fee",
      "outputs": [
        {
          "internalType": "uint256",
          "name": "",
          "type": "uint256"
        }
      ],
      "stateMutability": "view",
      "type": "function",
      "constant": true
    },
    {
      "inputs": [],
      "name": "final_currency",
      "outputs": [
        {
          "internalType": "address",
          "name": "",
          "type": "address"
        }
      ],
      "stateMutability": "view",
      "type": "function",
      "constant": true
    },
    {
      "inputs": [],
      "name": "final_currency_decimal",
      "outputs": [
        {
          "internalType": "uint256",
          "name": "",
          "type": "uint256"
        }
      ],
      "stateMutability": "view",
      "type": "function",
      "constant": true
    },
    {
      "inputs": [
        {
          "internalType": "address",
          "name": "",
          "type": "address"
        }
      ],
      "name": "is_admin",
      "outputs": [
        {
          "internalType": "bool",
          "name": "",
          "type": "bool"
        }
      ],
      "stateMutability": "view",
      "type": "function",
      "constant": true
    },
    {
      "inputs": [],
      "name": "name",
      "outputs": [
        {
          "internalType": "string",
          "name": "",
          "type": "string"
        }
      ],
      "stateMutability": "view",
      "type": "function",
      "constant": true
    },
    {
      "inputs": [],
      "name": "owner",
      "outputs": [
        {
          "internalType": "address",
          "name": "",
          "type": "address"
        }
      ],
      "stateMutability": "view",
      "type": "function",
      "constant": true
    },
    {
      "inputs": [],
      "name": "poolFee",
      "outputs": [
        {
          "internalType": "uint24",
          "name": "",
          "type": "uint24"
        }
      ],
      "stateMutability": "view",
      "type": "function",
      "constant": true
    },
    {
      "inputs": [],
      "name": "total_withdraw_count",
      "outputs": [
        {
          "internalType": "uint256",
          "name": "",
          "type": "uint256"
        }
      ],
      "stateMutability": "view",
      "type": "function",
      "constant": true
    },
    {
      "inputs": [],
      "name": "uniswapV2Router",
      "outputs": [
        {
          "internalType": "contract IUniswapV2Router02",
          "name": "",
          "type": "address"
        }
      ],
      "stateMutability": "view",
      "type": "function",
      "constant": true
    },
    {
      "inputs": [],
      "name": "uniswapV3Router",
      "outputs": [
        {
          "internalType": "contract ISwapRouter",
          "name": "",
          "type": "address"
        }
      ],
      "stateMutability": "view",
      "type": "function",
      "constant": true
    },
    {
      "inputs": [],
      "name": "wire_withdraw_count",
      "outputs": [
        {
          "internalType": "uint256",
          "name": "",
          "type": "uint256"
        }
      ],
      "stateMutability": "view",
      "type": "function",
      "constant": true
    },
    {
      "stateMutability": "payable",
      "type": "receive",
      "payable": true
    },
    {
      "inputs": [
        {
          "internalType": "uint256",
          "name": "_amount",
          "type": "uint256"
        },
        {
          "internalType": "string",
          "name": "_currency",
          "type": "string"
        },
        {
          "internalType": "string",
          "name": "organization_name",
          "type": "string"
        },
        {
          "internalType": "uint256",
          "name": "organization_ein",
          "type": "uint256"
        },
        {
          "internalType": "address payable",
          "name": "charity_wallet",
          "type": "address"
        },
        {
          "internalType": "address",
          "name": "currency_address",
          "type": "address"
        },
        {
          "internalType": "uint256",
          "name": "decimals",
          "type": "uint256"
        }
      ],
      "name": "process_donation",
      "outputs": [],
      "stateMutability": "payable",
      "type": "function",
      "payable": true
    },
    {
      "inputs": [],
      "name": "execute_token_burn",
      "outputs": [],
      "stateMutability": "nonpayable",
      "type": "function"
    },
    {
      "inputs": [
        {
          "internalType": "address",
          "name": "_charity_address",
          "type": "address"
        },
        {
          "internalType": "address",
          "name": "_withdraw_address",
          "type": "address"
        },
        {
          "internalType": "uint256",
          "name": "_amount",
          "type": "uint256"
        }
      ],
      "name": "withdraw_donation",
      "outputs": [],
      "stateMutability": "nonpayable",
      "type": "function"
    },
    {
      "inputs": [
        {
          "internalType": "address",
          "name": "charity_address",
          "type": "address"
        }
      ],
      "name": "get_available_withdraw_amount",
      "outputs": [
        {
          "internalType": "uint256",
          "name": "",
          "type": "uint256"
        }
      ],
      "stateMutability": "view",
      "type": "function",
      "constant": true
    },
    {
      "inputs": [],
      "name": "get_collected_transaction_fees",
      "outputs": [
        {
          "internalType": "uint256",
          "name": "",
          "type": "uint256"
        }
      ],
      "stateMutability": "view",
      "type": "function",
      "constant": true
    },
    {
      "inputs": [
        {
          "internalType": "uint256",
          "name": "_new_fee",
          "type": "uint256"
        }
      ],
      "name": "set_donation_transaction_fee",
      "outputs": [],
      "stateMutability": "nonpayable",
      "type": "function"
    },
    {
      "inputs": [
        {
          "internalType": "address",
          "name": "_contract_address",
          "type": "address"
        }
      ],
      "name": "set_final_currency",
      "outputs": [],
      "stateMutability": "nonpayable",
      "type": "function"
    },
    {
      "inputs": [
        {
          "internalType": "address",
          "name": "newOwner",
          "type": "address"
        }
      ],
      "name": "transfer_owner",
      "outputs": [],
      "stateMutability": "nonpayable",
      "type": "function"
    },
    {
      "inputs": [
        {
          "internalType": "address",
          "name": "_contract_address",
          "type": "address"
        }
      ],
      "name": "set_delegate_address",
      "outputs": [],
      "stateMutability": "nonpayable",
      "type": "function"
    },
    {
      "inputs": [
        {
          "internalType": "address",
          "name": "newRouter",
          "type": "address"
        }
      ],
      "name": "setRouterAddress",
      "outputs": [],
      "stateMutability": "nonpayable",
      "type": "function"
    },
    {
      "inputs": [
        {
          "internalType": "address",
          "name": "newRouter",
          "type": "address"
        }
      ],
      "name": "setuniswapV3RouterAddress",
      "outputs": [],
      "stateMutability": "nonpayable",
      "type": "function"
    },
    {
      "inputs": [
        {
          "internalType": "address",
          "name": "account",
          "type": "address"
        }
      ],
      "name": "check_if_admin",
      "outputs": [
        {
          "internalType": "bool",
          "name": "",
          "type": "bool"
        }
      ],
      "stateMutability": "view",
      "type": "function",
      "constant": true
    },
    {
      "inputs": [
        {
          "internalType": "address",
          "name": "_address",
          "type": "address"
        },
        {
          "internalType": "uint256",
          "name": "_type",
          "type": "uint256"
        }
      ],
      "name": "add_remove_admin",
      "outputs": [],
      "stateMutability": "nonpayable",
      "type": "function"
    }
  ],
  "bytecode": "0x60806040526040518060400160405280601281526020017f446f6e6174696f6e5f50726f636573736f7200000000000000000000000000008152506000908051906020019062000051929190620002f1565b507307865c6e87b9f70255377e024ace6630c1eaa37f600260006101000a81548173ffffffffffffffffffffffffffffffffffffffff021916908373ffffffffffffffffffffffffffffffffffffffff1602179055506006600355348015620000b957600080fd5b5033600160006101000a81548173ffffffffffffffffffffffffffffffffffffffff021916908373ffffffffffffffffffffffffffffffffffffffff1602179055506001600b60003373ffffffffffffffffffffffffffffffffffffffff1673ffffffffffffffffffffffffffffffffffffffff16815260200190815260200160002060006101000a81548160ff02191690831515021790555062000178737a250d5630b4cf539739df2c5dacb4c659f2488d620001a360201b60201c565b6200019d73e592427a0aece92de3edee1f18e0157c058615646200024a60201b60201c565b620003a7565b600160009054906101000a900473ffffffffffffffffffffffffffffffffffffffff1673ffffffffffffffffffffffffffffffffffffffff163373ffffffffffffffffffffffffffffffffffffffff1614620001ff5762000247565b600081905080600660006101000a81548173ffffffffffffffffffffffffffffffffffffffff021916908373ffffffffffffffffffffffffffffffffffffffff160217905550505b50565b600160009054906101000a900473ffffffffffffffffffffffffffffffffffffffff1673ffffffffffffffffffffffffffffffffffffffff163373ffffffffffffffffffffffffffffffffffffffff1614620002a657620002ee565b600081905080600760006101000a81548173ffffffffffffffffffffffffffffffffffffffff021916908373ffffffffffffffffffffffffffffffffffffffff160217905550505b50565b828054600181600116156101000203166002900490600052602060002090601f01602090048101928262000329576000855562000375565b82601f106200034457805160ff191683800117855562000375565b8280016001018555821562000375579182015b828111156200037457825182559160200191906001019062000357565b5b50905062000384919062000388565b5090565b5b80821115620003a357600081600090555060010162000389565b5090565b61191480620003b76000396000f3fe6080604052600436106101a05760003560e01c80638794b773116100ec578063afed47e71161008a578063dfc4b8c911610064578063dfc4b8c9146105a2578063e3edb0c0146105cd578063ed504c34146105f8578063f2b7786f14610621576101a7565b8063afed47e714610525578063c6445cae1461054e578063d8c325f514610577576101a7565b8063a7bd6292116100c6578063a7bd62921461047d578063aa3082bc146104a6578063aac132de146104d1578063af3be2de1461050e576101a7565b80638794b773146103f95780638da5cb5b1461041557806391e25e2514610440576101a7565b80633133efa9116101595780636bfb393f116101335780636bfb393f1461034f57806374d1bca81461037a5780637a09dc4e146103a557806384c1e68b146103d0576101a7565b80633133efa9146102be57806341cb87fc146102e957806342c23bea14610312576101a7565b806306fdde03146101ac578063089fe6aa146101d75780631694505e1461020257806325b0b21a1461022d578063288960661461026a5780632c76d7a614610293576101a7565b366101a757005b600080fd5b3480156101b857600080fd5b506101c161064a565b6040516101ce9190611646565b60405180910390f35b3480156101e357600080fd5b506101ec6106e8565b6040516101f99190611688565b60405180910390f35b34801561020e57600080fd5b506102176106ee565b604051610224919061162b565b60405180910390f35b34801561023957600080fd5b50610254600480360381019061024f919061124a565b610714565b60405161026191906116a3565b60405180910390f35b34801561027657600080fd5b50610291600480360381019061028c919061124a565b61075d565b005b34801561029f57600080fd5b506102a861086c565b6040516102b59190611610565b60405180910390f35b3480156102ca57600080fd5b506102d3610892565b6040516102e091906116a3565b60405180910390f35b3480156102f557600080fd5b50610310600480360381019061030b919061124a565b610898565b005b34801561031e57600080fd5b506103396004803603810190610334919061124a565b61093d565b60405161034691906116a3565b60405180910390f35b34801561035b57600080fd5b50610364610955565b60405161037191906115a3565b60405180910390f35b34801561038657600080fd5b5061038f61097b565b60405161039c91906115a3565b60405180910390f35b3480156103b157600080fd5b506103ba6109a1565b6040516103c791906116a3565b60405180910390f35b3480156103dc57600080fd5b506103f760048036038101906103f29190611273565b6109a7565b005b610413600480360381019061040e9190611327565b610ac7565b005b34801561042157600080fd5b5061042a610bf9565b60405161043791906115a3565b60405180910390f35b34801561044c57600080fd5b506104676004803603810190610462919061124a565b610c1f565b60405161047491906115f5565b60405180910390f35b34801561048957600080fd5b506104a4600480360381019061049f919061124a565b610c75565b005b3480156104b257600080fd5b506104bb610d14565b6040516104c891906116a3565b60405180910390f35b3480156104dd57600080fd5b506104f860048036038101906104f3919061124a565b610d1a565b60405161050591906115f5565b60405180910390f35b34801561051a57600080fd5b50610523610d3a565b005b34801561053157600080fd5b5061054c6004803603810190610547919061124a565b610e48565b005b34801561055a57600080fd5b506105756004803603810190610570919061124a565b610f6e565b005b34801561058357600080fd5b5061058c611013565b60405161059991906116a3565b60405180910390f35b3480156105ae57600080fd5b506105b7611019565b6040516105c491906116a3565b60405180910390f35b3480156105d957600080fd5b506105e2611023565b6040516105ef91906116a3565b60405180910390f35b34801561060457600080fd5b5061061f600480360381019061061a91906112c2565b611029565b005b34801561062d57600080fd5b50610648600480360381019061064391906112fe565b611147565b005b60008054600181600116156101000203166002900480601f0160208091040260200160405190810160405280929190818152602001828054600181600116156101000203166002900480156106e05780601f106106b5576101008083540402835291602001916106e0565b820191906000526020600020905b8154815290600101906020018083116106c357829003601f168201915b505050505081565b610bb881565b600660009054906101000a900473ffffffffffffffffffffffffffffffffffffffff1681565b6000600860008373ffffffffffffffffffffffffffffffffffffffff1673ffffffffffffffffffffffffffffffffffffffff168152602001908152602001600020549050919050565b600160009054906101000a900473ffffffffffffffffffffffffffffffffffffffff1673ffffffffffffffffffffffffffffffffffffffff163373ffffffffffffffffffffffffffffffffffffffff16146107b757610869565b600073ffffffffffffffffffffffffffffffffffffffff168173ffffffffffffffffffffffffffffffffffffffff161415610827576040517f08c379a000000000000000000000000000000000000000000000000000000000815260040161081e90611668565b60405180910390fd5b80600160006101000a81548173ffffffffffffffffffffffffffffffffffffffff021916908373ffffffffffffffffffffffffffffffffffffffff1602179055505b50565b600760009054906101000a900473ffffffffffffffffffffffffffffffffffffffff1681565b60055481565b600160009054906101000a900473ffffffffffffffffffffffffffffffffffffffff1673ffffffffffffffffffffffffffffffffffffffff163373ffffffffffffffffffffffffffffffffffffffff16146108f25761093a565b600081905080600660006101000a81548173ffffffffffffffffffffffffffffffffffffffff021916908373ffffffffffffffffffffffffffffffffffffffff160217905550505b50565b60086020528060005260406000206000915090505481565b600260009054906101000a900473ffffffffffffffffffffffffffffffffffffffff1681565b600c60009054906101000a900473ffffffffffffffffffffffffffffffffffffffff1681565b600a5481565b600c60009054906101000a900473ffffffffffffffffffffffffffffffffffffffff1673ffffffffffffffffffffffffffffffffffffffff168383836040516024016109f5939291906115be565b6040516020818303038152906040527f84c1e68b000000000000000000000000000000000000000000000000000000007bffffffffffffffffffffffffffffffffffffffffffffffffffffffff19166020820180517bffffffffffffffffffffffffffffffffffffffffffffffffffffffff8381831617835250505050604051610a7f919061158c565b600060405180830381855af49150503d8060008114610aba576040519150601f19603f3d011682016040523d82523d6000602084013e610abf565b606091505b505050505050565b600c60009054906101000a900473ffffffffffffffffffffffffffffffffffffffff1673ffffffffffffffffffffffffffffffffffffffff16898989898989898989604051602401610b21999897969594939291906116be565b6040516020818303038152906040527f8794b773000000000000000000000000000000000000000000000000000000007bffffffffffffffffffffffffffffffffffffffffffffffffffffffff19166020820180517bffffffffffffffffffffffffffffffffffffffffffffffffffffffff8381831617835250505050604051610bab919061158c565b600060405180830381855af49150503d8060008114610be6576040519150601f19603f3d011682016040523d82523d6000602084013e610beb565b606091505b505050505050505050505050565b600160009054906101000a900473ffffffffffffffffffffffffffffffffffffffff1681565b6000600b60008373ffffffffffffffffffffffffffffffffffffffff1673ffffffffffffffffffffffffffffffffffffffff16815260200190815260200160002060009054906101000a900460ff169050919050565b600160009054906101000a900473ffffffffffffffffffffffffffffffffffffffff1673ffffffffffffffffffffffffffffffffffffffff163373ffffffffffffffffffffffffffffffffffffffff1614610ccf57610d11565b80600c60006101000a81548173ffffffffffffffffffffffffffffffffffffffff021916908373ffffffffffffffffffffffffffffffffffffffff1602179055505b50565b60035481565b600b6020528060005260406000206000915054906101000a900460ff1681565b600c60009054906101000a900473ffffffffffffffffffffffffffffffffffffffff1673ffffffffffffffffffffffffffffffffffffffff166040516024016040516020818303038152906040527faf3be2de000000000000000000000000000000000000000000000000000000007bffffffffffffffffffffffffffffffffffffffffffffffffffffffff19166020820180517bffffffffffffffffffffffffffffffffffffffffffffffffffffffff8381831617835250505050604051610e03919061158c565b600060405180830381855af49150503d8060008114610e3e576040519150601f19603f3d011682016040523d82523d6000602084013e610e43565b606091505b505050565b600160009054906101000a900473ffffffffffffffffffffffffffffffffffffffff1673ffffffffffffffffffffffffffffffffffffffff163373ffffffffffffffffffffffffffffffffffffffff1614610ea257610f6b565b80600260006101000a81548173ffffffffffffffffffffffffffffffffffffffff021916908373ffffffffffffffffffffffffffffffffffffffff1602179055508073ffffffffffffffffffffffffffffffffffffffff1663313ce5676040518163ffffffff1660e01b815260040160206040518083038186803b158015610f2957600080fd5b505afa158015610f3d573d6000803e3d6000fd5b505050506040513d601f19601f82011682018060405250810190610f6191906113fd565b60ff166003819055505b50565b600160009054906101000a900473ffffffffffffffffffffffffffffffffffffffff1673ffffffffffffffffffffffffffffffffffffffff163373ffffffffffffffffffffffffffffffffffffffff1614610fc857611010565b600081905080600760006101000a81548173ffffffffffffffffffffffffffffffffffffffff021916908373ffffffffffffffffffffffffffffffffffffffff160217905550505b50565b60045481565b6000600554905090565b60095481565b600160009054906101000a900473ffffffffffffffffffffffffffffffffffffffff1673ffffffffffffffffffffffffffffffffffffffff163373ffffffffffffffffffffffffffffffffffffffff161461108357611143565b60018114156110e9576001600b60008473ffffffffffffffffffffffffffffffffffffffff1673ffffffffffffffffffffffffffffffffffffffff16815260200190815260200160002060006101000a81548160ff021916908315150217905550611142565b6000600b60008473ffffffffffffffffffffffffffffffffffffffff1673ffffffffffffffffffffffffffffffffffffffff16815260200190815260200160002060006101000a81548160ff0219169083151502179055505b5b5050565b600160009054906101000a900473ffffffffffffffffffffffffffffffffffffffff1673ffffffffffffffffffffffffffffffffffffffff163373ffffffffffffffffffffffffffffffffffffffff16146111a1576111a9565b806004819055505b50565b6000813590506111bb81611882565b92915050565b6000813590506111d081611899565b92915050565b60008083601f8401126111e857600080fd5b8235905067ffffffffffffffff81111561120157600080fd5b60208301915083600182028301111561121957600080fd5b9250929050565b60008135905061122f816118b0565b92915050565b600081519050611244816118c7565b92915050565b60006020828403121561125c57600080fd5b600061126a848285016111ac565b91505092915050565b60008060006060848603121561128857600080fd5b6000611296868287016111ac565b93505060206112a7868287016111ac565b92505060406112b886828701611220565b9150509250925092565b600080604083850312156112d557600080fd5b60006112e3858286016111ac565b92505060206112f485828601611220565b9150509250929050565b60006020828403121561131057600080fd5b600061131e84828501611220565b91505092915050565b600080600080600080600080600060e08a8c03121561134557600080fd5b60006113538c828d01611220565b99505060208a013567ffffffffffffffff81111561137057600080fd5b61137c8c828d016111d6565b985098505060408a013567ffffffffffffffff81111561139b57600080fd5b6113a78c828d016111d6565b965096505060606113ba8c828d01611220565b94505060806113cb8c828d016111c1565b93505060a06113dc8c828d016111ac565b92505060c06113ed8c828d01611220565b9150509295985092959850929598565b60006020828403121561140f57600080fd5b600061141d84828501611235565b91505092915050565b61142f81611783565b82525050565b61143e81611771565b82525050565b61144d81611795565b82525050565b600061145e8261173f565b6114688185611755565b935061147881856020860161183e565b80840191505092915050565b61148d816117e7565b82525050565b61149c8161180b565b82525050565b60006114ae8385611760565b93506114bb83858461182f565b6114c483611871565b840190509392505050565b60006114da8261174a565b6114e48185611760565b93506114f481856020860161183e565b6114fd81611871565b840191505092915050565b6000611515602683611760565b91507f4f776e61626c653a206e6577206f776e657220697320746865207a65726f206160008301527f64647265737300000000000000000000000000000000000000000000000000006020830152604082019050919050565b611577816117c1565b82525050565b611586816117d0565b82525050565b60006115988284611453565b915081905092915050565b60006020820190506115b86000830184611435565b92915050565b60006060820190506115d36000830186611435565b6115e06020830185611435565b6115ed604083018461157d565b949350505050565b600060208201905061160a6000830184611444565b92915050565b60006020820190506116256000830184611484565b92915050565b60006020820190506116406000830184611493565b92915050565b6000602082019050818103600083015261166081846114cf565b905092915050565b6000602082019050818103600083015261168181611508565b9050919050565b600060208201905061169d600083018461156e565b92915050565b60006020820190506116b8600083018461157d565b92915050565b600060e0820190506116d3600083018c61157d565b81810360208301526116e6818a8c6114a2565b905081810360408301526116fb81888a6114a2565b905061170a606083018761157d565b6117176080830186611426565b61172460a0830185611435565b61173160c083018461157d565b9a9950505050505050505050565b600081519050919050565b600081519050919050565b600081905092915050565b600082825260208201905092915050565b600061177c826117a1565b9050919050565b600061178e826117a1565b9050919050565b60008115159050919050565b600073ffffffffffffffffffffffffffffffffffffffff82169050919050565b600062ffffff82169050919050565b6000819050919050565b600060ff82169050919050565b60006117f2826117f9565b9050919050565b6000611804826117a1565b9050919050565b60006118168261181d565b9050919050565b6000611828826117a1565b9050919050565b82818337600083830152505050565b60005b8381101561185c578082015181840152602081019050611841565b8381111561186b576000848401525b50505050565b6000601f19601f8301169050919050565b61188b81611771565b811461189657600080fd5b50565b6118a281611783565b81146118ad57600080fd5b50565b6118b9816117d0565b81146118c457600080fd5b50565b6118d0816117da565b81146118db57600080fd5b5056fea2646970667358221220fa0c0f12adc627c0699a3a2976b31429d5f4f7e78606c7b5618709b987f5384364736f6c63430007060033",
  "immutableReferences": {},
  "source": "pragma solidity ^0.7.6;\r\n//pragma solidity ^0.6.12;\r\n// SPDX-License-Identifier: Unlicensed\r\npragma experimental ABIEncoderV2;\r\nimport \"./DaiToken.sol\";\r\n\r\ncontract Donation_Processor {\r\n    string public name = \"Donation_Processor\";\r\n    //DaiToken public daiToken;\r\n    address public owner;\r\n    //address public final_currency = 0x78867BbEeF44f2326bF8DDd1941a4439382EF2A7;////Pancakeswap simulator BUSD address\r\n    //address public final_currency = 0x2963EEef46978C745b45B6Da29B78d9cC0708855;////convert all donations into stablecoins, currently set to fake stablecoin (BSC testnet)\r\n    //address public final_currency = 0xb58A25294f399f7056a4cD5DAE3c2Fb9259e360d;//BSC USDC (6 decimals)\r\n    address public final_currency = 0x07865c6E87B9F70255377e024ace6630C1Eaa37F;//Circle Ropsten USDC\r\n    //address public final_currency = 0xA0b86991c6218b36c1d19D4a2e9Eb0cE3606eB48;//Circle Mainnet USDC\r\n    //address public final_currency = 0xaa57543e9246E67c82E45E7e9faf90548A6297F7;////Kovan testnet stablecoin\r\n    uint public final_currency_decimal=6;\r\n    using SafeMath for uint256;\r\n\r\n    //mapping (address => donation_transaction[]) public donation_transactions;//record-keeping for charities\r\n    //mapping (address => donation_transaction[]) public token_holder_donations;//record keeping for individuals\r\n    uint public donation_transaction_fee;//in basis points - (i.e.300)\r\n    uint public collected_transaction_fees;//in stablecoins\r\n    IUniswapV2Router02 public uniswapV2Router;\r\n    ISwapRouter public uniswapV3Router;\r\n    mapping (address => uint) public donationAllocation;\r\n    uint public total_withdraw_count;\r\n    uint public wire_withdraw_count;\r\n    mapping (address => bool) public is_admin;\r\n    uint24 public constant poolFee = 3000;\r\n\r\n    event Transaction(\r\n        uint256 amount,\r\n        uint256 converted_amount,\r\n        uint256 received_amount,\r\n        string currency,\r\n        string org_name,\r\n        address indexed donor_address,\r\n        address indexed receiver,\r\n        uint input_decimals,\r\n        uint output_decimals,\r\n        uint date\r\n    );\r\n    event Wire_Withdraw(\r\n        uint256 indexed id,\r\n        address indexed charity_address,\r\n        uint256 amount,\r\n        uint256 timestamp,\r\n        uint output_decimals\r\n    );\r\n    address public delegate_address;\r\n\r\n    /*struct donation_transaction{\r\n        uint amount;\r\n        uint converted_amount;\r\n        uint received_amount;\r\n        string currency;\r\n        uint date;\r\n        string org_name;\r\n        uint org_ein;\r\n        address donor_address;\r\n        uint input_decimals;\r\n        uint output_decimals;\r\n    }\r\n    struct wire_request{\r\n        uint id;\r\n        address charity_address;\r\n        uint amount;\r\n        uint timestamp;\r\n        uint output_decimals;\r\n    }\r\n    wire_request[] wire_request_array;\r\n    */\r\n\r\n\r\n    constructor() public {//DaiToken _daiToken\r\n        //daiToken = _daiToken;\r\n        owner = msg.sender;\r\n        is_admin[msg.sender]=true;\r\n        //setRouterAddress(0x1b02dA8Cb0d097eB8D57A175b88c7D8b47997506);\r\n        setRouterAddress(0x7a250d5630B4cF539739dF2C5dAcb4c659F2488D);\r\n        //setRouterAddress(0x9Ac64Cc6e4415144C455BD8E4837Fea55603e5c3);\r\n        setuniswapV3RouterAddress(0xE592427A0AEce92De3Edee1F18E0157C05861564);\r\n    }\r\n     //to recieve ETH from uniswapV2Router when swaping\r\n    receive() external payable {}\r\n\r\n\r\n    function process_donation(uint _amount,string calldata _currency, string calldata organization_name, uint organization_ein, address payable charity_wallet, address currency_address, uint decimals) external payable{\r\n        //delegate_address.delegatecall(abi.encode(bytes4(keccak256(\"process_donation(uint256,string,string,uint256,address,address)\")), _amount, _currency, organization_name, organization_ein, charity_wallet, currency_address)); \r\n        delegate_address.delegatecall(abi.encodeWithSignature(\"process_donation(uint256,string,string,uint256,address,address,uint256)\", _amount, _currency, organization_name, organization_ein, charity_wallet, currency_address, decimals));\r\n\r\n    }\r\n    function execute_token_burn() external{\r\n        //delegate_address.delegatecall(abi.encode(bytes4(keccak256(\"execute_token_burn()\"))));\r\n        delegate_address.delegatecall(abi.encodeWithSignature(\"execute_token_burn()\"));\r\n\r\n    }\r\n    function withdraw_donation(address _charity_address, address _withdraw_address, uint _amount) public{\r\n\r\n        delegate_address.delegatecall(abi.encodeWithSignature(\"withdraw_donation(address,address,uint256)\", _charity_address, _withdraw_address, _amount));\r\n\r\n    }\r\n//////////////////////////////////////////////////////////////////////////////////////////////////////////////////\r\n    ///////////////////////////////////////////////////////////////////Utility Functions///////////////////////////////////////////////\r\n    //////////////////////////////////////////////////////////////////////////////////////////////////////////////////\r\n\r\n    function get_available_withdraw_amount(address charity_address) public view returns (uint){\r\n        return donationAllocation[charity_address];\r\n    }\r\n    /*function get_wire_transfer_array() external view returns (wire_request[] memory){\r\n        return wire_request_array;\r\n    }\r\n    function get_donation_transactions(address fetch_account, uint fetch_type) external view returns (donation_transaction[] memory){//public\r\n        if(fetch_type==0){\r\n            return donation_transactions[fetch_account];\r\n        }\r\n        else{\r\n            return token_holder_donations[fetch_account];\r\n        }\r\n    }*/\r\n    function get_collected_transaction_fees() public view returns (uint){\r\n        return collected_transaction_fees;\r\n    }\r\n    function set_donation_transaction_fee(uint _new_fee) external{\r\n        if(msg.sender!=owner){//only owner can change\r\n                return;\r\n        }\r\n        donation_transaction_fee=_new_fee;\r\n        return;\r\n    }\r\n    function set_final_currency(address _contract_address) external{\r\n        if(msg.sender!=owner){//only owner can change\r\n                return;\r\n        }\r\n        final_currency=_contract_address;\r\n        final_currency_decimal = IERC20(_contract_address).decimals();\r\n        return;\r\n    }\r\n\r\n    function transfer_owner(address newOwner) public{//not tested yet\r\n        if(msg.sender!=owner){\r\n            return;\r\n        }\r\n        require(newOwner != address(0), \"Ownable: new owner is the zero address\");\r\n        owner = newOwner;\r\n    }\r\n    function set_delegate_address(address _contract_address) external{\r\n        if(msg.sender!=owner){//only owner can change\r\n                return;\r\n        }\r\n        delegate_address=_contract_address;\r\n        return;\r\n    }\r\n    function setRouterAddress(address newRouter) public{\r\n        if(msg.sender!=owner){\r\n            return;\r\n        }\r\n        IUniswapV2Router02 _newPancakeRouter = IUniswapV2Router02(newRouter);\r\n        uniswapV2Router = _newPancakeRouter;\r\n\r\n        //0x05fF2B0DB69458A0750badebc4f9e13aDd608C7F - BSC Pancake Mainnet (0x10ED43C718714eb63d5aA57B78B54704E256024E)\r\n        //0xD99D1c33F9fC3444f8101754aBC46c52416550D1 - BSC Pancake Testnet Router address\r\n        //0x9Ac64Cc6e4415144C455BD8E4837Fea55603e5c3 - BSC Pancake Testnet Simulator address\r\n\r\n        //0x7a250d5630B4cF539739dF2C5dAcb4c659F2488D - Uniswap v2 - All nets\r\n        //0x1b02dA8Cb0d097eB8D57A175b88c7D8b47997506 - SushiSwap - All nets\r\n\r\n    }\r\n    function setuniswapV3RouterAddress(address newRouter) public{\r\n        if(msg.sender!=owner){\r\n            return;\r\n        }\r\n        ISwapRouter _newuniswapRouter = ISwapRouter(newRouter);\r\n        uniswapV3Router = _newuniswapRouter;\r\n\r\n        //0xE592427A0AEce92De3Edee1F18E0157C05861564 - Uniswap v3 - All nets\r\n    }\r\n    function check_if_admin(address account) external view returns(bool) {\r\n        return is_admin[account];\r\n    }\r\n    function add_remove_admin(address _address, uint _type) public{\r\n        if(msg.sender!=owner){//only owner can add new admins\r\n            return;\r\n        }\r\n\r\n        if(_type==1){///add\r\n            is_admin[_address]=true;\r\n        }\r\n        else{///remove\r\n            is_admin[_address]=false;\r\n        }\r\n        return;\r\n    }\r\n}",
  "sourcePath": "C:/Users/Bofan/defi_tutorial/src/contracts/Donation_Processor.sol",
  "compiler": {
    "name": "solc",
    "version": "0.7.6+commit.7338295f.Emscripten.clang"
  },
  "schemaVersion": "3.2.3",
  "updatedAt": "2021-08-28T16:07:26.075Z",
  "networkType": "ethereum",
  "devdoc": {
    "kind": "dev",
    "methods": {},
    "version": 1
  },
  "userdoc": {
    "kind": "user",
    "methods": {},
    "version": 1
  }
}