{
  "contractName": "Donation_Upgrade",
  "abi": [
    {
      "inputs": [],
      "stateMutability": "nonpayable",
      "type": "constructor"
    },
    {
      "anonymous": false,
      "inputs": [
        {
          "indexed": false,
          "internalType": "uint256",
          "name": "amount",
          "type": "uint256"
        },
        {
          "indexed": false,
          "internalType": "uint256",
          "name": "converted_amount",
          "type": "uint256"
        },
        {
          "indexed": false,
          "internalType": "uint256",
          "name": "received_amount",
          "type": "uint256"
        },
        {
          "indexed": false,
          "internalType": "string",
          "name": "currency",
          "type": "string"
        },
        {
          "indexed": false,
          "internalType": "string",
          "name": "org_name",
          "type": "string"
        },
        {
          "indexed": true,
          "internalType": "address",
          "name": "donor_address",
          "type": "address"
        },
        {
          "indexed": true,
          "internalType": "address",
          "name": "receiver",
          "type": "address"
        },
        {
          "indexed": false,
          "internalType": "uint256",
          "name": "input_decimals",
          "type": "uint256"
        },
        {
          "indexed": false,
          "internalType": "uint256",
          "name": "output_decimals",
          "type": "uint256"
        },
        {
          "indexed": false,
          "internalType": "uint256",
          "name": "date",
          "type": "uint256"
        }
      ],
      "name": "Transaction",
      "type": "event"
    },
    {
      "anonymous": false,
      "inputs": [
        {
          "indexed": true,
          "internalType": "uint256",
          "name": "id",
          "type": "uint256"
        },
        {
          "indexed": true,
          "internalType": "address",
          "name": "charity_address",
          "type": "address"
        },
        {
          "indexed": false,
          "internalType": "uint256",
          "name": "amount",
          "type": "uint256"
        },
        {
          "indexed": false,
          "internalType": "uint256",
          "name": "timestamp",
          "type": "uint256"
        },
        {
          "indexed": false,
          "internalType": "uint256",
          "name": "output_decimals",
          "type": "uint256"
        }
      ],
      "name": "Wire_Withdraw",
      "type": "event"
    },
    {
      "inputs": [],
      "name": "collected_transaction_fees",
      "outputs": [
        {
          "internalType": "uint256",
          "name": "",
          "type": "uint256"
        }
      ],
      "stateMutability": "view",
      "type": "function",
      "constant": true
    },
    {
      "inputs": [
        {
          "internalType": "address",
          "name": "",
          "type": "address"
        }
      ],
      "name": "donationAllocation",
      "outputs": [
        {
          "internalType": "uint256",
          "name": "",
          "type": "uint256"
        }
      ],
      "stateMutability": "view",
      "type": "function",
      "constant": true
    },
    {
      "inputs": [],
      "name": "donation_transaction_fee",
      "outputs": [
        {
          "internalType": "uint256",
          "name": "",
          "type": "uint256"
        }
      ],
      "stateMutability": "view",
      "type": "function",
      "constant": true
    },
    {
      "inputs": [],
      "name": "final_currency",
      "outputs": [
        {
          "internalType": "address",
          "name": "",
          "type": "address"
        }
      ],
      "stateMutability": "view",
      "type": "function",
      "constant": true
    },
    {
      "inputs": [],
      "name": "final_currency_decimal",
      "outputs": [
        {
          "internalType": "uint256",
          "name": "",
          "type": "uint256"
        }
      ],
      "stateMutability": "view",
      "type": "function",
      "constant": true
    },
    {
      "inputs": [
        {
          "internalType": "address",
          "name": "",
          "type": "address"
        }
      ],
      "name": "is_admin",
      "outputs": [
        {
          "internalType": "bool",
          "name": "",
          "type": "bool"
        }
      ],
      "stateMutability": "view",
      "type": "function",
      "constant": true
    },
    {
      "inputs": [],
      "name": "name",
      "outputs": [
        {
          "internalType": "string",
          "name": "",
          "type": "string"
        }
      ],
      "stateMutability": "view",
      "type": "function",
      "constant": true
    },
    {
      "inputs": [],
      "name": "owner",
      "outputs": [
        {
          "internalType": "address",
          "name": "",
          "type": "address"
        }
      ],
      "stateMutability": "view",
      "type": "function",
      "constant": true
    },
    {
      "inputs": [],
      "name": "poolFee",
      "outputs": [
        {
          "internalType": "uint24",
          "name": "",
          "type": "uint24"
        }
      ],
      "stateMutability": "view",
      "type": "function",
      "constant": true
    },
    {
      "inputs": [],
      "name": "total_withdraw_count",
      "outputs": [
        {
          "internalType": "uint256",
          "name": "",
          "type": "uint256"
        }
      ],
      "stateMutability": "view",
      "type": "function",
      "constant": true
    },
    {
      "inputs": [],
      "name": "uniswapV2Router",
      "outputs": [
        {
          "internalType": "contract IUniswapV2Router02",
          "name": "",
          "type": "address"
        }
      ],
      "stateMutability": "view",
      "type": "function",
      "constant": true
    },
    {
      "inputs": [],
      "name": "uniswapV3Router",
      "outputs": [
        {
          "internalType": "contract ISwapRouter",
          "name": "",
          "type": "address"
        }
      ],
      "stateMutability": "view",
      "type": "function",
      "constant": true
    },
    {
      "inputs": [],
      "name": "wire_withdraw_count",
      "outputs": [
        {
          "internalType": "uint256",
          "name": "",
          "type": "uint256"
        }
      ],
      "stateMutability": "view",
      "type": "function",
      "constant": true
    },
    {
      "stateMutability": "payable",
      "type": "receive",
      "payable": true
    },
    {
      "inputs": [
        {
          "internalType": "uint256",
          "name": "_amount",
          "type": "uint256"
        },
        {
          "internalType": "string",
          "name": "_currency",
          "type": "string"
        },
        {
          "internalType": "string",
          "name": "organization_name",
          "type": "string"
        },
        {
          "internalType": "uint256",
          "name": "organization_ein",
          "type": "uint256"
        },
        {
          "internalType": "address payable",
          "name": "charity_wallet",
          "type": "address"
        },
        {
          "internalType": "address",
          "name": "currency_address",
          "type": "address"
        },
        {
          "internalType": "uint256",
          "name": "decimals",
          "type": "uint256"
        }
      ],
      "name": "process_donation",
      "outputs": [],
      "stateMutability": "payable",
      "type": "function",
      "payable": true
    },
    {
      "inputs": [],
      "name": "execute_token_burn",
      "outputs": [],
      "stateMutability": "nonpayable",
      "type": "function"
    },
    {
      "inputs": [
        {
          "internalType": "address",
          "name": "_charity_address",
          "type": "address"
        },
        {
          "internalType": "address",
          "name": "_withdraw_address",
          "type": "address"
        },
        {
          "internalType": "uint256",
          "name": "_amount",
          "type": "uint256"
        }
      ],
      "name": "withdraw_donation",
      "outputs": [],
      "stateMutability": "nonpayable",
      "type": "function"
    }
  ],
  "bytecode": "0x60806040526040518060400160405280601281526020017f446f6e6174696f6e5f50726f636573736f720000000000000000000000000000815250600090805190602001906200005192919062000101565b507307865c6e87b9f70255377e024ace6630c1eaa37f600260006101000a81548173ffffffffffffffffffffffffffffffffffffffff021916908373ffffffffffffffffffffffffffffffffffffffff1602179055506006600355348015620000b957600080fd5b5033600160006101000a81548173ffffffffffffffffffffffffffffffffffffffff021916908373ffffffffffffffffffffffffffffffffffffffff160217905550620001b7565b828054600181600116156101000203166002900490600052602060002090601f01602090048101928262000139576000855562000185565b82601f106200015457805160ff191683800117855562000185565b8280016001018555821562000185579182015b828111156200018457825182559160200191906001019062000167565b5b50905062000194919062000198565b5090565b5b80821115620001b357600081600090555060010162000199565b5090565b611fe680620001c76000396000f3fe6080604052600436106100f75760003560e01c806384c1e68b1161008a578063aac132de11610059578063aac132de14610308578063af3be2de14610345578063d8c325f51461035c578063e3edb0c014610387576100fe565b806384c1e68b1461026d5780638794b773146102965780638da5cb5b146102b2578063aa3082bc146102dd576100fe565b80633133efa9116100c65780633133efa9146101af57806342c23bea146101da5780636bfb393f146102175780637a09dc4e14610242576100fe565b806306fdde0314610103578063089fe6aa1461012e5780631694505e146101595780632c76d7a614610184576100fe565b366100fe57005b600080fd5b34801561010f57600080fd5b506101186103b2565b6040516101259190611bee565b60405180910390f35b34801561013a57600080fd5b50610143610450565b6040516101509190611c8e565b60405180910390f35b34801561016557600080fd5b5061016e610456565b60405161017b9190611bd3565b60405180910390f35b34801561019057600080fd5b5061019961047c565b6040516101a69190611bb8565b60405180910390f35b3480156101bb57600080fd5b506101c46104a2565b6040516101d19190611ca9565b60405180910390f35b3480156101e657600080fd5b5061020160048036038101906101fc9190611549565b6104a8565b60405161020e9190611ca9565b60405180910390f35b34801561022357600080fd5b5061022c6104c0565b6040516102399190611b07565b60405180910390f35b34801561024e57600080fd5b506102576104e6565b6040516102649190611ca9565b60405180910390f35b34801561027957600080fd5b50610294600480360381019061028f919061159b565b6104ec565b005b6102b060048036038101906102ab919061163c565b610743565b005b3480156102be57600080fd5b506102c7611063565b6040516102d49190611b07565b60405180910390f35b3480156102e957600080fd5b506102f2611089565b6040516102ff9190611ca9565b60405180910390f35b34801561031457600080fd5b5061032f600480360381019061032a9190611549565b61108f565b60405161033c9190611b9d565b60405180910390f35b34801561035157600080fd5b5061035a6110af565b005b34801561036857600080fd5b506103716110b1565b60405161037e9190611ca9565b60405180910390f35b34801561039357600080fd5b5061039c6110b7565b6040516103a99190611ca9565b60405180910390f35b60008054600181600116156101000203166002900480601f0160208091040260200160405190810160405280929190818152602001828054600181600116156101000203166002900480156104485780601f1061041d57610100808354040283529160200191610448565b820191906000526020600020905b81548152906001019060200180831161042b57829003601f168201915b505050505081565b610bb881565b600660009054906101000a900473ffffffffffffffffffffffffffffffffffffffff1681565b600760009054906101000a900473ffffffffffffffffffffffffffffffffffffffff1681565b60055481565b60086020528060005260406000206000915090505481565b600260009054906101000a900473ffffffffffffffffffffffffffffffffffffffff1681565b600a5481565b8273ffffffffffffffffffffffffffffffffffffffff163373ffffffffffffffffffffffffffffffffffffffff16146105245761073e565b80600860008573ffffffffffffffffffffffffffffffffffffffff1673ffffffffffffffffffffffffffffffffffffffff1681526020019081526020016000205410156105705761073e565b6001600954016009819055506001600a5401600a819055506105da81600860008673ffffffffffffffffffffffffffffffffffffffff1673ffffffffffffffffffffffffffffffffffffffff168152602001908152602001600020546110bd90919063ffffffff16565b600860008573ffffffffffffffffffffffffffffffffffffffff1673ffffffffffffffffffffffffffffffffffffffff168152602001908152602001600020819055503373ffffffffffffffffffffffffffffffffffffffff1661064a6001600a546110bd90919063ffffffff16565b7f63ead4b8b03e6d5c30b95367731f794efafbe0325fa8f55d452c8ac00645e36d834260035460405161067f93929190611cc4565b60405180910390a36000600260009054906101000a900473ffffffffffffffffffffffffffffffffffffffff1690508073ffffffffffffffffffffffffffffffffffffffff1663a9059cbb84846040518363ffffffff1660e01b81526004016106e9929190611b74565b602060405180830381600087803b15801561070357600080fd5b505af1158015610717573d6000803e3d6000fd5b505050506040513d601f19601f8201168201806040525081019061073b91906115ea565b50505b505050565b60008990506000600260009054906101000a900473ffffffffffffffffffffffffffffffffffffffff16905060405160200161077e90611af2565b604051602081830303815290604052805190602001208a8a6040516020016107a7929190611ad9565b604051602081830303815290604052805190602001201415610b095760008173ffffffffffffffffffffffffffffffffffffffff166370a08231306040518263ffffffff1660e01b81526004016107fe9190611b22565b60206040518083038186803b15801561081657600080fd5b505afa15801561082a573d6000803e3d6000fd5b505050506040513d601f19601f8201168201806040525081019061084e9190611613565b90506000604051806101000160405280600760009054906101000a900473ffffffffffffffffffffffffffffffffffffffff1673ffffffffffffffffffffffffffffffffffffffff16634aa4a4fc6040518163ffffffff1660e01b815260040160206040518083038186803b1580156108c657600080fd5b505afa1580156108da573d6000803e3d6000fd5b505050506040513d601f19601f820116820180604052508101906108fe9190611572565b73ffffffffffffffffffffffffffffffffffffffff168152602001600260009054906101000a900473ffffffffffffffffffffffffffffffffffffffff1673ffffffffffffffffffffffffffffffffffffffff168152602001610bb862ffffff1681526020013073ffffffffffffffffffffffffffffffffffffffff1681526020014281526020018e815260200160008152602001600073ffffffffffffffffffffffffffffffffffffffff168152509050600760009054906101000a900473ffffffffffffffffffffffffffffffffffffffff1673ffffffffffffffffffffffffffffffffffffffff1663414bf3898e836040518363ffffffff1660e01b8152600401610a0c9190611c72565b6020604051808303818588803b158015610a2557600080fd5b505af1158015610a39573d6000803e3d6000fd5b50505050506040513d601f19601f82011682018060405250810190610a5e9190611613565b5060008373ffffffffffffffffffffffffffffffffffffffff166370a08231306040518263ffffffff1660e01b8152600401610a9a9190611b22565b60206040518083038186803b158015610ab257600080fd5b505afa158015610ac6573d6000803e3d6000fd5b505050506040513d601f19601f82011682018060405250810190610aea9190611613565b9050610aff83826110bd90919063ffffffff16565b9450505050610fb4565b60008490508073ffffffffffffffffffffffffffffffffffffffff166323b872dd33308f6040518463ffffffff1660e01b8152600401610b4b93929190611b3d565b602060405180830381600087803b158015610b6557600080fd5b505af1158015610b79573d6000803e3d6000fd5b505050506040513d601f19601f82011682018060405250810190610b9d91906115ea565b50600260009054906101000a900473ffffffffffffffffffffffffffffffffffffffff1673ffffffffffffffffffffffffffffffffffffffff168573ffffffffffffffffffffffffffffffffffffffff1614610fb25760008273ffffffffffffffffffffffffffffffffffffffff166370a08231306040518263ffffffff1660e01b8152600401610c2e9190611b22565b60206040518083038186803b158015610c4657600080fd5b505afa158015610c5a573d6000803e3d6000fd5b505050506040513d601f19601f82011682018060405250810190610c7e9190611613565b90508173ffffffffffffffffffffffffffffffffffffffff1663095ea7b3600760009054906101000a900473ffffffffffffffffffffffffffffffffffffffff168f6040518363ffffffff1660e01b8152600401610cdd929190611b74565b602060405180830381600087803b158015610cf757600080fd5b505af1158015610d0b573d6000803e3d6000fd5b505050506040513d601f19601f82011682018060405250810190610d2f91906115ea565b5060006040518060a0016040528088610bb8600760009054906101000a900473ffffffffffffffffffffffffffffffffffffffff1673ffffffffffffffffffffffffffffffffffffffff16634aa4a4fc6040518163ffffffff1660e01b815260040160206040518083038186803b158015610da957600080fd5b505afa158015610dbd573d6000803e3d6000fd5b505050506040513d601f19601f82011682018060405250810190610de19190611572565b610bb8600260009054906101000a900473ffffffffffffffffffffffffffffffffffffffff16604051602001610e1b959493929190611a7a565b60405160208183030381529060405281526020013073ffffffffffffffffffffffffffffffffffffffff1681526020014281526020018f815260200160008152509050600760009054906101000a900473ffffffffffffffffffffffffffffffffffffffff1673ffffffffffffffffffffffffffffffffffffffff1663c04b8d59826040518263ffffffff1660e01b8152600401610eb99190611c50565b602060405180830381600087803b158015610ed357600080fd5b505af1158015610ee7573d6000803e3d6000fd5b505050506040513d601f19601f82011682018060405250810190610f0b9190611613565b5060008473ffffffffffffffffffffffffffffffffffffffff166370a08231306040518263ffffffff1660e01b8152600401610f479190611b22565b60206040518083038186803b158015610f5f57600080fd5b505afa158015610f73573d6000803e3d6000fd5b505050506040513d601f19601f82011682018060405250810190610f979190611613565b9050610fac83826110bd90919063ffffffff16565b95505050505b505b610fbf828683611107565b6110568b8b8b8080601f016020809104026020016040519081016040528093929190818152602001838380828437600081840152601f19601f8201169050808301925050505050505084888c8c8080601f016020809104026020016040519081016040528093929190818152602001838380828437600081840152601f19601f820116905080830192505050505050508b896111d2565b5050505050505050505050565b600160009054906101000a900473ffffffffffffffffffffffffffffffffffffffff1681565b60035481565b600b6020528060005260406000206000915054906101000a900460ff1681565b565b60045481565b60095481565b60006110ff83836040518060400160405280601e81526020017f536166654d6174683a207375627472616374696f6e206f766572666c6f77000081525061125e565b905092915050565b6000611112846112b9565b9050600061112982866110bd90919063ffffffff16565b9050806005540160058190555061118882600860008773ffffffffffffffffffffffffffffffffffffffff1673ffffffffffffffffffffffffffffffffffffffff1681526020019081526020016000205461131190919063ffffffff16565b600860008673ffffffffffffffffffffffffffffffffffffffff1673ffffffffffffffffffffffffffffffffffffffff168152602001908152602001600020819055505050505050565b60006111dd866112b9565b90508473ffffffffffffffffffffffffffffffffffffffff163373ffffffffffffffffffffffffffffffffffffffff167f5444071be1d4f9cd115f89590277b198ad5ec9ab54d82300659d032a0a5a7f178a89858c8a896003544260405161124c989796959493929190611cfb565b60405180910390a35050505050505050565b60008383111582906112a6576040517f08c379a000000000000000000000000000000000000000000000000000000000815260040161129d9190611bee565b60405180910390fd5b5060008385039050809150509392505050565b600080612710905060006112d8600454836110bd90919063ffffffff16565b905060006112ef828661136690919063ffffffff16565b905061130483826113d690919063ffffffff16565b9050809350505050919050565b60008082840190508381101561135c576040517f08c379a000000000000000000000000000000000000000000000000000000000815260040161135390611c10565b60405180910390fd5b8091505092915050565b60008083141561137957600090506113d0565b600082840290508284828161138a57fe5b04146113cb576040517f08c379a00000000000000000000000000000000000000000000000000000000081526004016113c290611c30565b60405180910390fd5b809150505b92915050565b600061141883836040518060400160405280601a81526020017f536166654d6174683a206469766973696f6e206279207a65726f000000000000815250611420565b905092915050565b60008083118290611467576040517f08c379a000000000000000000000000000000000000000000000000000000000815260040161145e9190611bee565b60405180910390fd5b50600083858161147357fe5b049050809150509392505050565b60008135905061149081611f54565b92915050565b6000815190506114a581611f54565b92915050565b6000813590506114ba81611f6b565b92915050565b6000815190506114cf81611f82565b92915050565b60008083601f8401126114e757600080fd5b8235905067ffffffffffffffff81111561150057600080fd5b60208301915083600182028301111561151857600080fd5b9250929050565b60008135905061152e81611f99565b92915050565b60008151905061154381611f99565b92915050565b60006020828403121561155b57600080fd5b600061156984828501611481565b91505092915050565b60006020828403121561158457600080fd5b600061159284828501611496565b91505092915050565b6000806000606084860312156115b057600080fd5b60006115be86828701611481565b93505060206115cf86828701611481565b92505060406115e08682870161151f565b9150509250925092565b6000602082840312156115fc57600080fd5b600061160a848285016114c0565b91505092915050565b60006020828403121561162557600080fd5b600061163384828501611534565b91505092915050565b600080600080600080600080600060e08a8c03121561165a57600080fd5b60006116688c828d0161151f565b99505060208a013567ffffffffffffffff81111561168557600080fd5b6116918c828d016114d5565b985098505060408a013567ffffffffffffffff8111156116b057600080fd5b6116bc8c828d016114d5565b965096505060606116cf8c828d0161151f565b94505060806116e08c828d016114ab565b93505060a06116f18c828d01611481565b92505060c06117028c828d0161151f565b9150509295985092959850929598565b61171b81611e33565b82525050565b61172a81611dca565b82525050565b61173981611dca565b82525050565b61175061174b82611dca565b611ef3565b82525050565b61175f81611dee565b82525050565b600061177082611d87565b61177a8185611d9d565b935061178a818560208601611ec0565b61179381611f29565b840191505092915050565b6117a781611e45565b82525050565b6117b681611e69565b82525050565b60006117c88385611dbf565b93506117d5838584611eb1565b82840190509392505050565b60006117ec82611d92565b6117f68185611dae565b9350611806818560208601611ec0565b61180f81611f29565b840191505092915050565b6000611827601b83611dae565b91507f536166654d6174683a206164646974696f6e206f766572666c6f7700000000006000830152602082019050919050565b6000611867602183611dae565b91507f536166654d6174683a206d756c7469706c69636174696f6e206f766572666c6f60008301527f77000000000000000000000000000000000000000000000000000000000000006020830152604082019050919050565b60006118cd600383611dbf565b91507f45544800000000000000000000000000000000000000000000000000000000006000830152600382019050919050565b600060a083016000830151848203600086015261191d8282611765565b91505060208301516119326020860182611721565b5060408301516119456040860182611a5c565b5060608301516119586060860182611a5c565b50608083015161196b6080860182611a5c565b508091505092915050565b6101008201600082015161198d6000850182611721565b5060208201516119a06020850182611721565b5060408201516119b36040850182611a27565b5060608201516119c66060850182611721565b5060808201516119d96080850182611a5c565b5060a08201516119ec60a0850182611a5c565b5060c08201516119ff60c0850182611a5c565b5060e0820151611a1260e0850182611a18565b50505050565b611a2181611dfa565b82525050565b611a3081611e1a565b82525050565b611a3f81611e1a565b82525050565b611a56611a5182611e1a565b611f17565b82525050565b611a6581611e29565b82525050565b611a7481611e29565b82525050565b6000611a86828861173f565b601482019150611a968287611a45565b600382019150611aa6828661173f565b601482019150611ab68285611a45565b600382019150611ac6828461173f565b6014820191508190509695505050505050565b6000611ae68284866117bc565b91508190509392505050565b6000611afd826118c0565b9150819050919050565b6000602082019050611b1c6000830184611730565b92915050565b6000602082019050611b376000830184611712565b92915050565b6000606082019050611b526000830186611712565b611b5f6020830185611712565b611b6c6040830184611a6b565b949350505050565b6000604082019050611b896000830185611730565b611b966020830184611a6b565b9392505050565b6000602082019050611bb26000830184611756565b92915050565b6000602082019050611bcd600083018461179e565b92915050565b6000602082019050611be860008301846117ad565b92915050565b60006020820190508181036000830152611c0881846117e1565b905092915050565b60006020820190508181036000830152611c298161181a565b9050919050565b60006020820190508181036000830152611c498161185a565b9050919050565b60006020820190508181036000830152611c6a8184611900565b905092915050565b600061010082019050611c886000830184611976565b92915050565b6000602082019050611ca36000830184611a36565b92915050565b6000602082019050611cbe6000830184611a6b565b92915050565b6000606082019050611cd96000830186611a6b565b611ce66020830185611a6b565b611cf36040830184611a6b565b949350505050565b600061010082019050611d11600083018b611a6b565b611d1e602083018a611a6b565b611d2b6040830189611a6b565b8181036060830152611d3d81886117e1565b90508181036080830152611d5181876117e1565b9050611d6060a0830186611a6b565b611d6d60c0830185611a6b565b611d7a60e0830184611a6b565b9998505050505050505050565b600081519050919050565b600081519050919050565b600082825260208201905092915050565b600082825260208201905092915050565b600081905092915050565b6000611dd582611dfa565b9050919050565b6000611de782611dfa565b9050919050565b60008115159050919050565b600073ffffffffffffffffffffffffffffffffffffffff82169050919050565b600062ffffff82169050919050565b6000819050919050565b6000611e3e82611e8d565b9050919050565b6000611e5082611e57565b9050919050565b6000611e6282611dfa565b9050919050565b6000611e7482611e7b565b9050919050565b6000611e8682611dfa565b9050919050565b6000611e9882611e9f565b9050919050565b6000611eaa82611dfa565b9050919050565b82818337600083830152505050565b60005b83811015611ede578082015181840152602081019050611ec3565b83811115611eed576000848401525b50505050565b6000611efe82611f05565b9050919050565b6000611f1082611f47565b9050919050565b6000611f2282611f3a565b9050919050565b6000601f19601f8301169050919050565b60008160e81b9050919050565b60008160601b9050919050565b611f5d81611dca565b8114611f6857600080fd5b50565b611f7481611ddc565b8114611f7f57600080fd5b50565b611f8b81611dee565b8114611f9657600080fd5b50565b611fa281611e29565b8114611fad57600080fd5b5056fea264697066735822122026d08cfc1d7c5bcdbb59261cbbe6e36cc5a395117ac965b0bcf1eb2e44e270b564736f6c63430007060033",
  "immutableReferences": {},
  "source": "pragma solidity ^0.7.6;\r\n//pragma solidity ^0.6.12;\r\n// SPDX-License-Identifier: Unlicensed\r\npragma experimental ABIEncoderV2;\r\nimport \"./DaiToken.sol\";\r\n\r\ncontract Donation_Upgrade {\r\n    string public name = \"Donation_Processor\";\r\n    //DaiToken public daiToken;\r\n    address public owner;\r\n    //address public final_currency = 0x78867BbEeF44f2326bF8DDd1941a4439382EF2A7;////Pancakeswap simulator BUSD address\r\n    //address public final_currency = 0x2963EEef46978C745b45B6Da29B78d9cC0708855;////convert all donations into stablecoins, currently set to fake stablecoin\r\n    //address public final_currency = 0xb58A25294f399f7056a4cD5DAE3c2Fb9259e360d;//BSC USDC (6 decimals)\r\n    address public final_currency = 0x07865c6E87B9F70255377e024ace6630C1Eaa37F;//Circle Ropsten USDC\r\n    //address public final_currency = 0xA0b86991c6218b36c1d19D4a2e9Eb0cE3606eB48;//Circle Mainnet USDC\r\n    //address public final_currency = 0xaa57543e9246E67c82E45E7e9faf90548A6297F7;////Kovan testnet stablecoin\r\n    uint public final_currency_decimal=6;\r\n    using SafeMath for uint256;\r\n\r\n    //mapping (address => donation_transaction[]) public donation_transactions;//record-keeping for charities\r\n    //mapping (address => donation_transaction[]) public token_holder_donations;//record keeping for individuals\r\n    uint public donation_transaction_fee;//in basis points - (i.e.300)\r\n    uint public collected_transaction_fees;//in stablecoins\r\n    IUniswapV2Router02 public uniswapV2Router;\r\n    ISwapRouter public uniswapV3Router;\r\n    mapping (address => uint) public donationAllocation;\r\n    uint public total_withdraw_count;\r\n    uint public wire_withdraw_count;\r\n    mapping (address => bool) public is_admin;\r\n    uint24 public constant poolFee = 3000;\r\n\r\n    event Transaction(\r\n        uint256 amount,\r\n        uint256 converted_amount,\r\n        uint256 received_amount,\r\n        string currency,\r\n        string org_name,\r\n        address indexed donor_address,\r\n        address indexed receiver,\r\n        uint input_decimals,\r\n        uint output_decimals,\r\n        uint date\r\n    );\r\n    event Wire_Withdraw(\r\n        uint256 indexed id,\r\n        address indexed charity_address,\r\n        uint256 amount,\r\n        uint256 timestamp,\r\n        uint output_decimals\r\n    );\r\n\r\n\r\n    /*struct donation_transaction{\r\n        uint amount;\r\n        uint converted_amount;\r\n        uint received_amount;\r\n        string currency;\r\n        uint date;\r\n        string org_name;\r\n        uint org_ein;\r\n        address donor_address;\r\n        uint input_decimals;\r\n        uint output_decimals;\r\n    }\r\n    struct wire_request{\r\n        uint id;\r\n        address charity_address;\r\n        uint amount;\r\n        uint timestamp;\r\n        uint output_decimals;\r\n    }\r\n    wire_request[] wire_request_array;\r\n    */\r\n\r\n    constructor() public {\r\n        owner = msg.sender;\r\n    }\r\n     //to recieve ETH from uniswapV2Router when swaping\r\n    receive() external payable {}\r\n\r\n    \r\n\r\n    function process_donation(uint _amount,string calldata _currency, string calldata organization_name, uint organization_ein, address payable charity_wallet, address currency_address, uint decimals) external payable{\r\n        \r\n        uint stablecoin_amount=_amount;//by default, assumes the donation is in stablecoin\r\n        IERC20 final_token = IERC20(final_currency);\r\n\r\n\r\n        if(keccak256(abi.encodePacked(_currency)) == keccak256(abi.encodePacked(\"ETH\"))){//convert ETH to Stablecoin\r\n                \r\n            uint256 initialBalance = final_token.balanceOf(address(this));\r\n/////////////////////////////////////////////////////////////////////////////////////////////////////////////////UniSwapV2\r\n           /* address[] memory path = new address[](2);\r\n            path[0] = uniswapV2Router.WETH();//daiToken.uniswapV2Router()\r\n            path[1] = final_currency;\r\n\r\n            uniswapV2Router.swapExactETHForTokensSupportingFeeOnTransferTokens{value:_amount}(//.value(_amount)|||daiToken.uniswapV2Router()\r\n                0, // accept any amount of stablecoins\r\n                path,\r\n                address(this),\r\n                block.timestamp\r\n            );\r\n            */\r\n/////////////////////////////////////////////////////////////////////////////////////////////////////////////////\r\n/////////////////////////////////////////////////////////////////////////////////////////////////////////////////UniSwapV3\r\n            ISwapRouter.ExactInputSingleParams memory params =\r\n                ISwapRouter.ExactInputSingleParams({\r\n                    tokenIn: uniswapV3Router.WETH9(),\r\n                    tokenOut: final_currency,\r\n                    fee: 3000,\r\n                    recipient: address(this),\r\n                    deadline: block.timestamp,\r\n                    amountIn: _amount,\r\n                    amountOutMinimum: 0,\r\n                    sqrtPriceLimitX96: 0\r\n                });\r\n            \r\n\r\n            uniswapV3Router.exactInputSingle{value:_amount}(params);\r\n/////////////////////////////////////////////////////////////////////////////////////////////////////////////////\r\n\r\n\r\n            uint256 post_conversion_Balance = final_token.balanceOf(address(this));\r\n            stablecoin_amount = post_conversion_Balance.sub(initialBalance);\r\n        }\r\n        else{\r\n\r\n            IERC20 this_token = IERC20(currency_address);\r\n            this_token.transferFrom(msg.sender, address(this), _amount);///transfer in value first - in case user balance is not enough, function will revert here\r\n            \r\n            if(currency_address!=final_currency){//convert any coin into stablecoin (unless the coin itself is already the stablecoin)\r\n                uint256 initialBalance = final_token.balanceOf(address(this));\r\n\r\n\r\n/////////////////////////////////////////////////////////////////////////////////////////////////////////////////UniSwapV2\r\n                /*this_token.approve(address(uniswapV2Router), _amount);//daiToken.uniswapV2Router()\r\n\r\n\r\n                address[] memory path = new address[](3);\r\n                path[0] = currency_address;\r\n                path[1] = uniswapV2Router.WETH();//daiToken.uniswapV2Router()\r\n                path[2] = final_currency;\r\n\r\n                uniswapV2Router.swapExactTokensForTokensSupportingFeeOnTransferTokens(//daiToken.uniswapV2Router()\r\n                    _amount,\r\n                    0, // accept any amount of stablecoins\r\n                    path,\r\n                    address(this),\r\n                    block.timestamp\r\n                );*/\r\n/////////////////////////////////////////////////////////////////////////////////////////////////////////////////\r\n/////////////////////////////////////////////////////////////////////////////////////////////////////////////////UniSwapV3\r\n                this_token.approve(address(uniswapV3Router), _amount);\r\n\r\n                ISwapRouter.ExactInputParams memory params =\r\n                    ISwapRouter.ExactInputParams({\r\n                        path: abi.encodePacked(currency_address, poolFee, uniswapV3Router.WETH9(), poolFee, final_currency),\r\n                        recipient: address(this),\r\n                        deadline: block.timestamp,\r\n                        amountIn: _amount,\r\n                        amountOutMinimum: 0\r\n                    });\r\n\r\n                // Executes the swap.\r\n                uniswapV3Router.exactInput(params);\r\n/////////////////////////////////////////////////////////////////////////////////////////////////////////////////\r\n\r\n                uint256 post_conversion_Balance = final_token.balanceOf(address(this));\r\n                stablecoin_amount = post_conversion_Balance.sub(initialBalance);\r\n            }\r\n        }\r\n\r\n        process_money_transfer(stablecoin_amount, charity_wallet, final_token);//always transfer out in stablecoin\r\n        /*if(donation_reward_allocation>0 && currency_address!=address(daiToken)){//reward early users of the platform when they donate (except when they donate in GIFT token)\r\n            reward_early_donors(stablecoin_amount);//1:1 reward ratio\r\n        }*/\r\n        store_donation_data(_amount, _currency, stablecoin_amount, charity_wallet, organization_name, organization_ein, decimals);\r\n        return;\r\n    }\r\n\r\n    function return_donation_after_fee(uint _amount) internal view returns (uint){\r\n        uint one_hundred=10000;//in basis points\r\n        uint subtract_fee=one_hundred.sub(donation_transaction_fee);\r\n        uint donation_after_fee=_amount.mul(subtract_fee);\r\n        donation_after_fee=donation_after_fee.div(one_hundred);\r\n        return donation_after_fee; \r\n    }\r\n    function process_money_transfer(uint _amount, address payable charity_wallet, IERC20 _final_token) internal{\r\n        \r\n        uint return_donation_after_fee_calculated=return_donation_after_fee(_amount);\r\n        uint fee_allocation=_amount.sub(return_donation_after_fee_calculated);\r\n\r\n\r\n        collected_transaction_fees=collected_transaction_fees + fee_allocation; ///to be distributed to token holders , i.e. via open market buy backs\r\n       \r\n        donationAllocation[charity_wallet] = donationAllocation[charity_wallet].add(return_donation_after_fee_calculated);//Updated Workflow - keep donations in the smart contract for the charities to withdraw directly to Circle/their bank account\r\n        //_final_token.transfer(charity_wallet, return_donation_after_fee_calculated);//transfer donation from smart contract to charity wallet address\r\n        \r\n    }\r\n    function store_donation_data(uint _amount, string memory _currency,uint stablecoin_amount, address charity_wallet,string memory _org_name, uint _org_ein, uint _decimals) internal{\r\n\r\n        uint return_donation_after_fee_calculated=return_donation_after_fee(stablecoin_amount);\r\n        emit Transaction(_amount, stablecoin_amount, return_donation_after_fee_calculated, _currency, _org_name, msg.sender, charity_wallet, _decimals, final_currency_decimal, block.timestamp);\r\n/*\r\n        \r\n        donation_transaction memory new_donation = donation_transaction({amount:_amount, converted_amount:stablecoin_amount, received_amount:return_donation_after_fee_calculated, currency:_currency, date:block.timestamp, org_name:_org_name, org_ein:_org_ein, donor_address:msg.sender, input_decimals:_decimals, output_decimals:final_currency_decimal});\r\n\r\n        donation_transactions[charity_wallet].push(new_donation);\r\n        token_holder_donations[msg.sender].push(new_donation);\r\n*/\r\n        return;\r\n    }\r\n    function execute_token_burn() external{\r\n        //new_fee=address(this).balance;\r\n    }\r\n    function withdraw_donation(address _charity_address, address _withdraw_address, uint _amount) public{\r\n\r\n        if(msg.sender!=_charity_address){//only the charity can withdraw funds\r\n            return;\r\n        }\r\n\r\n        if(donationAllocation[_charity_address] <_amount){//can't withdraw more than the total allocation\r\n            return;//fail\r\n        }\r\n\r\n        total_withdraw_count=total_withdraw_count+1;\r\n        wire_withdraw_count=wire_withdraw_count+1;\r\n        donationAllocation[_charity_address] = donationAllocation[_charity_address].sub(_amount);\r\n\r\n        emit Wire_Withdraw(wire_withdraw_count.sub(1), msg.sender, _amount, block.timestamp, final_currency_decimal);\r\n\r\n        //wire_request memory new_wire = wire_request({id:wire_request_array.length, charity_address:_charity_address, amount:_amount, timestamp:block.timestamp, output_decimals:final_currency_decimal});\r\n        //wire_request_array.push(new_wire);\r\n\r\n\r\n        IERC20 final_token = IERC20(final_currency);\r\n        final_token.transfer(_withdraw_address, _amount);//withdraw donation from smart contract to charity|||USDC only only 6 decimal places\r\n    }\r\n\r\n\r\n    /*function reward_early_donors(uint _amount) internal{\r\n        \r\n        if(donation_reward_allocation>_amount){\r\n            donation_reward_allocation=donation_reward_allocation.sub(_amount);\r\n            daiToken.transfer(msg.sender, _amount);\r\n        }\r\n        else{\r\n            uint left_over_rewards=donation_reward_allocation;\r\n            donation_reward_allocation=0;\r\n            daiToken.transfer(msg.sender, left_over_rewards);\r\n        }\r\n    }*/\r\n    /*function process_donation(string[] calldata _concactenated_name,uint _amount,string calldata _currency, string calldata _formatted_date,string calldata organization_name, address payable charity_wallet) external payable{\r\n        ///this version converts everything into ETH/BNB\r\n\r\n\r\n        uint eth_amount=_amount;\r\n        if(!(keccak256(abi.encodePacked(_currency)) == keccak256(abi.encodePacked(\"ETH\")))){\r\n            daiToken.transferFrom(msg.sender, address(this), _amount);///transfer in value first - in case user balance is not enough, function will revert here\r\n            // capture the contract's current ETH balance.\r\n            // this is so that we can capture exactly the amount of ETH that the\r\n            // swap creates, and not make the liquidity event include any ETH that\r\n            // has been manually sent to the contract\r\n            uint256 initialBalance = address(this).balance;\r\n\r\n            daiToken.approve(address(daiToken.uniswapV2Router()), _amount);//currently testing only using GIFT - but will need to get approval of any coin\r\n            address[] memory path = new address[](2);\r\n            path[0] = address(daiToken);//will need to be dynamic variable to match the donated coin\r\n            path[1] = daiToken.uniswapV2Router().WETH();\r\n\r\n            daiToken.uniswapV2Router().swapExactTokensForETHSupportingFeeOnTransferTokens(\r\n                _amount,\r\n                0, // accept any amount of ETH\r\n                path,\r\n                address(this),//msg.sender\r\n                block.timestamp\r\n            );\r\n\r\n            eth_amount = address(this).balance.sub(initialBalance);\r\n        }\r\n\r\n        process_money_transfer(eth_amount, charity_wallet);//always transfer out in ETH\r\n        store_donation_data(_concactenated_name[0], _concactenated_name[1], _amount, _currency, eth_amount, _formatted_date, charity_wallet, organization_name, msg.sender);\r\n        return;\r\n    }*/\r\n\r\n\r\n\r\n}",
  "sourcePath": "C:/Users/Bofan/defi_tutorial/src/contracts/Donation_Upgrade.sol",
  "compiler": {
    "name": "solc",
    "version": "0.7.6+commit.7338295f.Emscripten.clang"
  },
  "schemaVersion": "3.2.3",
  "updatedAt": "2021-08-28T16:06:11.352Z",
  "networkType": "ethereum",
  "devdoc": {
    "kind": "dev",
    "methods": {},
    "version": 1
  },
  "userdoc": {
    "kind": "user",
    "methods": {},
    "version": 1
  }
}