{
  "contractName": "Donation_Upgrade",
  "abi": [
    {
      "inputs": [],
      "stateMutability": "nonpayable",
      "type": "constructor"
    },
    {
      "anonymous": false,
      "inputs": [
        {
          "indexed": false,
          "internalType": "uint256",
          "name": "amount",
          "type": "uint256"
        },
        {
          "indexed": false,
          "internalType": "uint256",
          "name": "converted_amount",
          "type": "uint256"
        },
        {
          "indexed": false,
          "internalType": "uint256",
          "name": "received_amount",
          "type": "uint256"
        },
        {
          "indexed": false,
          "internalType": "string",
          "name": "currency",
          "type": "string"
        },
        {
          "indexed": false,
          "internalType": "string",
          "name": "org_name",
          "type": "string"
        },
        {
          "indexed": true,
          "internalType": "address",
          "name": "donor_address",
          "type": "address"
        },
        {
          "indexed": true,
          "internalType": "address",
          "name": "receiver",
          "type": "address"
        },
        {
          "indexed": false,
          "internalType": "uint256",
          "name": "input_decimals",
          "type": "uint256"
        },
        {
          "indexed": false,
          "internalType": "uint256",
          "name": "output_decimals",
          "type": "uint256"
        },
        {
          "indexed": false,
          "internalType": "uint256",
          "name": "date",
          "type": "uint256"
        }
      ],
      "name": "Transaction",
      "type": "event"
    },
    {
      "anonymous": false,
      "inputs": [
        {
          "indexed": true,
          "internalType": "uint256",
          "name": "id",
          "type": "uint256"
        },
        {
          "indexed": true,
          "internalType": "address",
          "name": "charity_address",
          "type": "address"
        },
        {
          "indexed": false,
          "internalType": "uint256",
          "name": "amount",
          "type": "uint256"
        },
        {
          "indexed": false,
          "internalType": "uint256",
          "name": "timestamp",
          "type": "uint256"
        },
        {
          "indexed": false,
          "internalType": "uint256",
          "name": "output_decimals",
          "type": "uint256"
        }
      ],
      "name": "Wire_Withdraw",
      "type": "event"
    },
    {
      "inputs": [],
      "name": "collected_transaction_fees",
      "outputs": [
        {
          "internalType": "uint256",
          "name": "",
          "type": "uint256"
        }
      ],
      "stateMutability": "view",
      "type": "function"
    },
    {
      "inputs": [
        {
          "internalType": "address",
          "name": "",
          "type": "address"
        }
      ],
      "name": "donationAllocation",
      "outputs": [
        {
          "internalType": "uint256",
          "name": "",
          "type": "uint256"
        }
      ],
      "stateMutability": "view",
      "type": "function"
    },
    {
      "inputs": [
        {
          "internalType": "address",
          "name": "",
          "type": "address"
        }
      ],
      "name": "donation_count",
      "outputs": [
        {
          "internalType": "uint256",
          "name": "",
          "type": "uint256"
        }
      ],
      "stateMutability": "view",
      "type": "function"
    },
    {
      "inputs": [],
      "name": "donation_transaction_fee",
      "outputs": [
        {
          "internalType": "uint256",
          "name": "",
          "type": "uint256"
        }
      ],
      "stateMutability": "view",
      "type": "function"
    },
    {
      "inputs": [],
      "name": "final_currency",
      "outputs": [
        {
          "internalType": "address",
          "name": "",
          "type": "address"
        }
      ],
      "stateMutability": "view",
      "type": "function"
    },
    {
      "inputs": [],
      "name": "final_currency_decimal",
      "outputs": [
        {
          "internalType": "uint256",
          "name": "",
          "type": "uint256"
        }
      ],
      "stateMutability": "view",
      "type": "function"
    },
    {
      "inputs": [
        {
          "internalType": "address",
          "name": "",
          "type": "address"
        }
      ],
      "name": "is_admin",
      "outputs": [
        {
          "internalType": "bool",
          "name": "",
          "type": "bool"
        }
      ],
      "stateMutability": "view",
      "type": "function"
    },
    {
      "inputs": [],
      "name": "name",
      "outputs": [
        {
          "internalType": "string",
          "name": "",
          "type": "string"
        }
      ],
      "stateMutability": "view",
      "type": "function"
    },
    {
      "inputs": [],
      "name": "owner",
      "outputs": [
        {
          "internalType": "address",
          "name": "",
          "type": "address"
        }
      ],
      "stateMutability": "view",
      "type": "function"
    },
    {
      "inputs": [],
      "name": "poolFee",
      "outputs": [
        {
          "internalType": "uint24",
          "name": "",
          "type": "uint24"
        }
      ],
      "stateMutability": "view",
      "type": "function"
    },
    {
      "inputs": [],
      "name": "total_withdraw_count",
      "outputs": [
        {
          "internalType": "uint256",
          "name": "",
          "type": "uint256"
        }
      ],
      "stateMutability": "view",
      "type": "function"
    },
    {
      "inputs": [],
      "name": "uniswapV2Router",
      "outputs": [
        {
          "internalType": "contract IUniswapV2Router02",
          "name": "",
          "type": "address"
        }
      ],
      "stateMutability": "view",
      "type": "function"
    },
    {
      "inputs": [],
      "name": "uniswapV3Router",
      "outputs": [
        {
          "internalType": "contract ISwapRouter",
          "name": "",
          "type": "address"
        }
      ],
      "stateMutability": "view",
      "type": "function"
    },
    {
      "inputs": [],
      "name": "wire_withdraw_count",
      "outputs": [
        {
          "internalType": "uint256",
          "name": "",
          "type": "uint256"
        }
      ],
      "stateMutability": "view",
      "type": "function"
    },
    {
      "stateMutability": "payable",
      "type": "receive"
    },
    {
      "inputs": [
        {
          "internalType": "uint256",
          "name": "_amount",
          "type": "uint256"
        },
        {
          "internalType": "string",
          "name": "_currency",
          "type": "string"
        },
        {
          "internalType": "string",
          "name": "organization_name",
          "type": "string"
        },
        {
          "internalType": "uint256",
          "name": "organization_ein",
          "type": "uint256"
        },
        {
          "internalType": "address payable",
          "name": "charity_wallet",
          "type": "address"
        },
        {
          "internalType": "address",
          "name": "currency_address",
          "type": "address"
        },
        {
          "internalType": "uint256",
          "name": "decimals",
          "type": "uint256"
        }
      ],
      "name": "process_donation",
      "outputs": [],
      "stateMutability": "payable",
      "type": "function"
    },
    {
      "inputs": [
        {
          "internalType": "address",
          "name": "_charity_address",
          "type": "address"
        },
        {
          "internalType": "address",
          "name": "_withdraw_address",
          "type": "address"
        },
        {
          "internalType": "uint256",
          "name": "_amount",
          "type": "uint256"
        }
      ],
      "name": "withdraw_donation",
      "outputs": [],
      "stateMutability": "nonpayable",
      "type": "function"
    }
  ],
  "bytecode": "0x60806040526040518060400160405280601281526020017f446f6e6174696f6e5f50726f636573736f720000000000000000000000000000815250600090805190602001906200005192919062000101565b507307865c6e87b9f70255377e024ace6630c1eaa37f600260006101000a81548173ffffffffffffffffffffffffffffffffffffffff021916908373ffffffffffffffffffffffffffffffffffffffff1602179055506006600355348015620000b957600080fd5b5033600160006101000a81548173ffffffffffffffffffffffffffffffffffffffff021916908373ffffffffffffffffffffffffffffffffffffffff160217905550620001b7565b828054600181600116156101000203166002900490600052602060002090601f01602090048101928262000139576000855562000185565b82601f106200015457805160ff191683800117855562000185565b8280016001018555821562000185579182015b828111156200018457825182559160200191906001019062000167565b5b50905062000194919062000198565b5090565b5b80821115620001b357600081600090555060010162000199565b5090565b6120a880620001c76000396000f3fe6080604052600436106100f75760003560e01c80637a09dc4e1161008a578063aa3082bc11610059578063aa3082bc1461031a578063aac132de14610345578063d8c325f514610382578063e3edb0c0146103ad576100fe565b80637a09dc4e1461027f57806384c1e68b146102aa5780638794b773146102d35780638da5cb5b146102ef576100fe565b80632c76d7a6116100c65780632c76d7a6146101c15780633133efa9146101ec57806342c23bea146102175780636bfb393f14610254576100fe565b806306fdde0314610103578063089fe6aa1461012e5780630d5fb46a146101595780631694505e14610196576100fe565b366100fe57005b600080fd5b34801561010f57600080fd5b506101186103d8565b6040516101259190611cb0565b60405180910390f35b34801561013a57600080fd5b50610143610476565b6040516101509190611d50565b60405180910390f35b34801561016557600080fd5b50610180600480360381019061017b919061160b565b61047c565b60405161018d9190611d6b565b60405180910390f35b3480156101a257600080fd5b506101ab610494565b6040516101b89190611c95565b60405180910390f35b3480156101cd57600080fd5b506101d66104ba565b6040516101e39190611c7a565b60405180910390f35b3480156101f857600080fd5b506102016104e0565b60405161020e9190611d6b565b60405180910390f35b34801561022357600080fd5b5061023e6004803603810190610239919061160b565b6104e6565b60405161024b9190611d6b565b60405180910390f35b34801561026057600080fd5b506102696104fe565b6040516102769190611bc9565b60405180910390f35b34801561028b57600080fd5b50610294610524565b6040516102a19190611d6b565b60405180910390f35b3480156102b657600080fd5b506102d160048036038101906102cc919061165d565b61052a565b005b6102ed60048036038101906102e891906116fe565b610781565b005b3480156102fb57600080fd5b506103046110a1565b6040516103119190611bc9565b60405180910390f35b34801561032657600080fd5b5061032f6110c7565b60405161033c9190611d6b565b60405180910390f35b34801561035157600080fd5b5061036c6004803603810190610367919061160b565b6110cd565b6040516103799190611c5f565b60405180910390f35b34801561038e57600080fd5b506103976110ed565b6040516103a49190611d6b565b60405180910390f35b3480156103b957600080fd5b506103c26110f3565b6040516103cf9190611d6b565b60405180910390f35b60008054600181600116156101000203166002900480601f01602080910402602001604051908101604052809291908181526020018280546001816001161561010002031660029004801561046e5780601f106104435761010080835404028352916020019161046e565b820191906000526020600020905b81548152906001019060200180831161045157829003601f168201915b505050505081565b610bb881565b600c6020528060005260406000206000915090505481565b600660009054906101000a900473ffffffffffffffffffffffffffffffffffffffff1681565b600760009054906101000a900473ffffffffffffffffffffffffffffffffffffffff1681565b60055481565b60086020528060005260406000206000915090505481565b600260009054906101000a900473ffffffffffffffffffffffffffffffffffffffff1681565b600a5481565b8273ffffffffffffffffffffffffffffffffffffffff163373ffffffffffffffffffffffffffffffffffffffff16146105625761077c565b80600860008573ffffffffffffffffffffffffffffffffffffffff1673ffffffffffffffffffffffffffffffffffffffff1681526020019081526020016000205410156105ae5761077c565b6001600954016009819055506001600a5401600a8190555061061881600860008673ffffffffffffffffffffffffffffffffffffffff1673ffffffffffffffffffffffffffffffffffffffff168152602001908152602001600020546110f990919063ffffffff16565b600860008573ffffffffffffffffffffffffffffffffffffffff1673ffffffffffffffffffffffffffffffffffffffff168152602001908152602001600020819055503373ffffffffffffffffffffffffffffffffffffffff166106886001600a546110f990919063ffffffff16565b7f63ead4b8b03e6d5c30b95367731f794efafbe0325fa8f55d452c8ac00645e36d83426003546040516106bd93929190611d86565b60405180910390a36000600260009054906101000a900473ffffffffffffffffffffffffffffffffffffffff1690508073ffffffffffffffffffffffffffffffffffffffff1663a9059cbb84846040518363ffffffff1660e01b8152600401610727929190611c36565b602060405180830381600087803b15801561074157600080fd5b505af1158015610755573d6000803e3d6000fd5b505050506040513d601f19601f8201168201806040525081019061077991906116ac565b50505b505050565b60008990506000600260009054906101000a900473ffffffffffffffffffffffffffffffffffffffff1690506040516020016107bc90611bb4565b604051602081830303815290604052805190602001208a8a6040516020016107e5929190611b9b565b604051602081830303815290604052805190602001201415610b475760008173ffffffffffffffffffffffffffffffffffffffff166370a08231306040518263ffffffff1660e01b815260040161083c9190611be4565b60206040518083038186803b15801561085457600080fd5b505afa158015610868573d6000803e3d6000fd5b505050506040513d601f19601f8201168201806040525081019061088c91906116d5565b90506000604051806101000160405280600760009054906101000a900473ffffffffffffffffffffffffffffffffffffffff1673ffffffffffffffffffffffffffffffffffffffff16634aa4a4fc6040518163ffffffff1660e01b815260040160206040518083038186803b15801561090457600080fd5b505afa158015610918573d6000803e3d6000fd5b505050506040513d601f19601f8201168201806040525081019061093c9190611634565b73ffffffffffffffffffffffffffffffffffffffff168152602001600260009054906101000a900473ffffffffffffffffffffffffffffffffffffffff1673ffffffffffffffffffffffffffffffffffffffff168152602001610bb862ffffff1681526020013073ffffffffffffffffffffffffffffffffffffffff1681526020014281526020018e815260200160008152602001600073ffffffffffffffffffffffffffffffffffffffff168152509050600760009054906101000a900473ffffffffffffffffffffffffffffffffffffffff1673ffffffffffffffffffffffffffffffffffffffff1663414bf3898e836040518363ffffffff1660e01b8152600401610a4a9190611d34565b6020604051808303818588803b158015610a6357600080fd5b505af1158015610a77573d6000803e3d6000fd5b50505050506040513d601f19601f82011682018060405250810190610a9c91906116d5565b5060008373ffffffffffffffffffffffffffffffffffffffff166370a08231306040518263ffffffff1660e01b8152600401610ad89190611be4565b60206040518083038186803b158015610af057600080fd5b505afa158015610b04573d6000803e3d6000fd5b505050506040513d601f19601f82011682018060405250810190610b2891906116d5565b9050610b3d83826110f990919063ffffffff16565b9450505050610ff2565b60008490508073ffffffffffffffffffffffffffffffffffffffff166323b872dd33308f6040518463ffffffff1660e01b8152600401610b8993929190611bff565b602060405180830381600087803b158015610ba357600080fd5b505af1158015610bb7573d6000803e3d6000fd5b505050506040513d601f19601f82011682018060405250810190610bdb91906116ac565b50600260009054906101000a900473ffffffffffffffffffffffffffffffffffffffff1673ffffffffffffffffffffffffffffffffffffffff168573ffffffffffffffffffffffffffffffffffffffff1614610ff05760008273ffffffffffffffffffffffffffffffffffffffff166370a08231306040518263ffffffff1660e01b8152600401610c6c9190611be4565b60206040518083038186803b158015610c8457600080fd5b505afa158015610c98573d6000803e3d6000fd5b505050506040513d601f19601f82011682018060405250810190610cbc91906116d5565b90508173ffffffffffffffffffffffffffffffffffffffff1663095ea7b3600760009054906101000a900473ffffffffffffffffffffffffffffffffffffffff168f6040518363ffffffff1660e01b8152600401610d1b929190611c36565b602060405180830381600087803b158015610d3557600080fd5b505af1158015610d49573d6000803e3d6000fd5b505050506040513d601f19601f82011682018060405250810190610d6d91906116ac565b5060006040518060a0016040528088610bb8600760009054906101000a900473ffffffffffffffffffffffffffffffffffffffff1673ffffffffffffffffffffffffffffffffffffffff16634aa4a4fc6040518163ffffffff1660e01b815260040160206040518083038186803b158015610de757600080fd5b505afa158015610dfb573d6000803e3d6000fd5b505050506040513d601f19601f82011682018060405250810190610e1f9190611634565b610bb8600260009054906101000a900473ffffffffffffffffffffffffffffffffffffffff16604051602001610e59959493929190611b3c565b60405160208183030381529060405281526020013073ffffffffffffffffffffffffffffffffffffffff1681526020014281526020018f815260200160008152509050600760009054906101000a900473ffffffffffffffffffffffffffffffffffffffff1673ffffffffffffffffffffffffffffffffffffffff1663c04b8d59826040518263ffffffff1660e01b8152600401610ef79190611d12565b602060405180830381600087803b158015610f1157600080fd5b505af1158015610f25573d6000803e3d6000fd5b505050506040513d601f19601f82011682018060405250810190610f4991906116d5565b5060008473ffffffffffffffffffffffffffffffffffffffff166370a08231306040518263ffffffff1660e01b8152600401610f859190611be4565b60206040518083038186803b158015610f9d57600080fd5b505afa158015610fb1573d6000803e3d6000fd5b505050506040513d601f19601f82011682018060405250810190610fd591906116d5565b9050610fea83826110f990919063ffffffff16565b95505050505b505b610ffd828683611143565b6110948b8b8b8080601f016020809104026020016040519081016040528093929190818152602001838380828437600081840152601f19601f8201169050808301925050505050505084888c8c8080601f016020809104026020016040519081016040528093929190818152602001838380828437600081840152601f19601f820116905080830192505050505050508b8961120e565b5050505050505050505050565b600160009054906101000a900473ffffffffffffffffffffffffffffffffffffffff1681565b60035481565b600b6020528060005260406000206000915054906101000a900460ff1681565b60045481565b60095481565b600061113b83836040518060400160405280601e81526020017f536166654d6174683a207375627472616374696f6e206f766572666c6f770000815250611320565b905092915050565b600061114e8461137b565b9050600061116582866110f990919063ffffffff16565b905080600554016005819055506111c482600860008773ffffffffffffffffffffffffffffffffffffffff1673ffffffffffffffffffffffffffffffffffffffff168152602001908152602001600020546113d390919063ffffffff16565b600860008673ffffffffffffffffffffffffffffffffffffffff1673ffffffffffffffffffffffffffffffffffffffff168152602001908152602001600020819055505050505050565b60006112198661137b565b90506001600c60003373ffffffffffffffffffffffffffffffffffffffff1673ffffffffffffffffffffffffffffffffffffffff1681526020019081526020016000205401600c60003373ffffffffffffffffffffffffffffffffffffffff1673ffffffffffffffffffffffffffffffffffffffff168152602001908152602001600020819055508473ffffffffffffffffffffffffffffffffffffffff163373ffffffffffffffffffffffffffffffffffffffff167f5444071be1d4f9cd115f89590277b198ad5ec9ab54d82300659d032a0a5a7f178a89858c8a896003544260405161130e989796959493929190611dbd565b60405180910390a35050505050505050565b6000838311158290611368576040517f08c379a000000000000000000000000000000000000000000000000000000000815260040161135f9190611cb0565b60405180910390fd5b5060008385039050809150509392505050565b6000806127109050600061139a600454836110f990919063ffffffff16565b905060006113b1828661142890919063ffffffff16565b90506113c6838261149890919063ffffffff16565b9050809350505050919050565b60008082840190508381101561141e576040517f08c379a000000000000000000000000000000000000000000000000000000000815260040161141590611cd2565b60405180910390fd5b8091505092915050565b60008083141561143b5760009050611492565b600082840290508284828161144c57fe5b041461148d576040517f08c379a000000000000000000000000000000000000000000000000000000000815260040161148490611cf2565b60405180910390fd5b809150505b92915050565b60006114da83836040518060400160405280601a81526020017f536166654d6174683a206469766973696f6e206279207a65726f0000000000008152506114e2565b905092915050565b60008083118290611529576040517f08c379a00000000000000000000000000000000000000000000000000000000081526004016115209190611cb0565b60405180910390fd5b50600083858161153557fe5b049050809150509392505050565b60008135905061155281612016565b92915050565b60008151905061156781612016565b92915050565b60008135905061157c8161202d565b92915050565b60008151905061159181612044565b92915050565b60008083601f8401126115a957600080fd5b8235905067ffffffffffffffff8111156115c257600080fd5b6020830191508360018202830111156115da57600080fd5b9250929050565b6000813590506115f08161205b565b92915050565b6000815190506116058161205b565b92915050565b60006020828403121561161d57600080fd5b600061162b84828501611543565b91505092915050565b60006020828403121561164657600080fd5b600061165484828501611558565b91505092915050565b60008060006060848603121561167257600080fd5b600061168086828701611543565b935050602061169186828701611543565b92505060406116a2868287016115e1565b9150509250925092565b6000602082840312156116be57600080fd5b60006116cc84828501611582565b91505092915050565b6000602082840312156116e757600080fd5b60006116f5848285016115f6565b91505092915050565b600080600080600080600080600060e08a8c03121561171c57600080fd5b600061172a8c828d016115e1565b99505060208a013567ffffffffffffffff81111561174757600080fd5b6117538c828d01611597565b985098505060408a013567ffffffffffffffff81111561177257600080fd5b61177e8c828d01611597565b965096505060606117918c828d016115e1565b94505060806117a28c828d0161156d565b93505060a06117b38c828d01611543565b92505060c06117c48c828d016115e1565b9150509295985092959850929598565b6117dd81611ef5565b82525050565b6117ec81611e8c565b82525050565b6117fb81611e8c565b82525050565b61181261180d82611e8c565b611fb5565b82525050565b61182181611eb0565b82525050565b600061183282611e49565b61183c8185611e5f565b935061184c818560208601611f82565b61185581611feb565b840191505092915050565b61186981611f07565b82525050565b61187881611f2b565b82525050565b600061188a8385611e81565b9350611897838584611f73565b82840190509392505050565b60006118ae82611e54565b6118b88185611e70565b93506118c8818560208601611f82565b6118d181611feb565b840191505092915050565b60006118e9601b83611e70565b91507f536166654d6174683a206164646974696f6e206f766572666c6f7700000000006000830152602082019050919050565b6000611929602183611e70565b91507f536166654d6174683a206d756c7469706c69636174696f6e206f766572666c6f60008301527f77000000000000000000000000000000000000000000000000000000000000006020830152604082019050919050565b600061198f600383611e81565b91507f45544800000000000000000000000000000000000000000000000000000000006000830152600382019050919050565b600060a08301600083015184820360008601526119df8282611827565b91505060208301516119f460208601826117e3565b506040830151611a076040860182611b1e565b506060830151611a1a6060860182611b1e565b506080830151611a2d6080860182611b1e565b508091505092915050565b61010082016000820151611a4f60008501826117e3565b506020820151611a6260208501826117e3565b506040820151611a756040850182611ae9565b506060820151611a8860608501826117e3565b506080820151611a9b6080850182611b1e565b5060a0820151611aae60a0850182611b1e565b5060c0820151611ac160c0850182611b1e565b5060e0820151611ad460e0850182611ada565b50505050565b611ae381611ebc565b82525050565b611af281611edc565b82525050565b611b0181611edc565b82525050565b611b18611b1382611edc565b611fd9565b82525050565b611b2781611eeb565b82525050565b611b3681611eeb565b82525050565b6000611b488288611801565b601482019150611b588287611b07565b600382019150611b688286611801565b601482019150611b788285611b07565b600382019150611b888284611801565b6014820191508190509695505050505050565b6000611ba882848661187e565b91508190509392505050565b6000611bbf82611982565b9150819050919050565b6000602082019050611bde60008301846117f2565b92915050565b6000602082019050611bf960008301846117d4565b92915050565b6000606082019050611c1460008301866117d4565b611c2160208301856117d4565b611c2e6040830184611b2d565b949350505050565b6000604082019050611c4b60008301856117f2565b611c586020830184611b2d565b9392505050565b6000602082019050611c746000830184611818565b92915050565b6000602082019050611c8f6000830184611860565b92915050565b6000602082019050611caa600083018461186f565b92915050565b60006020820190508181036000830152611cca81846118a3565b905092915050565b60006020820190508181036000830152611ceb816118dc565b9050919050565b60006020820190508181036000830152611d0b8161191c565b9050919050565b60006020820190508181036000830152611d2c81846119c2565b905092915050565b600061010082019050611d4a6000830184611a38565b92915050565b6000602082019050611d656000830184611af8565b92915050565b6000602082019050611d806000830184611b2d565b92915050565b6000606082019050611d9b6000830186611b2d565b611da86020830185611b2d565b611db56040830184611b2d565b949350505050565b600061010082019050611dd3600083018b611b2d565b611de0602083018a611b2d565b611ded6040830189611b2d565b8181036060830152611dff81886118a3565b90508181036080830152611e1381876118a3565b9050611e2260a0830186611b2d565b611e2f60c0830185611b2d565b611e3c60e0830184611b2d565b9998505050505050505050565b600081519050919050565b600081519050919050565b600082825260208201905092915050565b600082825260208201905092915050565b600081905092915050565b6000611e9782611ebc565b9050919050565b6000611ea982611ebc565b9050919050565b60008115159050919050565b600073ffffffffffffffffffffffffffffffffffffffff82169050919050565b600062ffffff82169050919050565b6000819050919050565b6000611f0082611f4f565b9050919050565b6000611f1282611f19565b9050919050565b6000611f2482611ebc565b9050919050565b6000611f3682611f3d565b9050919050565b6000611f4882611ebc565b9050919050565b6000611f5a82611f61565b9050919050565b6000611f6c82611ebc565b9050919050565b82818337600083830152505050565b60005b83811015611fa0578082015181840152602081019050611f85565b83811115611faf576000848401525b50505050565b6000611fc082611fc7565b9050919050565b6000611fd282612009565b9050919050565b6000611fe482611ffc565b9050919050565b6000601f19601f8301169050919050565b60008160e81b9050919050565b60008160601b9050919050565b61201f81611e8c565b811461202a57600080fd5b50565b61203681611e9e565b811461204157600080fd5b50565b61204d81611eb0565b811461205857600080fd5b50565b61206481611eeb565b811461206f57600080fd5b5056fea2646970667358221220b8bd51a39da6fff8439e1734063f1218fd9a4abd44d099425f0bb5c302b53e5164736f6c63430007060033",
  "immutableReferences": {},
  "source": "pragma solidity ^0.7.6;\r\n//pragma solidity ^0.6.12;\r\n// SPDX-License-Identifier: Unlicensed\r\npragma experimental ABIEncoderV2;\r\nimport \"./DaiToken.sol\";\r\n\r\n\r\n/// @title Smart contract implementing the delegate call function for Donation_Processor\r\n/// @author Bofan Wu\r\n/// @dev All function calls are currently implemented without side effects\r\ncontract Donation_Upgrade {\r\n    string public name = \"Donation_Processor\";\r\n    address public owner;\r\n    address public final_currency = 0x07865c6E87B9F70255377e024ace6630C1Eaa37F;//Circle Ropsten USDC\r\n    uint public final_currency_decimal=6;\r\n    using SafeMath for uint256;\r\n\r\n    uint public donation_transaction_fee;//in basis points - (i.e.300)\r\n    uint public collected_transaction_fees;//in stablecoins\r\n    IUniswapV2Router02 public uniswapV2Router;\r\n    ISwapRouter public uniswapV3Router;\r\n    mapping (address => uint) public donationAllocation;\r\n    uint public total_withdraw_count;\r\n    uint public wire_withdraw_count;\r\n    mapping (address => bool) public is_admin;\r\n    uint24 public constant poolFee = 3000;\r\n    mapping (address => uint) public donation_count;\r\n\r\n    event Transaction(\r\n        uint256 amount,\r\n        uint256 converted_amount,\r\n        uint256 received_amount,\r\n        string currency,\r\n        string org_name,\r\n        address indexed donor_address,\r\n        address indexed receiver,\r\n        uint input_decimals,\r\n        uint output_decimals,\r\n        uint date\r\n    );\r\n    event Wire_Withdraw(\r\n        uint256 indexed id,\r\n        address indexed charity_address,\r\n        uint256 amount,\r\n        uint256 timestamp,\r\n        uint output_decimals\r\n    );\r\n\r\n    constructor() public {\r\n        owner = msg.sender;\r\n    }\r\n     //to recieve ETH from uniswapV2Router when swaping\r\n    receive() external payable {}\r\n\r\n    \r\n    /// @notice Processes a donation from a user\r\n    /// @param _amount  amount of the donated ERC20 token\r\n    /// @param _currency  name of the donated ERC20 token\r\n    /// @param organization_name  name of the organization to receive the donation\r\n    /// @param organization_ein  EIN of the organization to receive the donation\r\n    /// @param charity_wallet  Ethereum address of the organization to receive the donation\r\n    /// @param currency_address  Ethereum address of the donated ERC20 token\r\n    /// @param decimals decimal precision of the donated ERC20 token\r\n    function process_donation(uint _amount,string calldata _currency, string calldata organization_name, uint organization_ein, address payable charity_wallet, address currency_address, uint decimals) external payable{\r\n        \r\n        uint stablecoin_amount=_amount;//by default, assumes the donation is in stablecoin\r\n        IERC20 final_token = IERC20(final_currency);\r\n\r\n\r\n        if(keccak256(abi.encodePacked(_currency)) == keccak256(abi.encodePacked(\"ETH\"))){//convert ETH to Stablecoin\r\n                \r\n            uint256 initialBalance = final_token.balanceOf(address(this));\r\n/////////////////////////////////////////////////////////////////////////////////////////////////////////////////UniSwapV3\r\n            ISwapRouter.ExactInputSingleParams memory params =\r\n                ISwapRouter.ExactInputSingleParams({\r\n                    tokenIn: uniswapV3Router.WETH9(),\r\n                    tokenOut: final_currency,\r\n                    fee: 3000,\r\n                    recipient: address(this),\r\n                    deadline: block.timestamp,\r\n                    amountIn: _amount,\r\n                    amountOutMinimum: 0,\r\n                    sqrtPriceLimitX96: 0\r\n                });\r\n            \r\n\r\n            uniswapV3Router.exactInputSingle{value:_amount}(params);\r\n/////////////////////////////////////////////////////////////////////////////////////////////////////////////////\r\n\r\n\r\n            uint256 post_conversion_Balance = final_token.balanceOf(address(this));\r\n            stablecoin_amount = post_conversion_Balance.sub(initialBalance);\r\n        }\r\n        else{\r\n\r\n            IERC20 this_token = IERC20(currency_address);\r\n            this_token.transferFrom(msg.sender, address(this), _amount);///transfer in value first - in case user balance is not enough, function will revert here\r\n            \r\n            if(currency_address!=final_currency){//convert any coin into stablecoin (unless the coin itself is already the stablecoin)\r\n                uint256 initialBalance = final_token.balanceOf(address(this));\r\n\r\n/////////////////////////////////////////////////////////////////////////////////////////////////////////////////UniSwapV3\r\n                this_token.approve(address(uniswapV3Router), _amount);\r\n\r\n                ISwapRouter.ExactInputParams memory params =\r\n                    ISwapRouter.ExactInputParams({\r\n                        path: abi.encodePacked(currency_address, poolFee, uniswapV3Router.WETH9(), poolFee, final_currency),\r\n                        recipient: address(this),\r\n                        deadline: block.timestamp,\r\n                        amountIn: _amount,\r\n                        amountOutMinimum: 0\r\n                    });\r\n\r\n                // Executes the swap.\r\n                uniswapV3Router.exactInput(params);\r\n/////////////////////////////////////////////////////////////////////////////////////////////////////////////////\r\n\r\n                uint256 post_conversion_Balance = final_token.balanceOf(address(this));\r\n                stablecoin_amount = post_conversion_Balance.sub(initialBalance);\r\n            }\r\n        }\r\n\r\n        process_money_transfer(stablecoin_amount, charity_wallet, final_token);//always transfer out in stablecoin\r\n        store_donation_data(_amount, _currency, stablecoin_amount, charity_wallet, organization_name, organization_ein, decimals);\r\n        return;\r\n    }\r\n\r\n    /// @notice Calculate donation amount after subtracting transaction fee\r\n    /// @param _amount  amount donated prior to subtracting fee\r\n    function return_donation_after_fee(uint _amount) internal view returns (uint){\r\n        uint one_hundred=10000;//in basis points\r\n        uint subtract_fee=one_hundred.sub(donation_transaction_fee);\r\n        uint donation_after_fee=_amount.mul(subtract_fee);\r\n        donation_after_fee=donation_after_fee.div(one_hundred);\r\n        return donation_after_fee; \r\n    }\r\n\r\n    /// @notice Accumulate donated funds for the respective recipient charity\r\n    /// @param _amount  amount donated prior to subtracting fee\r\n    /// @param charity_wallet  address the recipient charity\r\n    /// @param _final_token  token that all donations are converted into\r\n    function process_money_transfer(uint _amount, address payable charity_wallet, IERC20 _final_token) internal{\r\n        \r\n        uint return_donation_after_fee_calculated=return_donation_after_fee(_amount);\r\n        uint fee_allocation=_amount.sub(return_donation_after_fee_calculated);\r\n\r\n\r\n        collected_transaction_fees=collected_transaction_fees + fee_allocation; ///to be distributed to token holders , i.e. via open market buy backs\r\n       \r\n        donationAllocation[charity_wallet] = donationAllocation[charity_wallet].add(return_donation_after_fee_calculated);//Updated Workflow - keep donations in the smart contract for the charities to withdraw directly to Circle/their bank account\r\n        //_final_token.transfer(charity_wallet, return_donation_after_fee_calculated);//transfer donation from smart contract to charity wallet address\r\n        \r\n    }\r\n\r\n    /// @notice Store the donation transaction on the blockchain by emitting an event\r\n    /// @param _amount  amount of the original donated ERC20 token\r\n    /// @param _currency  name of the original donated ERC20 token\r\n    /// @param stablecoin_amount  amount of stablecoins post DEX conversion\r\n    /// @param charity_wallet  recipient charity wallet\r\n    /// @param _org_name  recipient charity organization name\r\n    /// @param _org_ein  recipient charity EIN number\r\n    /// @param _decimals  decimal precision of the original donated ERC20 token\r\n    function store_donation_data(uint _amount, string memory _currency,uint stablecoin_amount, address charity_wallet,string memory _org_name, uint _org_ein, uint _decimals) internal{\r\n\r\n        uint return_donation_after_fee_calculated=return_donation_after_fee(stablecoin_amount);\r\n        donation_count[msg.sender]=donation_count[msg.sender]+1;\r\n        emit Transaction(_amount, stablecoin_amount, return_donation_after_fee_calculated, _currency, _org_name, msg.sender, charity_wallet, _decimals, final_currency_decimal, block.timestamp);\r\n        return;\r\n    }\r\n\r\n    /// @notice A charity calls this function to withdraw accumulated donations\r\n    /// @param _charity_address  address of the charity\r\n    /// @param _withdraw_address  address to withdraw to\r\n    /// @param _amount  amount to withdraw \r\n    function withdraw_donation(address _charity_address, address _withdraw_address, uint _amount) public{\r\n\r\n        if(msg.sender!=_charity_address){//only the charity can withdraw funds\r\n            return;\r\n        }\r\n\r\n        if(donationAllocation[_charity_address] <_amount){//can't withdraw more than the total allocation\r\n            return;//fail\r\n        }\r\n\r\n        total_withdraw_count=total_withdraw_count+1;\r\n        wire_withdraw_count=wire_withdraw_count+1;\r\n        donationAllocation[_charity_address] = donationAllocation[_charity_address].sub(_amount);\r\n\r\n        emit Wire_Withdraw(wire_withdraw_count.sub(1), msg.sender, _amount, block.timestamp, final_currency_decimal);\r\n\r\n        //wire_request memory new_wire = wire_request({id:wire_request_array.length, charity_address:_charity_address, amount:_amount, timestamp:block.timestamp, output_decimals:final_currency_decimal});\r\n        //wire_request_array.push(new_wire);\r\n\r\n\r\n        IERC20 final_token = IERC20(final_currency);\r\n        final_token.transfer(_withdraw_address, _amount);//withdraw donation from smart contract to charity|||USDC only only 6 decimal places\r\n    }\r\n\r\n\r\n\r\n}",
  "sourcePath": "C:/Users/Bofan/github/blockchain-developer-bootcamp-final-project/src/contracts/Donation_Upgrade.sol",
  "compiler": {
    "name": "solc",
    "version": "0.7.6+commit.7338295f.Emscripten.clang"
  },
  "schemaVersion": "3.2.3",
  "updatedAt": "2021-11-24T02:51:12.264Z",
  "devdoc": {
    "author": "Bofan Wu",
    "details": "All function calls are currently implemented without side effects",
    "kind": "dev",
    "methods": {
      "process_donation(uint256,string,string,uint256,address,address,uint256)": {
        "params": {
          "_amount": "amount of the donated ERC20 token",
          "_currency": "name of the donated ERC20 token",
          "charity_wallet": "Ethereum address of the organization to receive the donation",
          "currency_address": "Ethereum address of the donated ERC20 token",
          "decimals": "decimal precision of the donated ERC20 token",
          "organization_ein": "EIN of the organization to receive the donation",
          "organization_name": "name of the organization to receive the donation"
        }
      },
      "withdraw_donation(address,address,uint256)": {
        "params": {
          "_amount": "amount to withdraw ",
          "_charity_address": "address of the charity",
          "_withdraw_address": "address to withdraw to"
        }
      }
    },
    "title": "Smart contract implementing the delegate call function for Donation_Processor",
    "version": 1
  },
  "userdoc": {
    "kind": "user",
    "methods": {
      "process_donation(uint256,string,string,uint256,address,address,uint256)": {
        "notice": "Processes a donation from a user"
      },
      "withdraw_donation(address,address,uint256)": {
        "notice": "A charity calls this function to withdraw accumulated donations"
      }
    },
    "version": 1
  }
}