{
  "contractName": "EthBridge",
  "abi": [
    {
      "inputs": [],
      "stateMutability": "nonpayable",
      "type": "constructor"
    },
    {
      "anonymous": false,
      "inputs": [
        {
          "indexed": true,
          "internalType": "address",
          "name": "_from",
          "type": "address"
        },
        {
          "indexed": false,
          "internalType": "uint256",
          "name": "_total_deposited",
          "type": "uint256"
        },
        {
          "indexed": false,
          "internalType": "uint256",
          "name": "_final_currency_decimal",
          "type": "uint256"
        }
      ],
      "name": "Deposited",
      "type": "event"
    },
    {
      "inputs": [],
      "name": "delegate_address",
      "outputs": [
        {
          "internalType": "address",
          "name": "",
          "type": "address"
        }
      ],
      "stateMutability": "view",
      "type": "function"
    },
    {
      "inputs": [
        {
          "internalType": "address",
          "name": "",
          "type": "address"
        }
      ],
      "name": "ethereum_deposit",
      "outputs": [
        {
          "internalType": "uint256",
          "name": "",
          "type": "uint256"
        }
      ],
      "stateMutability": "view",
      "type": "function"
    },
    {
      "inputs": [],
      "name": "final_currency",
      "outputs": [
        {
          "internalType": "address",
          "name": "",
          "type": "address"
        }
      ],
      "stateMutability": "view",
      "type": "function"
    },
    {
      "inputs": [],
      "name": "final_currency_decimal",
      "outputs": [
        {
          "internalType": "uint256",
          "name": "",
          "type": "uint256"
        }
      ],
      "stateMutability": "view",
      "type": "function"
    },
    {
      "inputs": [],
      "name": "name",
      "outputs": [
        {
          "internalType": "string",
          "name": "",
          "type": "string"
        }
      ],
      "stateMutability": "view",
      "type": "function"
    },
    {
      "inputs": [],
      "name": "owner",
      "outputs": [
        {
          "internalType": "address",
          "name": "",
          "type": "address"
        }
      ],
      "stateMutability": "view",
      "type": "function"
    },
    {
      "inputs": [],
      "name": "uniswapV2Router",
      "outputs": [
        {
          "internalType": "contract IUniswapV2Router02",
          "name": "",
          "type": "address"
        }
      ],
      "stateMutability": "view",
      "type": "function"
    },
    {
      "inputs": [],
      "name": "uniswapV3Router",
      "outputs": [
        {
          "internalType": "contract ISwapRouter",
          "name": "",
          "type": "address"
        }
      ],
      "stateMutability": "view",
      "type": "function"
    },
    {
      "stateMutability": "payable",
      "type": "receive"
    },
    {
      "inputs": [
        {
          "internalType": "uint256",
          "name": "_amount",
          "type": "uint256"
        },
        {
          "internalType": "string",
          "name": "_currency",
          "type": "string"
        },
        {
          "internalType": "address",
          "name": "currency_address",
          "type": "address"
        },
        {
          "internalType": "uint256",
          "name": "decimals",
          "type": "uint256"
        }
      ],
      "name": "process_deposit",
      "outputs": [],
      "stateMutability": "payable",
      "type": "function"
    },
    {
      "inputs": [
        {
          "internalType": "address",
          "name": "_user",
          "type": "address"
        }
      ],
      "name": "get_total_deposit",
      "outputs": [
        {
          "internalType": "uint256",
          "name": "",
          "type": "uint256"
        }
      ],
      "stateMutability": "view",
      "type": "function"
    },
    {
      "inputs": [
        {
          "internalType": "address",
          "name": "_contract_address",
          "type": "address"
        }
      ],
      "name": "set_final_currency",
      "outputs": [],
      "stateMutability": "nonpayable",
      "type": "function"
    },
    {
      "inputs": [
        {
          "internalType": "address",
          "name": "newOwner",
          "type": "address"
        }
      ],
      "name": "transfer_owner",
      "outputs": [],
      "stateMutability": "nonpayable",
      "type": "function"
    },
    {
      "inputs": [
        {
          "internalType": "address",
          "name": "_contract_address",
          "type": "address"
        }
      ],
      "name": "set_delegate_address",
      "outputs": [],
      "stateMutability": "nonpayable",
      "type": "function"
    },
    {
      "inputs": [
        {
          "internalType": "address",
          "name": "newRouter",
          "type": "address"
        }
      ],
      "name": "setRouterAddress",
      "outputs": [],
      "stateMutability": "nonpayable",
      "type": "function"
    },
    {
      "inputs": [
        {
          "internalType": "address",
          "name": "newRouter",
          "type": "address"
        }
      ],
      "name": "setuniswapV3RouterAddress",
      "outputs": [],
      "stateMutability": "nonpayable",
      "type": "function"
    }
  ],
  "bytecode": "0x60806040526040518060400160405280600981526020017f45746842726964676500000000000000000000000000000000000000000000008152506000908051906020019062000051929190620001cd565b5073b58a25294f399f7056a4cd5dae3c2fb9259e360d600260006101000a81548173ffffffffffffffffffffffffffffffffffffffff021916908373ffffffffffffffffffffffffffffffffffffffff1602179055506006600355348015620000b957600080fd5b5033600160006101000a81548173ffffffffffffffffffffffffffffffffffffffff021916908373ffffffffffffffffffffffffffffffffffffffff16021790555062000120739ac64cc6e4415144c455bd8e4837fea55603e5c36200012660201b60201c565b62000283565b600160009054906101000a900473ffffffffffffffffffffffffffffffffffffffff1673ffffffffffffffffffffffffffffffffffffffff163373ffffffffffffffffffffffffffffffffffffffff16146200018257620001ca565b600081905080600560006101000a81548173ffffffffffffffffffffffffffffffffffffffff021916908373ffffffffffffffffffffffffffffffffffffffff160217905550505b50565b828054600181600116156101000203166002900490600052602060002090601f01602090048101928262000205576000855562000251565b82601f106200022057805160ff191683800117855562000251565b8280016001018555821562000251579182015b828111156200025057825182559160200191906001019062000233565b5b50905062000260919062000264565b5090565b5b808211156200027f57600081600090555060010162000265565b5090565b610fc780620002936000396000f3fe6080604052600436106100ec5760003560e01c80634502e60a1161008a578063a7bd629211610059578063a7bd6292146102e2578063aa3082bc1461030b578063afed47e714610336578063c6445cae1461035f576100f3565b80634502e60a146102245780636bfb393f1461026157806374d1bca81461028c5780638da5cb5b146102b7576100f3565b80632c650f32116100c65780632c650f32146101775780632c76d7a614610193578063357a1a78146101be57806341cb87fc146101fb576100f3565b806306fdde03146100f85780631694505e14610123578063288960661461014e576100f3565b366100f357005b600080fd5b34801561010457600080fd5b5061010d610388565b60405161011a9190610d8b565b60405180910390f35b34801561012f57600080fd5b50610138610426565b6040516101459190610d70565b60405180910390f35b34801561015a57600080fd5b5061017560048036038101906101709190610b18565b61044c565b005b610191600480360381019061018c9190610b41565b61055b565b005b34801561019f57600080fd5b506101a8610681565b6040516101b59190610d55565b60405180910390f35b3480156101ca57600080fd5b506101e560048036038101906101e09190610b18565b6106a7565b6040516101f29190610dcd565b60405180910390f35b34801561020757600080fd5b50610222600480360381019061021d9190610b18565b6106f0565b005b34801561023057600080fd5b5061024b60048036038101906102469190610b18565b610795565b6040516102589190610dcd565b60405180910390f35b34801561026d57600080fd5b506102766107ad565b6040516102839190610d3a565b60405180910390f35b34801561029857600080fd5b506102a16107d3565b6040516102ae9190610d3a565b60405180910390f35b3480156102c357600080fd5b506102cc6107f9565b6040516102d99190610d3a565b60405180910390f35b3480156102ee57600080fd5b5061030960048036038101906103049190610b18565b61081f565b005b34801561031757600080fd5b506103206108be565b60405161032d9190610dcd565b60405180910390f35b34801561034257600080fd5b5061035d60048036038101906103589190610b18565b6108c4565b005b34801561036b57600080fd5b5061038660048036038101906103819190610b18565b6109ea565b005b60008054600181600116156101000203166002900480601f01602080910402602001604051908101604052809291908181526020018280546001816001161561010002031660029004801561041e5780601f106103f35761010080835404028352916020019161041e565b820191906000526020600020905b81548152906001019060200180831161040157829003601f168201915b505050505081565b600560009054906101000a900473ffffffffffffffffffffffffffffffffffffffff1681565b600160009054906101000a900473ffffffffffffffffffffffffffffffffffffffff1673ffffffffffffffffffffffffffffffffffffffff163373ffffffffffffffffffffffffffffffffffffffff16146104a657610558565b600073ffffffffffffffffffffffffffffffffffffffff168173ffffffffffffffffffffffffffffffffffffffff161415610516576040517f08c379a000000000000000000000000000000000000000000000000000000000815260040161050d90610dad565b60405180910390fd5b80600160006101000a81548173ffffffffffffffffffffffffffffffffffffffff021916908373ffffffffffffffffffffffffffffffffffffffff1602179055505b50565b600760009054906101000a900473ffffffffffffffffffffffffffffffffffffffff1673ffffffffffffffffffffffffffffffffffffffff1685858585856040516024016105ad959493929190610de8565b6040516020818303038152906040527f2c650f32000000000000000000000000000000000000000000000000000000007bffffffffffffffffffffffffffffffffffffffffffffffffffffffff19166020820180517bffffffffffffffffffffffffffffffffffffffffffffffffffffffff83818316178352505050506040516106379190610d23565b600060405180830381855af49150503d8060008114610672576040519150601f19603f3d011682016040523d82523d6000602084013e610677565b606091505b5050505050505050565b600660009054906101000a900473ffffffffffffffffffffffffffffffffffffffff1681565b6000600460008373ffffffffffffffffffffffffffffffffffffffff1673ffffffffffffffffffffffffffffffffffffffff168152602001908152602001600020549050919050565b600160009054906101000a900473ffffffffffffffffffffffffffffffffffffffff1673ffffffffffffffffffffffffffffffffffffffff163373ffffffffffffffffffffffffffffffffffffffff161461074a57610792565b600081905080600560006101000a81548173ffffffffffffffffffffffffffffffffffffffff021916908373ffffffffffffffffffffffffffffffffffffffff160217905550505b50565b60046020528060005260406000206000915090505481565b600260009054906101000a900473ffffffffffffffffffffffffffffffffffffffff1681565b600760009054906101000a900473ffffffffffffffffffffffffffffffffffffffff1681565b600160009054906101000a900473ffffffffffffffffffffffffffffffffffffffff1681565b600160009054906101000a900473ffffffffffffffffffffffffffffffffffffffff1673ffffffffffffffffffffffffffffffffffffffff163373ffffffffffffffffffffffffffffffffffffffff1614610879576108bb565b80600760006101000a81548173ffffffffffffffffffffffffffffffffffffffff021916908373ffffffffffffffffffffffffffffffffffffffff1602179055505b50565b60035481565b600160009054906101000a900473ffffffffffffffffffffffffffffffffffffffff1673ffffffffffffffffffffffffffffffffffffffff163373ffffffffffffffffffffffffffffffffffffffff161461091e576109e7565b80600260006101000a81548173ffffffffffffffffffffffffffffffffffffffff021916908373ffffffffffffffffffffffffffffffffffffffff1602179055508073ffffffffffffffffffffffffffffffffffffffff1663313ce5676040518163ffffffff1660e01b815260040160206040518083038186803b1580156109a557600080fd5b505afa1580156109b9573d6000803e3d6000fd5b505050506040513d601f19601f820116820180604052508101906109dd9190610bc1565b60ff166003819055505b50565b600160009054906101000a900473ffffffffffffffffffffffffffffffffffffffff1673ffffffffffffffffffffffffffffffffffffffff163373ffffffffffffffffffffffffffffffffffffffff1614610a4457610a8c565b600081905080600660006101000a81548173ffffffffffffffffffffffffffffffffffffffff021916908373ffffffffffffffffffffffffffffffffffffffff160217905550505b50565b600081359050610a9e81610f4c565b92915050565b60008083601f840112610ab657600080fd5b8235905067ffffffffffffffff811115610acf57600080fd5b602083019150836001820283011115610ae757600080fd5b9250929050565b600081359050610afd81610f63565b92915050565b600081519050610b1281610f7a565b92915050565b600060208284031215610b2a57600080fd5b6000610b3884828501610a8f565b91505092915050565b600080600080600060808688031215610b5957600080fd5b6000610b6788828901610aee565b955050602086013567ffffffffffffffff811115610b8457600080fd5b610b9088828901610aa4565b94509450506040610ba388828901610a8f565b9250506060610bb488828901610aee565b9150509295509295909350565b600060208284031215610bd357600080fd5b6000610be184828501610b03565b91505092915050565b610bf381610e68565b82525050565b6000610c0482610e36565b610c0e8185610e4c565b9350610c1e818560208601610f08565b80840191505092915050565b610c3381610eb1565b82525050565b610c4281610ed5565b82525050565b6000610c548385610e57565b9350610c61838584610ef9565b610c6a83610f3b565b840190509392505050565b6000610c8082610e41565b610c8a8185610e57565b9350610c9a818560208601610f08565b610ca381610f3b565b840191505092915050565b6000610cbb602683610e57565b91507f4f776e61626c653a206e6577206f776e657220697320746865207a65726f206160008301527f64647265737300000000000000000000000000000000000000000000000000006020830152604082019050919050565b610d1d81610e9a565b82525050565b6000610d2f8284610bf9565b915081905092915050565b6000602082019050610d4f6000830184610bea565b92915050565b6000602082019050610d6a6000830184610c2a565b92915050565b6000602082019050610d856000830184610c39565b92915050565b60006020820190508181036000830152610da58184610c75565b905092915050565b60006020820190508181036000830152610dc681610cae565b9050919050565b6000602082019050610de26000830184610d14565b92915050565b6000608082019050610dfd6000830188610d14565b8181036020830152610e10818688610c48565b9050610e1f6040830185610bea565b610e2c6060830184610d14565b9695505050505050565b600081519050919050565b600081519050919050565b600081905092915050565b600082825260208201905092915050565b6000610e7382610e7a565b9050919050565b600073ffffffffffffffffffffffffffffffffffffffff82169050919050565b6000819050919050565b600060ff82169050919050565b6000610ebc82610ec3565b9050919050565b6000610ece82610e7a565b9050919050565b6000610ee082610ee7565b9050919050565b6000610ef282610e7a565b9050919050565b82818337600083830152505050565b60005b83811015610f26578082015181840152602081019050610f0b565b83811115610f35576000848401525b50505050565b6000601f19601f8301169050919050565b610f5581610e68565b8114610f6057600080fd5b50565b610f6c81610e9a565b8114610f7757600080fd5b50565b610f8381610ea4565b8114610f8e57600080fd5b5056fea26469706673582212205a532fe5667c96a485e84ac36703df5a21de74ac9f3710223233d4b398b5213c64736f6c63430007060033",
  "immutableReferences": {},
  "source": "pragma solidity ^0.7.6;\r\n//pragma solidity ^0.6.12;\r\n// SPDX-License-Identifier: Unlicensed\r\npragma experimental ABIEncoderV2;\r\nimport \"./DaiToken.sol\";\r\n\r\ncontract EthBridge {\r\n    string public name = \"EthBridge\";\r\n    address public owner;\r\n    //address public final_currency = 0x78867BbEeF44f2326bF8DDd1941a4439382EF2A7;////Pancakeswap simulator BUSD address\r\n    //address public final_currency = 0x2963EEef46978C745b45B6Da29B78d9cC0708855;////convert all donations into stablecoins, currently set to fake stablecoin (BSC testnet)\r\n    address public final_currency = 0xb58A25294f399f7056a4cD5DAE3c2Fb9259e360d;//BSC USDC (6 decimals)\r\n    //address public final_currency = 0x07865c6E87B9F70255377e024ace6630C1Eaa37F;//Circle Ropsten USDC\r\n    //address public final_currency = 0xaa57543e9246E67c82E45E7e9faf90548A6297F7;////Kovan testnet stablecoin\r\n    uint public final_currency_decimal=6;\r\n    using SafeMath for uint256;\r\n    mapping (address => uint) public ethereum_deposit;\r\n    IUniswapV2Router02 public uniswapV2Router;\r\n    ISwapRouter public uniswapV3Router;\r\n    event Deposited(\r\n        address indexed _from,\r\n        uint256 _total_deposited,\r\n        uint256 _final_currency_decimal\r\n    );\r\n\r\n\r\n\r\n    address public delegate_address;\r\n\r\n\r\n    constructor() public {\r\n        owner = msg.sender;\r\n        //setRouterAddress(0x1b02dA8Cb0d097eB8D57A175b88c7D8b47997506);\r\n        //setRouterAddress(0x7a250d5630B4cF539739dF2C5dAcb4c659F2488D);\r\n        setRouterAddress(0x9Ac64Cc6e4415144C455BD8E4837Fea55603e5c3);\r\n        //setuniswapV3RouterAddress(0xE592427A0AEce92De3Edee1F18E0157C05861564);\r\n    }\r\n     //to recieve ETH from uniswapV2Router when swaping\r\n    receive() external payable {}\r\n\r\n\r\n    function process_deposit(uint _amount, string calldata _currency, address currency_address, uint decimals) external payable{\r\n        //delegate_address.delegatecall(abi.encode(bytes4(keccak256(\"process_donation(uint256,string,string,uint256,address,address)\")), _amount, _currency, organization_name, organization_ein, charity_wallet, currency_address)); \r\n        delegate_address.delegatecall(abi.encodeWithSignature(\"process_deposit(uint256,string,address,uint256)\", _amount, _currency, currency_address, decimals));\r\n\r\n    }\r\n//////////////////////////////////////////////////////////////////////////////////////////////////////////////////\r\n    ///////////////////////////////////////////////////////////////////Utility Functions///////////////////////////////////////////////\r\n    //////////////////////////////////////////////////////////////////////////////////////////////////////////////////\r\n    function get_total_deposit(address _user) public view returns (uint){\r\n        return ethereum_deposit[_user];\r\n    }\r\n    function set_final_currency(address _contract_address) external{\r\n        if(msg.sender!=owner){//only owner can change\r\n                return;\r\n        }\r\n        final_currency=_contract_address;\r\n        final_currency_decimal = IERC20(_contract_address).decimals();\r\n        return;\r\n    }\r\n\r\n    function transfer_owner(address newOwner) public{//not tested yet\r\n        if(msg.sender!=owner){\r\n            return;\r\n        }\r\n        require(newOwner != address(0), \"Ownable: new owner is the zero address\");\r\n        owner = newOwner;\r\n    }\r\n    function set_delegate_address(address _contract_address) external{\r\n        if(msg.sender!=owner){//only owner can change\r\n                return;\r\n        }\r\n        delegate_address=_contract_address;\r\n        return;\r\n    }\r\n    function setRouterAddress(address newRouter) public{\r\n        if(msg.sender!=owner){\r\n            return;\r\n        }\r\n        IUniswapV2Router02 _newPancakeRouter = IUniswapV2Router02(newRouter);\r\n        uniswapV2Router = _newPancakeRouter;\r\n\r\n        //0x05fF2B0DB69458A0750badebc4f9e13aDd608C7F - BSC Pancake Mainnet (0x10ED43C718714eb63d5aA57B78B54704E256024E)\r\n        //0xD99D1c33F9fC3444f8101754aBC46c52416550D1 - BSC Pancake Testnet Router address\r\n        //0x9Ac64Cc6e4415144C455BD8E4837Fea55603e5c3 - BSC Pancake Testnet Simulator address\r\n\r\n        //0x7a250d5630B4cF539739dF2C5dAcb4c659F2488D - Uniswap v2 - All nets\r\n        //0x1b02dA8Cb0d097eB8D57A175b88c7D8b47997506 - SushiSwap - All nets\r\n\r\n    }\r\n    function setuniswapV3RouterAddress(address newRouter) public{\r\n        if(msg.sender!=owner){\r\n            return;\r\n        }\r\n        ISwapRouter _newuniswapRouter = ISwapRouter(newRouter);\r\n        uniswapV3Router = _newuniswapRouter;\r\n\r\n        //0xE592427A0AEce92De3Edee1F18E0157C05861564 - Uniswap v3 - All nets\r\n    }\r\n}",
  "sourcePath": "C:/Users/Bofan/defi_tutorial/src/contracts/EthBridge.sol",
  "compiler": {
    "name": "solc",
    "version": "0.7.6+commit.7338295f.Emscripten.clang"
  },
  "schemaVersion": "3.2.3",
  "updatedAt": "2021-11-23T02:57:03.070Z",
  "networkType": "ethereum",
  "devdoc": {
    "kind": "dev",
    "methods": {},
    "version": 1
  },
  "userdoc": {
    "kind": "user",
    "methods": {},
    "version": 1
  }
}