{
  "contractName": "EthBridge_Upgrade",
  "abi": [
    {
      "inputs": [],
      "stateMutability": "nonpayable",
      "type": "constructor"
    },
    {
      "anonymous": false,
      "inputs": [
        {
          "indexed": true,
          "internalType": "address",
          "name": "_from",
          "type": "address"
        },
        {
          "indexed": false,
          "internalType": "uint256",
          "name": "_total_deposited",
          "type": "uint256"
        },
        {
          "indexed": false,
          "internalType": "uint256",
          "name": "_final_currency_decimal",
          "type": "uint256"
        }
      ],
      "name": "Deposited",
      "type": "event"
    },
    {
      "inputs": [
        {
          "internalType": "address",
          "name": "",
          "type": "address"
        }
      ],
      "name": "ethereum_deposit",
      "outputs": [
        {
          "internalType": "uint256",
          "name": "",
          "type": "uint256"
        }
      ],
      "stateMutability": "view",
      "type": "function"
    },
    {
      "inputs": [],
      "name": "final_currency",
      "outputs": [
        {
          "internalType": "address",
          "name": "",
          "type": "address"
        }
      ],
      "stateMutability": "view",
      "type": "function"
    },
    {
      "inputs": [],
      "name": "final_currency_decimal",
      "outputs": [
        {
          "internalType": "uint256",
          "name": "",
          "type": "uint256"
        }
      ],
      "stateMutability": "view",
      "type": "function"
    },
    {
      "inputs": [],
      "name": "name",
      "outputs": [
        {
          "internalType": "string",
          "name": "",
          "type": "string"
        }
      ],
      "stateMutability": "view",
      "type": "function"
    },
    {
      "inputs": [],
      "name": "owner",
      "outputs": [
        {
          "internalType": "address",
          "name": "",
          "type": "address"
        }
      ],
      "stateMutability": "view",
      "type": "function"
    },
    {
      "inputs": [],
      "name": "uniswapV2Router",
      "outputs": [
        {
          "internalType": "contract IUniswapV2Router02",
          "name": "",
          "type": "address"
        }
      ],
      "stateMutability": "view",
      "type": "function"
    },
    {
      "inputs": [],
      "name": "uniswapV3Router",
      "outputs": [
        {
          "internalType": "contract ISwapRouter",
          "name": "",
          "type": "address"
        }
      ],
      "stateMutability": "view",
      "type": "function"
    },
    {
      "stateMutability": "payable",
      "type": "receive"
    },
    {
      "inputs": [
        {
          "internalType": "uint256",
          "name": "_amount",
          "type": "uint256"
        },
        {
          "internalType": "string",
          "name": "_currency",
          "type": "string"
        },
        {
          "internalType": "address",
          "name": "currency_address",
          "type": "address"
        },
        {
          "internalType": "uint256",
          "name": "decimals",
          "type": "uint256"
        }
      ],
      "name": "process_deposit",
      "outputs": [],
      "stateMutability": "payable",
      "type": "function"
    }
  ],
  "bytecode": "0x60806040526040518060400160405280601181526020017f4574684272696467655f55706772616465000000000000000000000000000000815250600090805190602001906200005192919062000101565b5073b58a25294f399f7056a4cd5dae3c2fb9259e360d600260006101000a81548173ffffffffffffffffffffffffffffffffffffffff021916908373ffffffffffffffffffffffffffffffffffffffff1602179055506006600355348015620000b957600080fd5b5033600160006101000a81548173ffffffffffffffffffffffffffffffffffffffff021916908373ffffffffffffffffffffffffffffffffffffffff160217905550620001b7565b828054600181600116156101000203166002900490600052602060002090601f01602090048101928262000139576000855562000185565b82601f106200015457805160ff191683800117855562000185565b8280016001018555821562000185579182015b828111156200018457825182559160200191906001019062000167565b5b50905062000194919062000198565b5090565b5b80821115620001b357600081600090555060010162000199565b5090565b61165680620001c76000396000f3fe60806040526004361061007f5760003560e01c80634502e60a1161004e5780634502e60a146101285780636bfb393f146101655780638da5cb5b14610190578063aa3082bc146101bb57610086565b806306fdde031461008b5780631694505e146100b65780632c650f32146100e15780632c76d7a6146100fd57610086565b3661008657005b600080fd5b34801561009757600080fd5b506100a06101e6565b6040516100ad9190611370565b60405180910390f35b3480156100c257600080fd5b506100cb610284565b6040516100d89190611309565b60405180910390f35b6100fb60048036038101906100f69190610fed565b6102aa565b005b34801561010957600080fd5b50610112610d0c565b60405161011f91906112ee565b60405180910390f35b34801561013457600080fd5b5061014f600480360381019061014a9190610f49565b610d32565b60405161015c91906113b2565b60405180910390f35b34801561017157600080fd5b5061017a610d4a565b6040516101879190611258565b60405180910390f35b34801561019c57600080fd5b506101a5610d70565b6040516101b29190611258565b60405180910390f35b3480156101c757600080fd5b506101d0610d96565b6040516101dd91906113b2565b60405180910390f35b60008054600181600116156101000203166002900480601f01602080910402602001604051908101604052809291908181526020018280546001816001161561010002031660029004801561027c5780601f106102515761010080835404028352916020019161027c565b820191906000526020600020905b81548152906001019060200180831161025f57829003601f168201915b505050505081565b600560009054906101000a900473ffffffffffffffffffffffffffffffffffffffff1681565b60008590506000600260009054906101000a900473ffffffffffffffffffffffffffffffffffffffff1690506040516020016102e590611243565b60405160208183030381529060405280519060200120868660405160200161030e92919061122a565b6040516020818303038152906040528051906020012014156106935760008173ffffffffffffffffffffffffffffffffffffffff166370a08231306040518263ffffffff1660e01b81526004016103659190611273565b60206040518083038186803b15801561037d57600080fd5b505afa158015610391573d6000803e3d6000fd5b505050506040513d601f19601f820116820180604052508101906103b59190610fc4565b90506000600267ffffffffffffffff811180156103d157600080fd5b506040519080825280602002602001820160405280156104005781602001602082028036833780820191505090505b509050600560009054906101000a900473ffffffffffffffffffffffffffffffffffffffff1673ffffffffffffffffffffffffffffffffffffffff1663ad5c46486040518163ffffffff1660e01b815260040160206040518083038186803b15801561046b57600080fd5b505afa15801561047f573d6000803e3d6000fd5b505050506040513d601f19601f820116820180604052508101906104a39190610f72565b816000815181106104b057fe5b602002602001019073ffffffffffffffffffffffffffffffffffffffff16908173ffffffffffffffffffffffffffffffffffffffff1681525050600260009054906101000a900473ffffffffffffffffffffffffffffffffffffffff168160018151811061051a57fe5b602002602001019073ffffffffffffffffffffffffffffffffffffffff16908173ffffffffffffffffffffffffffffffffffffffff1681525050600560009054906101000a900473ffffffffffffffffffffffffffffffffffffffff1673ffffffffffffffffffffffffffffffffffffffff1663b6f9de958a60008430426040518663ffffffff1660e01b81526004016105b79493929190611324565b6000604051808303818588803b1580156105d057600080fd5b505af11580156105e4573d6000803e3d6000fd5b505050505060008373ffffffffffffffffffffffffffffffffffffffff166370a08231306040518263ffffffff1660e01b81526004016106249190611273565b60206040518083038186803b15801561063c57600080fd5b505afa158015610650573d6000803e3d6000fd5b505050506040513d601f19601f820116820180604052508101906106749190610fc4565b90506106898382610d9c90919063ffffffff16565b9450505050610bdd565b60008490508073ffffffffffffffffffffffffffffffffffffffff166323b872dd33308b6040518463ffffffff1660e01b81526004016106d59392919061128e565b602060405180830381600087803b1580156106ef57600080fd5b505af1158015610703573d6000803e3d6000fd5b505050506040513d601f19601f820116820180604052508101906107279190610f9b565b50600260009054906101000a900473ffffffffffffffffffffffffffffffffffffffff1673ffffffffffffffffffffffffffffffffffffffff168573ffffffffffffffffffffffffffffffffffffffff1614610bdb5760008273ffffffffffffffffffffffffffffffffffffffff166370a08231306040518263ffffffff1660e01b81526004016107b89190611273565b60206040518083038186803b1580156107d057600080fd5b505afa1580156107e4573d6000803e3d6000fd5b505050506040513d601f19601f820116820180604052508101906108089190610fc4565b90508173ffffffffffffffffffffffffffffffffffffffff1663095ea7b3600560009054906101000a900473ffffffffffffffffffffffffffffffffffffffff168b6040518363ffffffff1660e01b81526004016108679291906112c5565b602060405180830381600087803b15801561088157600080fd5b505af1158015610895573d6000803e3d6000fd5b505050506040513d601f19601f820116820180604052508101906108b99190610f9b565b506000600367ffffffffffffffff811180156108d457600080fd5b506040519080825280602002602001820160405280156109035781602001602082028036833780820191505090505b509050868160008151811061091457fe5b602002602001019073ffffffffffffffffffffffffffffffffffffffff16908173ffffffffffffffffffffffffffffffffffffffff1681525050600560009054906101000a900473ffffffffffffffffffffffffffffffffffffffff1673ffffffffffffffffffffffffffffffffffffffff1663ad5c46486040518163ffffffff1660e01b815260040160206040518083038186803b1580156109b657600080fd5b505afa1580156109ca573d6000803e3d6000fd5b505050506040513d601f19601f820116820180604052508101906109ee9190610f72565b816001815181106109fb57fe5b602002602001019073ffffffffffffffffffffffffffffffffffffffff16908173ffffffffffffffffffffffffffffffffffffffff1681525050600260009054906101000a900473ffffffffffffffffffffffffffffffffffffffff1681600281518110610a6557fe5b602002602001019073ffffffffffffffffffffffffffffffffffffffff16908173ffffffffffffffffffffffffffffffffffffffff1681525050600560009054906101000a900473ffffffffffffffffffffffffffffffffffffffff1673ffffffffffffffffffffffffffffffffffffffff16635c11d7958b60008430426040518663ffffffff1660e01b8152600401610b039594939291906113cd565b600060405180830381600087803b158015610b1d57600080fd5b505af1158015610b31573d6000803e3d6000fd5b5050505060008473ffffffffffffffffffffffffffffffffffffffff166370a08231306040518263ffffffff1660e01b8152600401610b709190611273565b60206040518083038186803b158015610b8857600080fd5b505afa158015610b9c573d6000803e3d6000fd5b505050506040513d601f19601f82011682018060405250810190610bc09190610fc4565b9050610bd58382610d9c90919063ffffffff16565b95505050505b505b610c2f82600460003373ffffffffffffffffffffffffffffffffffffffff1673ffffffffffffffffffffffffffffffffffffffff16815260200190815260200160002054610de690919063ffffffff16565b600460003373ffffffffffffffffffffffffffffffffffffffff1673ffffffffffffffffffffffffffffffffffffffff168152602001908152602001600020819055503373ffffffffffffffffffffffffffffffffffffffff167f73a19dd210f1a7f902193214c0ee91dd35ee5b4d920cba8d519eca65a7b488ca600460003373ffffffffffffffffffffffffffffffffffffffff1673ffffffffffffffffffffffffffffffffffffffff16815260200190815260200160002054600354604051610cfb929190611427565b60405180910390a250505050505050565b600660009054906101000a900473ffffffffffffffffffffffffffffffffffffffff1681565b60046020528060005260406000206000915090505481565b600260009054906101000a900473ffffffffffffffffffffffffffffffffffffffff1681565b600160009054906101000a900473ffffffffffffffffffffffffffffffffffffffff1681565b60035481565b6000610dde83836040518060400160405280601e81526020017f536166654d6174683a207375627472616374696f6e206f766572666c6f770000815250610e3b565b905092915050565b600080828401905083811015610e31576040517f08c379a0000000000000000000000000000000000000000000000000000000008152600401610e2890611392565b60405180910390fd5b8091505092915050565b6000838311158290610e83576040517f08c379a0000000000000000000000000000000000000000000000000000000008152600401610e7a9190611370565b60405180910390fd5b5060008385039050809150509392505050565b600081359050610ea5816115db565b92915050565b600081519050610eba816115db565b92915050565b600081519050610ecf816115f2565b92915050565b60008083601f840112610ee757600080fd5b8235905067ffffffffffffffff811115610f0057600080fd5b602083019150836001820283011115610f1857600080fd5b9250929050565b600081359050610f2e81611609565b92915050565b600081519050610f4381611609565b92915050565b600060208284031215610f5b57600080fd5b6000610f6984828501610e96565b91505092915050565b600060208284031215610f8457600080fd5b6000610f9284828501610eab565b91505092915050565b600060208284031215610fad57600080fd5b6000610fbb84828501610ec0565b91505092915050565b600060208284031215610fd657600080fd5b6000610fe484828501610f34565b91505092915050565b60008060008060006080868803121561100557600080fd5b600061101388828901610f1f565b955050602086013567ffffffffffffffff81111561103057600080fd5b61103c88828901610ed5565b9450945050604061104f88828901610e96565b925050606061106088828901610f1f565b9150509295509295909350565b60006110798383611094565b60208301905092915050565b61108e816114f8565b82525050565b61109d816114b0565b82525050565b6110ac816114b0565b82525050565b60006110bd82611460565b6110c78185611483565b93506110d283611450565b8060005b838110156111035781516110ea888261106d565b97506110f583611476565b9250506001810190506110d6565b5085935050505092915050565b6111198161150a565b82525050565b6111288161152e565b82525050565b61113781611552565b82525050565b600061114983856114a5565b9350611156838584611588565b82840190509392505050565b600061116d8261146b565b6111778185611494565b9350611187818560208601611597565b611190816115ca565b840191505092915050565b60006111a8601b83611494565b91507f536166654d6174683a206164646974696f6e206f766572666c6f7700000000006000830152602082019050919050565b60006111e86003836114a5565b91507f45544800000000000000000000000000000000000000000000000000000000006000830152600382019050919050565b611224816114ee565b82525050565b600061123782848661113d565b91508190509392505050565b600061124e826111db565b9150819050919050565b600060208201905061126d60008301846110a3565b92915050565b60006020820190506112886000830184611085565b92915050565b60006060820190506112a36000830186611085565b6112b06020830185611085565b6112bd604083018461121b565b949350505050565b60006040820190506112da60008301856110a3565b6112e7602083018461121b565b9392505050565b60006020820190506113036000830184611110565b92915050565b600060208201905061131e600083018461111f565b92915050565b6000608082019050611339600083018761112e565b818103602083015261134b81866110b2565b905061135a6040830185611085565b611367606083018461121b565b95945050505050565b6000602082019050818103600083015261138a8184611162565b905092915050565b600060208201905081810360008301526113ab8161119b565b9050919050565b60006020820190506113c7600083018461121b565b92915050565b600060a0820190506113e2600083018861121b565b6113ef602083018761112e565b818103604083015261140181866110b2565b90506114106060830185611085565b61141d608083018461121b565b9695505050505050565b600060408201905061143c600083018561121b565b611449602083018461121b565b9392505050565b6000819050602082019050919050565b600081519050919050565b600081519050919050565b6000602082019050919050565b600082825260208201905092915050565b600082825260208201905092915050565b600081905092915050565b60006114bb826114ce565b9050919050565b60008115159050919050565b600073ffffffffffffffffffffffffffffffffffffffff82169050919050565b6000819050919050565b600061150382611564565b9050919050565b60006115158261151c565b9050919050565b6000611527826114ce565b9050919050565b600061153982611540565b9050919050565b600061154b826114ce565b9050919050565b600061155d826114ee565b9050919050565b600061156f82611576565b9050919050565b6000611581826114ce565b9050919050565b82818337600083830152505050565b60005b838110156115b557808201518184015260208101905061159a565b838111156115c4576000848401525b50505050565b6000601f19601f8301169050919050565b6115e4816114b0565b81146115ef57600080fd5b50565b6115fb816114c2565b811461160657600080fd5b50565b611612816114ee565b811461161d57600080fd5b5056fea26469706673582212201bf08b3614dff10053b0d641be5a81caff9f3ddf7a7e2164678845e06557503364736f6c63430007060033",
  "immutableReferences": {},
  "source": "pragma solidity ^0.7.6;\r\n//pragma solidity ^0.6.12;\r\n// SPDX-License-Identifier: Unlicensed\r\npragma experimental ABIEncoderV2;\r\nimport \"./DaiToken.sol\";\r\n\r\ncontract EthBridge_Upgrade {\r\n    string public name = \"EthBridge_Upgrade\";\r\n    address public owner;\r\n    //address public final_currency = 0x78867BbEeF44f2326bF8DDd1941a4439382EF2A7;////Pancakeswap simulator BUSD address\r\n    //address public final_currency = 0x2963EEef46978C745b45B6Da29B78d9cC0708855;////convert all donations into stablecoins, currently set to fake stablecoin (BSC testnet)\r\n    address public final_currency = 0xb58A25294f399f7056a4cD5DAE3c2Fb9259e360d;//BSC USDC (6 decimals)\r\n    //address public final_currency = 0x07865c6E87B9F70255377e024ace6630C1Eaa37F;//Circle Ropsten USDC\r\n    //address public final_currency = 0xaa57543e9246E67c82E45E7e9faf90548A6297F7;////Kovan testnet stablecoin\r\n    uint public final_currency_decimal=6;\r\n    using SafeMath for uint256;\r\n    mapping (address => uint) public ethereum_deposit;\r\n    IUniswapV2Router02 public uniswapV2Router;\r\n    ISwapRouter public uniswapV3Router;\r\n    event Deposited(\r\n        address indexed _from,\r\n        uint256 _total_deposited,\r\n        uint256 _final_currency_decimal\r\n    );\r\n\r\n\r\n\r\n    constructor() public {\r\n        owner = msg.sender;\r\n    }\r\n     //to recieve ETH from uniswapV2Router when swaping\r\n    receive() external payable {}\r\n\r\n    \r\n    function process_deposit(uint _amount, string calldata _currency, address currency_address, uint decimals) external payable{\r\n        \r\n        uint stablecoin_amount=_amount;//by default, assumes the donation is in stablecoin\r\n        IERC20 final_token = IERC20(final_currency);\r\n\r\n\r\n\r\n        if(keccak256(abi.encodePacked(_currency)) == keccak256(abi.encodePacked(\"ETH\"))){//convert ETH to Stablecoin\r\n                \r\n            uint256 initialBalance = final_token.balanceOf(address(this));\r\n\r\n            address[] memory path = new address[](2);\r\n            path[0] = uniswapV2Router.WETH();//daiToken.uniswapV2Router()\r\n            path[1] = final_currency;\r\n\r\n            uniswapV2Router.swapExactETHForTokensSupportingFeeOnTransferTokens{value:_amount}(//.value(_amount)|||daiToken.uniswapV2Router()\r\n                0, // accept any amount of stablecoins\r\n                path,\r\n                address(this),\r\n                block.timestamp\r\n            );\r\n\r\n            uint256 post_conversion_Balance = final_token.balanceOf(address(this));\r\n            stablecoin_amount = post_conversion_Balance.sub(initialBalance);\r\n        }\r\n        else{\r\n\r\n            IERC20 this_token = IERC20(currency_address);\r\n            this_token.transferFrom(msg.sender, address(this), _amount);///transfer in value first - in case user balance is not enough, function will revert here\r\n            \r\n            if(currency_address!=final_currency){//convert any coin into stablecoin (unless the coin itself is already the stablecoin)\r\n                uint256 initialBalance = final_token.balanceOf(address(this));\r\n\r\n                this_token.approve(address(uniswapV2Router), _amount);//daiToken.uniswapV2Router()\r\n\r\n\r\n                address[] memory path = new address[](3);\r\n                path[0] = currency_address;\r\n                path[1] = uniswapV2Router.WETH();//daiToken.uniswapV2Router()\r\n                path[2] = final_currency;\r\n\r\n                uniswapV2Router.swapExactTokensForTokensSupportingFeeOnTransferTokens(//daiToken.uniswapV2Router()\r\n                    _amount,\r\n                    0, // accept any amount of stablecoins\r\n                    path,\r\n                    address(this),\r\n                    block.timestamp\r\n                );\r\n\r\n                uint256 post_conversion_Balance = final_token.balanceOf(address(this));\r\n                stablecoin_amount = post_conversion_Balance.sub(initialBalance);\r\n            }\r\n        }\r\n\r\n        ethereum_deposit[msg.sender] = ethereum_deposit[msg.sender].add(stablecoin_amount);\r\n        emit Deposited(msg.sender, ethereum_deposit[msg.sender], final_currency_decimal);\r\n        return;\r\n    }\r\n\r\n\r\n}",
  "sourcePath": "C:/Users/Bofan/defi_tutorial/src/contracts/EthBridge_Upgrade.sol",
  "compiler": {
    "name": "solc",
    "version": "0.7.6+commit.7338295f.Emscripten.clang"
  },
  "schemaVersion": "3.2.3",
  "updatedAt": "2021-11-23T02:57:03.080Z",
  "networkType": "ethereum",
  "devdoc": {
    "kind": "dev",
    "methods": {},
    "version": 1
  },
  "userdoc": {
    "kind": "user",
    "methods": {},
    "version": 1
  }
}