{
  "contractName": "MaticBridge",
  "abi": [
    {
      "inputs": [],
      "stateMutability": "nonpayable",
      "type": "constructor"
    },
    {
      "anonymous": false,
      "inputs": [
        {
          "indexed": true,
          "internalType": "address",
          "name": "_from",
          "type": "address"
        },
        {
          "indexed": true,
          "internalType": "uint256",
          "name": "_wire_count",
          "type": "uint256"
        },
        {
          "indexed": false,
          "internalType": "uint256",
          "name": "_withdraw_amount",
          "type": "uint256"
        },
        {
          "indexed": false,
          "internalType": "uint256",
          "name": "timestamp",
          "type": "uint256"
        }
      ],
      "name": "Wire_Withdraw",
      "type": "event"
    },
    {
      "inputs": [
        {
          "internalType": "address",
          "name": "",
          "type": "address"
        }
      ],
      "name": "available_balance",
      "outputs": [
        {
          "internalType": "uint256",
          "name": "",
          "type": "uint256"
        }
      ],
      "stateMutability": "view",
      "type": "function"
    },
    {
      "inputs": [],
      "name": "collected_transaction_fees",
      "outputs": [
        {
          "internalType": "uint256",
          "name": "",
          "type": "uint256"
        }
      ],
      "stateMutability": "view",
      "type": "function"
    },
    {
      "inputs": [],
      "name": "donation_transaction_fee",
      "outputs": [
        {
          "internalType": "uint256",
          "name": "",
          "type": "uint256"
        }
      ],
      "stateMutability": "view",
      "type": "function"
    },
    {
      "inputs": [
        {
          "internalType": "address",
          "name": "",
          "type": "address"
        },
        {
          "internalType": "uint256",
          "name": "",
          "type": "uint256"
        }
      ],
      "name": "donation_transactions",
      "outputs": [
        {
          "internalType": "uint256",
          "name": "amount",
          "type": "uint256"
        },
        {
          "internalType": "uint256",
          "name": "received_amount",
          "type": "uint256"
        },
        {
          "internalType": "uint256",
          "name": "date",
          "type": "uint256"
        },
        {
          "internalType": "string",
          "name": "org_name",
          "type": "string"
        },
        {
          "internalType": "address",
          "name": "donor_address",
          "type": "address"
        }
      ],
      "stateMutability": "view",
      "type": "function"
    },
    {
      "inputs": [
        {
          "internalType": "address",
          "name": "",
          "type": "address"
        }
      ],
      "name": "ethereum_deposit",
      "outputs": [
        {
          "internalType": "uint256",
          "name": "",
          "type": "uint256"
        }
      ],
      "stateMutability": "view",
      "type": "function"
    },
    {
      "inputs": [],
      "name": "name",
      "outputs": [
        {
          "internalType": "string",
          "name": "",
          "type": "string"
        }
      ],
      "stateMutability": "view",
      "type": "function"
    },
    {
      "inputs": [],
      "name": "owner",
      "outputs": [
        {
          "internalType": "address",
          "name": "",
          "type": "address"
        }
      ],
      "stateMutability": "view",
      "type": "function"
    },
    {
      "inputs": [
        {
          "internalType": "address",
          "name": "",
          "type": "address"
        },
        {
          "internalType": "uint256",
          "name": "",
          "type": "uint256"
        }
      ],
      "name": "token_holder_donations",
      "outputs": [
        {
          "internalType": "uint256",
          "name": "amount",
          "type": "uint256"
        },
        {
          "internalType": "uint256",
          "name": "received_amount",
          "type": "uint256"
        },
        {
          "internalType": "uint256",
          "name": "date",
          "type": "uint256"
        },
        {
          "internalType": "string",
          "name": "org_name",
          "type": "string"
        },
        {
          "internalType": "address",
          "name": "donor_address",
          "type": "address"
        }
      ],
      "stateMutability": "view",
      "type": "function"
    },
    {
      "inputs": [],
      "name": "total_withdraw_count",
      "outputs": [
        {
          "internalType": "uint256",
          "name": "",
          "type": "uint256"
        }
      ],
      "stateMutability": "view",
      "type": "function"
    },
    {
      "inputs": [
        {
          "internalType": "address",
          "name": "",
          "type": "address"
        }
      ],
      "name": "wire_withdraw",
      "outputs": [
        {
          "internalType": "uint256",
          "name": "",
          "type": "uint256"
        }
      ],
      "stateMutability": "view",
      "type": "function"
    },
    {
      "inputs": [],
      "name": "wire_withdraw_count",
      "outputs": [
        {
          "internalType": "uint256",
          "name": "",
          "type": "uint256"
        }
      ],
      "stateMutability": "view",
      "type": "function"
    },
    {
      "stateMutability": "payable",
      "type": "receive"
    },
    {
      "inputs": [
        {
          "internalType": "uint256",
          "name": "total_deposit_value",
          "type": "uint256"
        },
        {
          "internalType": "address",
          "name": "deposit_user",
          "type": "address"
        }
      ],
      "name": "sync_deposit",
      "outputs": [],
      "stateMutability": "payable",
      "type": "function"
    },
    {
      "inputs": [
        {
          "internalType": "uint256",
          "name": "_amount_to_pay",
          "type": "uint256"
        },
        {
          "internalType": "address",
          "name": "receiver",
          "type": "address"
        },
        {
          "internalType": "string",
          "name": "receiver_name",
          "type": "string"
        }
      ],
      "name": "transact",
      "outputs": [],
      "stateMutability": "nonpayable",
      "type": "function"
    },
    {
      "inputs": [
        {
          "internalType": "uint256",
          "name": "_amount",
          "type": "uint256"
        }
      ],
      "name": "withdraw",
      "outputs": [],
      "stateMutability": "nonpayable",
      "type": "function"
    },
    {
      "inputs": [
        {
          "internalType": "address",
          "name": "_user",
          "type": "address"
        }
      ],
      "name": "get_total_deposit",
      "outputs": [
        {
          "internalType": "uint256",
          "name": "",
          "type": "uint256"
        }
      ],
      "stateMutability": "view",
      "type": "function"
    },
    {
      "inputs": [
        {
          "internalType": "address",
          "name": "_user",
          "type": "address"
        }
      ],
      "name": "get_available_balance",
      "outputs": [
        {
          "internalType": "uint256",
          "name": "",
          "type": "uint256"
        }
      ],
      "stateMutability": "view",
      "type": "function"
    },
    {
      "inputs": [
        {
          "internalType": "address",
          "name": "_user",
          "type": "address"
        }
      ],
      "name": "get_total_wire_withdraw",
      "outputs": [
        {
          "internalType": "uint256",
          "name": "",
          "type": "uint256"
        }
      ],
      "stateMutability": "view",
      "type": "function"
    },
    {
      "inputs": [
        {
          "internalType": "address",
          "name": "fetch_account",
          "type": "address"
        },
        {
          "internalType": "uint256",
          "name": "fetch_type",
          "type": "uint256"
        }
      ],
      "name": "get_donation_transactions",
      "outputs": [
        {
          "components": [
            {
              "internalType": "uint256",
              "name": "amount",
              "type": "uint256"
            },
            {
              "internalType": "uint256",
              "name": "received_amount",
              "type": "uint256"
            },
            {
              "internalType": "uint256",
              "name": "date",
              "type": "uint256"
            },
            {
              "internalType": "string",
              "name": "org_name",
              "type": "string"
            },
            {
              "internalType": "address",
              "name": "donor_address",
              "type": "address"
            }
          ],
          "internalType": "struct MaticBridge.donation_transaction[]",
          "name": "",
          "type": "tuple[]"
        }
      ],
      "stateMutability": "view",
      "type": "function"
    },
    {
      "inputs": [],
      "name": "get_collected_transaction_fees",
      "outputs": [
        {
          "internalType": "uint256",
          "name": "",
          "type": "uint256"
        }
      ],
      "stateMutability": "view",
      "type": "function"
    },
    {
      "inputs": [
        {
          "internalType": "uint256",
          "name": "_new_fee",
          "type": "uint256"
        }
      ],
      "name": "set_donation_transaction_fee",
      "outputs": [],
      "stateMutability": "nonpayable",
      "type": "function"
    }
  ],
  "bytecode": "0x60806040526040518060400160405280600b81526020017f4d617469634272696467650000000000000000000000000000000000000000008152506000908051906020019062000051929190620000a7565b503480156200005f57600080fd5b5033600160006101000a81548173ffffffffffffffffffffffffffffffffffffffff021916908373ffffffffffffffffffffffffffffffffffffffff1602179055506200015d565b828054600181600116156101000203166002900490600052602060002090601f016020900481019282620000df57600085556200012b565b82601f10620000fa57805160ff19168380011785556200012b565b828001600101855582156200012b579182015b828111156200012a5782518255916020019190600101906200010d565b5b5090506200013a91906200013e565b5090565b5b80821115620001595760008160009055506001016200013f565b5090565b611f84806200016d6000396000f3fe6080604052600436106101235760003560e01c80638da5cb5b116100a0578063d8c325f511610064578063d8c325f51461045a578063dfc4b8c914610485578063e3edb0c0146104b0578063e6e0f503146104db578063f2b7786f146104f75761012a565b80638da5cb5b1461034b5780638e8a8d611461037657806398f0cf31146103b3578063af49fd89146103f0578063d79ec0d9146104315761012a565b8063357a1a78116100e7578063357a1a781461022c5780634502e60a1461026957806359730650146102a657806374e039ef146102e35780637a09dc4e146103205761012a565b8063049b96b51461012f57806306fdde03146101705780632a4ed1431461019b5780632e1a7d4d146101d85780633133efa9146102015761012a565b3661012a57005b600080fd5b34801561013b57600080fd5b506101566004803603810190610151919061193d565b610520565b604051610167959493929190611de0565b60405180910390f35b34801561017c57600080fd5b5061018561062b565b6040516101929190611d1a565b60405180910390f35b3480156101a757600080fd5b506101c260048036038101906101bd9190611914565b6106c9565b6040516101cf9190611d9c565b60405180910390f35b3480156101e457600080fd5b506101ff60048036038101906101fa9190611979565b6106e1565b005b34801561020d57600080fd5b5061021661090e565b6040516102239190611d9c565b60405180910390f35b34801561023857600080fd5b50610253600480360381019061024e9190611914565b610914565b6040516102609190611d9c565b60405180910390f35b34801561027557600080fd5b50610290600480360381019061028b9190611914565b61095d565b60405161029d9190611d9c565b60405180910390f35b3480156102b257600080fd5b506102cd60048036038101906102c89190611914565b610975565b6040516102da9190611d9c565b60405180910390f35b3480156102ef57600080fd5b5061030a60048036038101906103059190611914565b61098d565b6040516103179190611d9c565b60405180910390f35b34801561032c57600080fd5b506103356109d6565b6040516103429190611d9c565b60405180910390f35b34801561035757600080fd5b506103606109dc565b60405161036d9190611cdd565b60405180910390f35b34801561038257600080fd5b5061039d60048036038101906103989190611914565b610a02565b6040516103aa9190611d9c565b60405180910390f35b3480156103bf57600080fd5b506103da60048036038101906103d5919061193d565b610a4b565b6040516103e79190611cf8565b60405180910390f35b3480156103fc57600080fd5b506104176004803603810190610412919061193d565b610dbc565b604051610428959493929190611de0565b60405180910390f35b34801561043d57600080fd5b50610458600480360381019061045391906119de565b610ec7565b005b34801561046657600080fd5b5061046f610fa8565b60405161047c9190611d9c565b60405180910390f35b34801561049157600080fd5b5061049a610fae565b6040516104a79190611d9c565b60405180910390f35b3480156104bc57600080fd5b506104c5610fb8565b6040516104d29190611d9c565b60405180910390f35b6104f560048036038101906104f091906119a2565b610fbe565b005b34801561050357600080fd5b5061051e60048036038101906105199190611979565b611195565b005b6006602052816000526040600020818154811061053c57600080fd5b906000526020600020906005020160009150915050806000015490806001015490806002015490806003018054600181600116156101000203166002900480601f0160208091040260200160405190810160405280929190818152602001828054600181600116156101000203166002900480156105fb5780601f106105d0576101008083540402835291602001916105fb565b820191906000526020600020905b8154815290600101906020018083116105de57829003601f168201915b5050505050908060040160009054906101000a900473ffffffffffffffffffffffffffffffffffffffff16905085565b60008054600181600116156101000203166002900480601f0160208091040260200160405190810160405280929190818152602001828054600181600116156101000203166002900480156106c15780601f10610696576101008083540402835291602001916106c1565b820191906000526020600020905b8154815290600101906020018083116106a457829003601f168201915b505050505081565b60036020528060005260406000206000915090505481565b600360003373ffffffffffffffffffffffffffffffffffffffff1673ffffffffffffffffffffffffffffffffffffffff16815260200190815260200160002054811115610763576040517f08c379a000000000000000000000000000000000000000000000000000000000815260040161075a90611d5c565b60405180910390fd5b6001600954016009819055506001600a5401600a819055506107cd81600360003373ffffffffffffffffffffffffffffffffffffffff1673ffffffffffffffffffffffffffffffffffffffff168152602001908152602001600020546111fa90919063ffffffff16565b600360003373ffffffffffffffffffffffffffffffffffffffff1673ffffffffffffffffffffffffffffffffffffffff1681526020019081526020016000208190555061086281600460003373ffffffffffffffffffffffffffffffffffffffff1673ffffffffffffffffffffffffffffffffffffffff1681526020019081526020016000205461124490919063ffffffff16565b600460003373ffffffffffffffffffffffffffffffffffffffff1673ffffffffffffffffffffffffffffffffffffffff168152602001908152602001600020819055506108bb6001600a546111fa90919063ffffffff16565b3373ffffffffffffffffffffffffffffffffffffffff167fe7f4f7e081ab21b1061407632bcf910aec96df6b84c22f8fed633b1d61207a8b8342604051610903929190611db7565b60405180910390a350565b60085481565b6000600260008373ffffffffffffffffffffffffffffffffffffffff1673ffffffffffffffffffffffffffffffffffffffff168152602001908152602001600020549050919050565b60026020528060005260406000206000915090505481565b60046020528060005260406000206000915090505481565b6000600460008373ffffffffffffffffffffffffffffffffffffffff1673ffffffffffffffffffffffffffffffffffffffff168152602001908152602001600020549050919050565b600a5481565b600160009054906101000a900473ffffffffffffffffffffffffffffffffffffffff1681565b6000600360008373ffffffffffffffffffffffffffffffffffffffff1673ffffffffffffffffffffffffffffffffffffffff168152602001908152602001600020549050919050565b60606000821415610c0857600560008473ffffffffffffffffffffffffffffffffffffffff1673ffffffffffffffffffffffffffffffffffffffff168152602001908152602001600020805480602002602001604051908101604052809291908181526020016000905b82821015610bfd57838290600052602060002090600502016040518060a0016040529081600082015481526020016001820154815260200160028201548152602001600382018054600181600116156101000203166002900480601f016020809104026020016040519081016040528092919081815260200182805460018160011615610100020316600290048015610b8f5780601f10610b6457610100808354040283529160200191610b8f565b820191906000526020600020905b815481529060010190602001808311610b7257829003601f168201915b505050505081526020016004820160009054906101000a900473ffffffffffffffffffffffffffffffffffffffff1673ffffffffffffffffffffffffffffffffffffffff1673ffffffffffffffffffffffffffffffffffffffff168152505081526020019060010190610ab5565b505050509050610db6565b600660008473ffffffffffffffffffffffffffffffffffffffff1673ffffffffffffffffffffffffffffffffffffffff168152602001908152602001600020805480602002602001604051908101604052809291908181526020016000905b82821015610daf57838290600052602060002090600502016040518060a0016040529081600082015481526020016001820154815260200160028201548152602001600382018054600181600116156101000203166002900480601f016020809104026020016040519081016040528092919081815260200182805460018160011615610100020316600290048015610d415780601f10610d1657610100808354040283529160200191610d41565b820191906000526020600020905b815481529060010190602001808311610d2457829003601f168201915b505050505081526020016004820160009054906101000a900473ffffffffffffffffffffffffffffffffffffffff1673ffffffffffffffffffffffffffffffffffffffff1673ffffffffffffffffffffffffffffffffffffffff168152505081526020019060010190610c67565b5050505090505b92915050565b60056020528160005260406000208181548110610dd857600080fd5b906000526020600020906005020160009150915050806000015490806001015490806002015490806003018054600181600116156101000203166002900480601f016020809104026020016040519081016040528092919081815260200182805460018160011615610100020316600290048015610e975780601f10610e6c57610100808354040283529160200191610e97565b820191906000526020600020905b815481529060010190602001808311610e7a57829003601f168201915b5050505050908060040160009054906101000a900473ffffffffffffffffffffffffffffffffffffffff16905085565b600360003373ffffffffffffffffffffffffffffffffffffffff1673ffffffffffffffffffffffffffffffffffffffff16815260200190815260200160002054841115610f49576040517f08c379a0000000000000000000000000000000000000000000000000000000008152600401610f4090611d5c565b60405180910390fd5b610f538484611299565b610fa2848484848080601f016020809104026020016040519081016040528093929190818152602001838380828437600081840152601f19601f820116905080830192505050505050506113f8565b50505050565b60075481565b6000600854905090565b60095481565b600160009054906101000a900473ffffffffffffffffffffffffffffffffffffffff1673ffffffffffffffffffffffffffffffffffffffff163373ffffffffffffffffffffffffffffffffffffffff161461101857611191565b600260008273ffffffffffffffffffffffffffffffffffffffff1673ffffffffffffffffffffffffffffffffffffffff168152602001908152602001600020548211156111905760006110b3600260008473ffffffffffffffffffffffffffffffffffffffff1673ffffffffffffffffffffffffffffffffffffffff16815260200190815260200160002054846111fa90919063ffffffff16565b905082600260008473ffffffffffffffffffffffffffffffffffffffff1673ffffffffffffffffffffffffffffffffffffffff1681526020019081526020016000208190555061114b81600360008573ffffffffffffffffffffffffffffffffffffffff1673ffffffffffffffffffffffffffffffffffffffff1681526020019081526020016000205461124490919063ffffffff16565b600360008473ffffffffffffffffffffffffffffffffffffffff1673ffffffffffffffffffffffffffffffffffffffff16815260200190815260200160002081905550505b5b5050565b600160009054906101000a900473ffffffffffffffffffffffffffffffffffffffff1673ffffffffffffffffffffffffffffffffffffffff163373ffffffffffffffffffffffffffffffffffffffff16146111ef576111f7565b806007819055505b50565b600061123c83836040518060400160405280601e81526020017f536166654d6174683a207375627472616374696f6e206f766572666c6f770000815250611627565b905092915050565b60008082840190508381101561128f576040517f08c379a000000000000000000000000000000000000000000000000000000000815260040161128690611d3c565b60405180910390fd5b8091505092915050565b60006112a483611682565b905060006112bb82856111fa90919063ffffffff16565b9050806008540160088190555061131a84600360003373ffffffffffffffffffffffffffffffffffffffff1673ffffffffffffffffffffffffffffffffffffffff168152602001908152602001600020546111fa90919063ffffffff16565b600360003373ffffffffffffffffffffffffffffffffffffffff1673ffffffffffffffffffffffffffffffffffffffff168152602001908152602001600020819055506113af82600360008673ffffffffffffffffffffffffffffffffffffffff1673ffffffffffffffffffffffffffffffffffffffff1681526020019081526020016000205461124490919063ffffffff16565b600360008573ffffffffffffffffffffffffffffffffffffffff1673ffffffffffffffffffffffffffffffffffffffff1681526020019081526020016000208190555050505050565b600061140384611682565b905060006040518060a001604052808681526020018381526020014281526020018481526020013373ffffffffffffffffffffffffffffffffffffffff168152509050600560008573ffffffffffffffffffffffffffffffffffffffff1673ffffffffffffffffffffffffffffffffffffffff16815260200190815260200160002081908060018154018082558091505060019003906000526020600020906005020160009091909190915060008201518160000155602082015181600101556040820151816002015560608201518160030190805190602001906114e99291906117f5565b5060808201518160040160006101000a81548173ffffffffffffffffffffffffffffffffffffffff021916908373ffffffffffffffffffffffffffffffffffffffff1602179055505050600660003373ffffffffffffffffffffffffffffffffffffffff1673ffffffffffffffffffffffffffffffffffffffff16815260200190815260200160002081908060018154018082558091505060019003906000526020600020906005020160009091909190915060008201518160000155602082015181600101556040820151816002015560608201518160030190805190602001906115d69291906117f5565b5060808201518160040160006101000a81548173ffffffffffffffffffffffffffffffffffffffff021916908373ffffffffffffffffffffffffffffffffffffffff16021790555050505050505050565b600083831115829061166f576040517f08c379a00000000000000000000000000000000000000000000000000000000081526004016116669190611d1a565b60405180910390fd5b5060008385039050809150509392505050565b600080612710905060006116a1600754836111fa90919063ffffffff16565b905060006116b882866116da90919063ffffffff16565b90506116cd838261174a90919063ffffffff16565b9050809350505050919050565b6000808314156116ed5760009050611744565b60008284029050828482816116fe57fe5b041461173f576040517f08c379a000000000000000000000000000000000000000000000000000000000815260040161173690611d7c565b60405180910390fd5b809150505b92915050565b600061178c83836040518060400160405280601a81526020017f536166654d6174683a206469766973696f6e206279207a65726f000000000000815250611794565b905092915050565b600080831182906117db576040517f08c379a00000000000000000000000000000000000000000000000000000000081526004016117d29190611d1a565b60405180910390fd5b5060008385816117e757fe5b049050809150509392505050565b828054600181600116156101000203166002900490600052602060002090601f01602090048101928261182b5760008555611872565b82601f1061184457805160ff1916838001178555611872565b82800160010185558215611872579182015b82811115611871578251825591602001919060010190611856565b5b50905061187f9190611883565b5090565b5b8082111561189c576000816000905550600101611884565b5090565b6000813590506118af81611f20565b92915050565b60008083601f8401126118c757600080fd5b8235905067ffffffffffffffff8111156118e057600080fd5b6020830191508360018202830111156118f857600080fd5b9250929050565b60008135905061190e81611f37565b92915050565b60006020828403121561192657600080fd5b6000611934848285016118a0565b91505092915050565b6000806040838503121561195057600080fd5b600061195e858286016118a0565b925050602061196f858286016118ff565b9150509250929050565b60006020828403121561198b57600080fd5b6000611999848285016118ff565b91505092915050565b600080604083850312156119b557600080fd5b60006119c3858286016118ff565b92505060206119d4858286016118a0565b9150509250929050565b600080600080606085870312156119f457600080fd5b6000611a02878288016118ff565b9450506020611a13878288016118a0565b935050604085013567ffffffffffffffff811115611a3057600080fd5b611a3c878288016118b5565b925092505092959194509250565b6000611a568383611c49565b905092915050565b611a6781611ea0565b82525050565b611a7681611ea0565b82525050565b6000611a8782611e4a565b611a918185611e6d565b935083602082028501611aa385611e3a565b8060005b85811015611adf5784840389528151611ac08582611a4a565b9450611acb83611e60565b925060208a01995050600181019050611aa7565b50829750879550505050505092915050565b6000611afc82611e55565b611b068185611e7e565b9350611b16818560208601611edc565b611b1f81611f0f565b840191505092915050565b6000611b3582611e55565b611b3f8185611e8f565b9350611b4f818560208601611edc565b611b5881611f0f565b840191505092915050565b6000611b70601b83611e8f565b91507f536166654d6174683a206164646974696f6e206f766572666c6f7700000000006000830152602082019050919050565b6000611bb0600f83611e8f565b91507f62616c616e636520746f6f206c6f7700000000000000000000000000000000006000830152602082019050919050565b6000611bf0602183611e8f565b91507f536166654d6174683a206d756c7469706c69636174696f6e206f766572666c6f60008301527f77000000000000000000000000000000000000000000000000000000000000006020830152604082019050919050565b600060a083016000830151611c616000860182611cbf565b506020830151611c746020860182611cbf565b506040830151611c876040860182611cbf565b5060608301518482036060860152611c9f8282611af1565b9150506080830151611cb46080860182611a5e565b508091505092915050565b611cc881611ed2565b82525050565b611cd781611ed2565b82525050565b6000602082019050611cf26000830184611a6d565b92915050565b60006020820190508181036000830152611d128184611a7c565b905092915050565b60006020820190508181036000830152611d348184611b2a565b905092915050565b60006020820190508181036000830152611d5581611b63565b9050919050565b60006020820190508181036000830152611d7581611ba3565b9050919050565b60006020820190508181036000830152611d9581611be3565b9050919050565b6000602082019050611db16000830184611cce565b92915050565b6000604082019050611dcc6000830185611cce565b611dd96020830184611cce565b9392505050565b600060a082019050611df56000830188611cce565b611e026020830187611cce565b611e0f6040830186611cce565b8181036060830152611e218185611b2a565b9050611e306080830184611a6d565b9695505050505050565b6000819050602082019050919050565b600081519050919050565b600081519050919050565b6000602082019050919050565b600082825260208201905092915050565b600082825260208201905092915050565b600082825260208201905092915050565b6000611eab82611eb2565b9050919050565b600073ffffffffffffffffffffffffffffffffffffffff82169050919050565b6000819050919050565b60005b83811015611efa578082015181840152602081019050611edf565b83811115611f09576000848401525b50505050565b6000601f19601f8301169050919050565b611f2981611ea0565b8114611f3457600080fd5b50565b611f4081611ed2565b8114611f4b57600080fd5b5056fea264697066735822122035ee1ae5793fd4adce8843839f5210e0cc9f738c201323cf61aafd97398847ea64736f6c63430007060033",
  "immutableReferences": {},
  "source": "pragma solidity ^0.7.6;\r\n//pragma solidity ^0.6.12;\r\n// SPDX-License-Identifier: Unlicensed\r\npragma experimental ABIEncoderV2;\r\nimport \"./DaiToken.sol\";\r\n\r\ncontract MaticBridge {\r\n    string public name = \"MaticBridge\";\r\n    address public owner;\r\n\r\n\r\n    using SafeMath for uint256;\r\n    mapping (address => uint) public ethereum_deposit;\r\n    mapping (address => uint) public available_balance;\r\n    mapping (address => uint) public wire_withdraw;\r\n    mapping (address => donation_transaction[]) public donation_transactions;//record-keeping for recipients\r\n    mapping (address => donation_transaction[]) public token_holder_donations;//record keeping for buyers\r\n    uint public donation_transaction_fee;//in basis points - (i.e.300)\r\n    uint public collected_transaction_fees;//in stablecoins\r\n    uint public total_withdraw_count;\r\n    uint public wire_withdraw_count;\r\n    event Wire_Withdraw(\r\n        address indexed _from,\r\n        uint256 indexed _wire_count,\r\n        uint256 _withdraw_amount,\r\n        uint256 timestamp\r\n    );\r\n\r\n\r\n    struct donation_transaction{\r\n        uint amount;\r\n        uint received_amount;\r\n        uint date;\r\n        string org_name;\r\n        address donor_address;\r\n    }\r\n\r\n\r\n\r\n    constructor() public {\r\n        owner = msg.sender;\r\n\r\n    }\r\n\r\n    receive() external payable {}\r\n\r\n\r\n    function sync_deposit(uint total_deposit_value, address deposit_user) external payable{\r\n\r\n        if(msg.sender!=owner){//only owner can add to balance\r\n            return;\r\n        }\r\n\r\n        if(total_deposit_value>ethereum_deposit[deposit_user]){\r\n            uint top_up_amount=total_deposit_value.sub(ethereum_deposit[deposit_user]);\r\n            ethereum_deposit[deposit_user]=total_deposit_value;\r\n            available_balance[deposit_user]=available_balance[deposit_user].add(top_up_amount);//top up available balance with new deposit\r\n\r\n        }\r\n    }\r\n\r\n    function transact(uint _amount_to_pay, address receiver, string calldata receiver_name) external{\r\n        require(_amount_to_pay <= available_balance[msg.sender], \"balance too low\");\r\n\r\n       /*if(available_balance[msg.sender] <_amount){//can't transact more than the available amount\r\n            return;//fail\r\n        }*/\r\n        process_money_transfer(_amount_to_pay, receiver);\r\n        store_donation_data(_amount_to_pay, receiver, receiver_name);\r\n        return;\r\n\r\n    }\r\n    function return_donation_after_fee(uint _amount) internal view returns (uint){\r\n        uint one_hundred=10000;//in basis points\r\n        uint subtract_fee=one_hundred.sub(donation_transaction_fee);\r\n        uint donation_after_fee=_amount.mul(subtract_fee);\r\n        donation_after_fee=donation_after_fee.div(one_hundred);\r\n        return donation_after_fee; \r\n    }\r\n\r\n\r\n    function process_money_transfer(uint _amount, address recipient) internal{\r\n        \r\n        uint return_donation_after_fee_calculated=return_donation_after_fee(_amount);\r\n        uint fee_allocation=_amount.sub(return_donation_after_fee_calculated);\r\n\r\n\r\n        collected_transaction_fees=collected_transaction_fees + fee_allocation;\r\n\r\n        available_balance[msg.sender]=available_balance[msg.sender].sub(_amount);\r\n        available_balance[recipient]=available_balance[recipient].add(return_donation_after_fee_calculated);\r\n    }\r\n\r\n    function store_donation_data(uint _amount, address recipient, string memory _org_name) internal{\r\n\r\n        uint return_donation_after_fee_calculated=return_donation_after_fee(_amount);\r\n\r\n        donation_transaction memory new_donation = donation_transaction({amount:_amount, received_amount:return_donation_after_fee_calculated, date:block.timestamp, org_name:_org_name, donor_address:msg.sender});\r\n\r\n        donation_transactions[recipient].push(new_donation);\r\n        token_holder_donations[msg.sender].push(new_donation);\r\n\r\n        return;\r\n    }\r\n\r\n    function withdraw(uint _amount) public{//emit external function\r\n\r\n        require(_amount <= available_balance[msg.sender], \"balance too low\");\r\n\r\n        total_withdraw_count=total_withdraw_count+1;\r\n        wire_withdraw_count=wire_withdraw_count+1;\r\n        available_balance[msg.sender] = available_balance[msg.sender].sub(_amount);\r\n        wire_withdraw[msg.sender] = wire_withdraw[msg.sender].add(_amount);\r\n\r\n        emit Wire_Withdraw(msg.sender, wire_withdraw_count.sub(1), _amount, block.timestamp);\r\n\r\n    }\r\n//////////////////////////////////////////////////////////////////////////////////////////////////////////////////\r\n    ///////////////////////////////////////////////////////////////////Utility Functions///////////////////////////////////////////////\r\n    //////////////////////////////////////////////////////////////////////////////////////////////////////////////////\r\n    function get_total_deposit(address _user) public view returns (uint){\r\n        return ethereum_deposit[_user];\r\n    }\r\n    function get_available_balance(address _user) public view returns (uint){\r\n        return available_balance[_user];\r\n    }\r\n    function get_total_wire_withdraw(address _user) public view returns (uint){\r\n        return wire_withdraw[_user];\r\n    }\r\n    function get_donation_transactions(address fetch_account, uint fetch_type) external view returns (donation_transaction[] memory){//public\r\n        if(fetch_type==0){\r\n            return donation_transactions[fetch_account];\r\n        }\r\n        else{\r\n            return token_holder_donations[fetch_account];\r\n        }\r\n    }\r\n    function get_collected_transaction_fees() public view returns (uint){\r\n        return collected_transaction_fees;\r\n    }\r\n    function set_donation_transaction_fee(uint _new_fee) external{\r\n        if(msg.sender!=owner){//only owner can change\r\n                return;\r\n        }\r\n        donation_transaction_fee=_new_fee;\r\n        return;\r\n    }\r\n}",
  "sourcePath": "C:/Users/Bofan/defi_tutorial/src/contracts/MaticBridge.sol",
  "compiler": {
    "name": "solc",
    "version": "0.7.6+commit.7338295f.Emscripten.clang"
  },
  "schemaVersion": "3.2.3",
  "updatedAt": "2021-11-23T02:57:03.096Z",
  "networkType": "ethereum",
  "devdoc": {
    "kind": "dev",
    "methods": {},
    "version": 1
  },
  "userdoc": {
    "kind": "user",
    "methods": {},
    "version": 1
  }
}