{
  "contractName": "TokenFarm",
  "abi": [
    {
      "inputs": [],
      "stateMutability": "nonpayable",
      "type": "constructor"
    },
    {
      "inputs": [],
      "name": "current_rewards_for_charities",
      "outputs": [
        {
          "internalType": "uint256",
          "name": "",
          "type": "uint256"
        }
      ],
      "stateMutability": "view",
      "type": "function"
    },
    {
      "inputs": [],
      "name": "current_rewards_for_token_holders",
      "outputs": [
        {
          "internalType": "uint256",
          "name": "",
          "type": "uint256"
        }
      ],
      "stateMutability": "view",
      "type": "function"
    },
    {
      "inputs": [],
      "name": "daiToken",
      "outputs": [
        {
          "internalType": "contract DaiToken",
          "name": "",
          "type": "address"
        }
      ],
      "stateMutability": "view",
      "type": "function"
    },
    {
      "inputs": [],
      "name": "delegate_address",
      "outputs": [
        {
          "internalType": "address",
          "name": "",
          "type": "address"
        }
      ],
      "stateMutability": "view",
      "type": "function"
    },
    {
      "inputs": [],
      "name": "initial_charity_reward_allocation",
      "outputs": [
        {
          "internalType": "uint256",
          "name": "",
          "type": "uint256"
        }
      ],
      "stateMutability": "view",
      "type": "function"
    },
    {
      "inputs": [],
      "name": "initial_token_staking_reward_allocation",
      "outputs": [
        {
          "internalType": "uint256",
          "name": "",
          "type": "uint256"
        }
      ],
      "stateMutability": "view",
      "type": "function"
    },
    {
      "inputs": [
        {
          "internalType": "address",
          "name": "",
          "type": "address"
        }
      ],
      "name": "is_admin",
      "outputs": [
        {
          "internalType": "bool",
          "name": "",
          "type": "bool"
        }
      ],
      "stateMutability": "view",
      "type": "function"
    },
    {
      "inputs": [],
      "name": "last_reward_block",
      "outputs": [
        {
          "internalType": "uint256",
          "name": "",
          "type": "uint256"
        }
      ],
      "stateMutability": "view",
      "type": "function"
    },
    {
      "inputs": [],
      "name": "minimum_distribution_threshold_charities",
      "outputs": [
        {
          "internalType": "uint256",
          "name": "",
          "type": "uint256"
        }
      ],
      "stateMutability": "view",
      "type": "function"
    },
    {
      "inputs": [],
      "name": "minimum_distribution_threshold_token_holders",
      "outputs": [
        {
          "internalType": "uint256",
          "name": "",
          "type": "uint256"
        }
      ],
      "stateMutability": "view",
      "type": "function"
    },
    {
      "inputs": [],
      "name": "name",
      "outputs": [
        {
          "internalType": "string",
          "name": "",
          "type": "string"
        }
      ],
      "stateMutability": "view",
      "type": "function"
    },
    {
      "inputs": [],
      "name": "owner",
      "outputs": [
        {
          "internalType": "address",
          "name": "",
          "type": "address"
        }
      ],
      "stateMutability": "view",
      "type": "function"
    },
    {
      "inputs": [],
      "name": "reward_interval",
      "outputs": [
        {
          "internalType": "uint256",
          "name": "",
          "type": "uint256"
        }
      ],
      "stateMutability": "view",
      "type": "function"
    },
    {
      "inputs": [
        {
          "internalType": "address",
          "name": "",
          "type": "address"
        }
      ],
      "name": "stakingAllocation",
      "outputs": [
        {
          "internalType": "uint256",
          "name": "uncollected_rewards",
          "type": "uint256"
        },
        {
          "internalType": "uint256",
          "name": "total_staked",
          "type": "uint256"
        },
        {
          "internalType": "bool",
          "name": "exists",
          "type": "bool"
        }
      ],
      "stateMutability": "view",
      "type": "function"
    },
    {
      "inputs": [],
      "name": "staking_reward_distribution_increment",
      "outputs": [
        {
          "internalType": "uint256",
          "name": "",
          "type": "uint256"
        }
      ],
      "stateMutability": "view",
      "type": "function"
    },
    {
      "inputs": [],
      "name": "total_charity_votes",
      "outputs": [
        {
          "internalType": "uint256",
          "name": "",
          "type": "uint256"
        }
      ],
      "stateMutability": "view",
      "type": "function"
    },
    {
      "inputs": [
        {
          "internalType": "string",
          "name": "_name",
          "type": "string"
        },
        {
          "internalType": "string",
          "name": "_description",
          "type": "string"
        },
        {
          "internalType": "string",
          "name": "_details",
          "type": "string"
        },
        {
          "internalType": "string",
          "name": "_url",
          "type": "string"
        },
        {
          "internalType": "uint256",
          "name": "_ein",
          "type": "uint256"
        },
        {
          "internalType": "address",
          "name": "_charity_address",
          "type": "address"
        },
        {
          "internalType": "bool",
          "name": "_is_tax_deductible",
          "type": "bool"
        }
      ],
      "name": "add_charity",
      "outputs": [
        {
          "internalType": "bool",
          "name": "",
          "type": "bool"
        }
      ],
      "stateMutability": "nonpayable",
      "type": "function"
    },
    {
      "inputs": [
        {
          "internalType": "string",
          "name": "_name",
          "type": "string"
        },
        {
          "internalType": "string",
          "name": "_description",
          "type": "string"
        },
        {
          "internalType": "string",
          "name": "_details",
          "type": "string"
        },
        {
          "internalType": "string",
          "name": "_url",
          "type": "string"
        },
        {
          "internalType": "uint256",
          "name": "_ein",
          "type": "uint256"
        },
        {
          "internalType": "address",
          "name": "_charity_address",
          "type": "address"
        },
        {
          "internalType": "address",
          "name": "_deposit_address",
          "type": "address"
        },
        {
          "internalType": "bool",
          "name": "_is_tax_deductible",
          "type": "bool"
        }
      ],
      "name": "update_charity_info",
      "outputs": [
        {
          "internalType": "bool",
          "name": "",
          "type": "bool"
        }
      ],
      "stateMutability": "nonpayable",
      "type": "function"
    },
    {
      "inputs": [
        {
          "internalType": "address",
          "name": "charity_wallet_address",
          "type": "address"
        },
        {
          "internalType": "uint256",
          "name": "_type",
          "type": "uint256"
        }
      ],
      "name": "activate_deactivate_charity",
      "outputs": [
        {
          "internalType": "bool",
          "name": "",
          "type": "bool"
        }
      ],
      "stateMutability": "nonpayable",
      "type": "function"
    },
    {
      "inputs": [
        {
          "internalType": "uint256",
          "name": "_amount",
          "type": "uint256"
        }
      ],
      "name": "transfer_tax_to_reward_pool",
      "outputs": [],
      "stateMutability": "nonpayable",
      "type": "function"
    },
    {
      "inputs": [],
      "name": "collect_staker_rewards",
      "outputs": [],
      "stateMutability": "nonpayable",
      "type": "function"
    },
    {
      "inputs": [],
      "name": "collect_charity_rewards",
      "outputs": [],
      "stateMutability": "nonpayable",
      "type": "function"
    },
    {
      "inputs": [
        {
          "internalType": "uint256",
          "name": "_amount",
          "type": "uint256"
        },
        {
          "internalType": "uint256",
          "name": "selected_charity_id",
          "type": "uint256"
        }
      ],
      "name": "add_stake_charity_allocation",
      "outputs": [],
      "stateMutability": "nonpayable",
      "type": "function"
    },
    {
      "inputs": [
        {
          "internalType": "uint256",
          "name": "_amount",
          "type": "uint256"
        },
        {
          "internalType": "uint256",
          "name": "selected_charity_id",
          "type": "uint256"
        }
      ],
      "name": "remove_stake_charity_allocation",
      "outputs": [],
      "stateMutability": "nonpayable",
      "type": "function"
    },
    {
      "inputs": [
        {
          "internalType": "contract DaiToken",
          "name": "_daiToken",
          "type": "address"
        }
      ],
      "name": "link_protocol_token",
      "outputs": [],
      "stateMutability": "nonpayable",
      "type": "function"
    },
    {
      "inputs": [
        {
          "internalType": "address",
          "name": "newOwner",
          "type": "address"
        }
      ],
      "name": "transfer_owner",
      "outputs": [],
      "stateMutability": "nonpayable",
      "type": "function"
    },
    {
      "inputs": [
        {
          "internalType": "uint256",
          "name": "_amount",
          "type": "uint256"
        }
      ],
      "name": "set_staking_reward_distribution_increment",
      "outputs": [],
      "stateMutability": "nonpayable",
      "type": "function"
    },
    {
      "inputs": [
        {
          "internalType": "uint256",
          "name": "_min_amount",
          "type": "uint256"
        }
      ],
      "name": "set_minimum_distribution_threshold",
      "outputs": [],
      "stateMutability": "nonpayable",
      "type": "function"
    },
    {
      "inputs": [
        {
          "internalType": "uint256",
          "name": "_new_interval",
          "type": "uint256"
        }
      ],
      "name": "set_reward_interval",
      "outputs": [],
      "stateMutability": "nonpayable",
      "type": "function"
    },
    {
      "inputs": [
        {
          "internalType": "address",
          "name": "_address",
          "type": "address"
        },
        {
          "internalType": "uint256",
          "name": "_type",
          "type": "uint256"
        }
      ],
      "name": "add_remove_admin",
      "outputs": [],
      "stateMutability": "nonpayable",
      "type": "function"
    },
    {
      "inputs": [
        {
          "internalType": "address",
          "name": "account",
          "type": "address"
        }
      ],
      "name": "check_if_admin",
      "outputs": [
        {
          "internalType": "bool",
          "name": "",
          "type": "bool"
        }
      ],
      "stateMutability": "view",
      "type": "function"
    },
    {
      "inputs": [
        {
          "internalType": "address",
          "name": "user_account",
          "type": "address"
        }
      ],
      "name": "get_user_data",
      "outputs": [
        {
          "components": [
            {
              "internalType": "uint256[][]",
              "name": "supported_charities",
              "type": "uint256[][]"
            },
            {
              "internalType": "uint256",
              "name": "uncollected_rewards",
              "type": "uint256"
            },
            {
              "internalType": "uint256",
              "name": "total_staked",
              "type": "uint256"
            },
            {
              "internalType": "bool",
              "name": "exists",
              "type": "bool"
            }
          ],
          "internalType": "struct TokenFarm.individual_token_holder",
          "name": "",
          "type": "tuple"
        }
      ],
      "stateMutability": "view",
      "type": "function"
    },
    {
      "inputs": [],
      "name": "get_approved_charities_list",
      "outputs": [
        {
          "components": [
            {
              "internalType": "uint256",
              "name": "id",
              "type": "uint256"
            },
            {
              "internalType": "string",
              "name": "name",
              "type": "string"
            },
            {
              "internalType": "string",
              "name": "description",
              "type": "string"
            },
            {
              "internalType": "string",
              "name": "details",
              "type": "string"
            },
            {
              "internalType": "string",
              "name": "url",
              "type": "string"
            },
            {
              "internalType": "uint256",
              "name": "ein",
              "type": "uint256"
            },
            {
              "internalType": "address",
              "name": "wallet_address",
              "type": "address"
            },
            {
              "internalType": "address",
              "name": "deposit_address",
              "type": "address"
            },
            {
              "internalType": "uint256",
              "name": "uncollected_rewards",
              "type": "uint256"
            },
            {
              "internalType": "uint256",
              "name": "vote_allocation",
              "type": "uint256"
            },
            {
              "internalType": "bool",
              "name": "us_tax_deduction",
              "type": "bool"
            },
            {
              "internalType": "bool",
              "name": "is_deleted",
              "type": "bool"
            },
            {
              "internalType": "uint256",
              "name": "genesis",
              "type": "uint256"
            }
          ],
          "internalType": "struct TokenFarm.individual_charity[]",
          "name": "",
          "type": "tuple[]"
        }
      ],
      "stateMutability": "view",
      "type": "function"
    },
    {
      "inputs": [
        {
          "internalType": "address",
          "name": "user_address",
          "type": "address"
        }
      ],
      "name": "get_user_uncollected_rewards",
      "outputs": [
        {
          "internalType": "uint256",
          "name": "",
          "type": "uint256"
        }
      ],
      "stateMutability": "view",
      "type": "function"
    },
    {
      "inputs": [],
      "name": "get_total_charity_votes",
      "outputs": [
        {
          "internalType": "uint256",
          "name": "",
          "type": "uint256"
        }
      ],
      "stateMutability": "view",
      "type": "function"
    },
    {
      "inputs": [
        {
          "internalType": "address",
          "name": "_contract_address",
          "type": "address"
        }
      ],
      "name": "set_delegate_address",
      "outputs": [],
      "stateMutability": "nonpayable",
      "type": "function"
    }
  ],
  "bytecode": "0x60806040526040518060400160405280600f81526020017f4461707020546f6b656e204661726d0000000000000000000000000000000000815250600090805190602001906200005192919062000152565b506a108b2a2c280290940000006004556729a2241af62c00006006556a108b2a2c2802909400000060075568056bc75e2d631000006008556729a2241af62c0000600a55348015620000a257600080fd5b5033600260006101000a81548173ffffffffffffffffffffffffffffffffffffffff021916908373ffffffffffffffffffffffffffffffffffffffff1602179055506001600d60003373ffffffffffffffffffffffffffffffffffffffff1673ffffffffffffffffffffffffffffffffffffffff16815260200190815260200160002060006101000a81548160ff0219169083151502179055506000600f81905550600160108190555062000208565b828054600181600116156101000203166002900490600052602060002090601f0160209004810192826200018a5760008555620001d6565b82601f10620001a557805160ff1916838001178555620001d6565b82800160010185558215620001d6579182015b82811115620001d5578251825591602001919060010190620001b8565b5b509050620001e59190620001e9565b5090565b5b8082111562000204576000816000905550600101620001ea565b5090565b612f7880620002186000396000f3fe608060405234801561001057600080fd5b506004361061021c5760003560e01c80639443a6e011610125578063c99ab501116100ad578063dabeef251161007c578063dabeef2514610609578063e068737f14610625578063ea24e3ba14610643578063ed504c3414610675578063f7c9ebb8146106915761021c565b8063c99ab5011461055d578063cfbf8fbf1461058d578063d0750686146105a9578063d1e7f352146105d95761021c565b8063b282476f116100f4578063b282476f146104b5578063b3f616b2146104e5578063be22f54614610503578063bec747f014610521578063c3a94f251461053f5761021c565b80639443a6e014610441578063a3f24bf31461044b578063a7bd629214610469578063aac132de146104855761021c565b806345c15b42116101a85780638222cf20116101775780638222cf20146103af57806386fe690e146103b95780638da5cb5b146103d55780638ea13d35146103f357806391e25e25146104115761021c565b806345c15b421461033b57806354c02017146103575780636710337f1461037357806374d1bca8146103915761021c565b806320789a8e116101ef57806320789a8e146102ab57806328896066146102c757806328a24149146102e3578063317f448814610301578063448f42e11461031f5761021c565b8063038e8a581461022157806306fdde0314610251578063089e82331461026f5780630abde55d1461028d575b600080fd5b61023b6004803603810190610236919061236d565b6106af565b6040516102489190612b47565b60405180910390f35b610259610946565b6040516102669190612b7d565b60405180910390f35b6102776109e4565b6040516102849190612c01565b60405180910390f35b6102956109ea565b6040516102a29190612c01565b60405180910390f35b6102c560048036038101906102c09190612344565b6109f4565b005b6102e160048036038101906102dc91906122b6565b610a93565b005b6102eb610ba2565b6040516102f89190612c01565b60405180910390f35b610309610ba8565b6040516103169190612c01565b60405180910390f35b610339600480360381019061033491906125a6565b610bae565b005b610355600480360381019061035091906125a6565b610ccb565b005b610371600480360381019061036c919061257d565b610de8565b005b61037b610e57565b6040516103889190612c01565b60405180910390f35b610399610e5d565b6040516103a69190612ad3565b60405180910390f35b6103b7610e83565b005b6103d360048036038101906103ce919061257d565b610f91565b005b6103dd610ff6565b6040516103ea9190612ad3565b60405180910390f35b6103fb61101c565b6040516104089190612c01565b60405180910390f35b61042b600480360381019061042691906122b6565b611022565b6040516104389190612b47565b60405180910390f35b610449611078565b005b610453611186565b6040516104609190612c01565b60405180910390f35b610483600480360381019061047e91906122b6565b61118c565b005b61049f600480360381019061049a91906122b6565b61122b565b6040516104ac9190612b47565b60405180910390f35b6104cf60048036038101906104ca91906122b6565b61124b565b6040516104dc9190612c01565b60405180910390f35b6104ed611297565b6040516104fa9190612c01565b60405180910390f35b61050b61129d565b6040516105189190612b62565b60405180910390f35b6105296112c3565b6040516105369190612c01565b60405180910390f35b6105476112c9565b6040516105549190612c01565b60405180910390f35b610577600480360381019061057291906122df565b6112cf565b6040516105849190612b47565b60405180910390f35b6105a760048036038101906105a2919061257d565b611493565b005b6105c360048036038101906105be919061247f565b6115c1565b6040516105d09190612b47565b60405180910390f35b6105f360048036038101906105ee91906122b6565b611912565b6040516106009190612bdf565b60405180910390f35b610623600480360381019061061e919061257d565b611a39565b005b61062d611ab9565b60405161063a9190612b25565b60405180910390f35b61065d600480360381019061065891906122b6565b611eb5565b60405161066c93929190612c45565b60405180910390f35b61068f600480360381019061068a91906122df565b611eec565b005b61069961200a565b6040516106a69190612c01565b60405180910390f35b6000801515600d60003373ffffffffffffffffffffffffffffffffffffffff1673ffffffffffffffffffffffffffffffffffffffff16815260200190815260200160002060009054906101000a900460ff1615151415610712576000905061093a565b600084905060005b600380549050811015610933576003818154811061073457fe5b90600052602060002090600c020160060160009054906101000a900473ffffffffffffffffffffffffffffffffffffffff1673ffffffffffffffffffffffffffffffffffffffff168273ffffffffffffffffffffffffffffffffffffffff161415610926578a600382815481106107a757fe5b90600052602060002090600c020160010190805190602001906107cb929190612110565b5089600382815481106107da57fe5b90600052602060002090600c020160020190805190602001906107fe929190612110565b50886003828154811061080d57fe5b90600052602060002090600c02016003019080519060200190610831929190612110565b50876003828154811061084057fe5b90600052602060002090600c02016004019080519060200190610864929190612110565b50866003828154811061087357fe5b90600052602060002090600c020160050181905550846003828154811061089657fe5b90600052602060002090600c020160070160006101000a81548173ffffffffffffffffffffffffffffffffffffffff021916908373ffffffffffffffffffffffffffffffffffffffff16021790555083600382815481106108f357fe5b90600052602060002090600c0201600a0160006101000a81548160ff02191690831515021790555060019250505061093a565b808060010191505061071a565b5060009150505b98975050505050505050565b60008054600181600116156101000203166002900480601f0160208091040260200160405190810160405280929190818152602001828054600181600116156101000203166002900480156109dc5780601f106109b1576101008083540402835291602001916109dc565b820191906000526020600020905b8154815290600101906020018083116109bf57829003601f168201915b505050505081565b60075481565b6000600e54905090565b600260009054906101000a900473ffffffffffffffffffffffffffffffffffffffff1673ffffffffffffffffffffffffffffffffffffffff163373ffffffffffffffffffffffffffffffffffffffff1614610a4e57610a90565b80600160006101000a81548173ffffffffffffffffffffffffffffffffffffffff021916908373ffffffffffffffffffffffffffffffffffffffff1602179055505b50565b600260009054906101000a900473ffffffffffffffffffffffffffffffffffffffff1673ffffffffffffffffffffffffffffffffffffffff163373ffffffffffffffffffffffffffffffffffffffff1614610aed57610b9f565b600073ffffffffffffffffffffffffffffffffffffffff168173ffffffffffffffffffffffffffffffffffffffff161415610b5d576040517f08c379a0000000000000000000000000000000000000000000000000000000008152600401610b5490612b9f565b60405180910390fd5b80600260006101000a81548173ffffffffffffffffffffffffffffffffffffffff021916908373ffffffffffffffffffffffffffffffffffffffff1602179055505b50565b60105481565b600f5481565b601160009054906101000a900473ffffffffffffffffffffffffffffffffffffffff1673ffffffffffffffffffffffffffffffffffffffff168282604051602401610bfa929190612c1c565b6040516020818303038152906040527f448f42e1000000000000000000000000000000000000000000000000000000007bffffffffffffffffffffffffffffffffffffffffffffffffffffffff19166020820180517bffffffffffffffffffffffffffffffffffffffffffffffffffffffff8381831617835250505050604051610c849190612abc565b600060405180830381855af49150503d8060008114610cbf576040519150601f19603f3d011682016040523d82523d6000602084013e610cc4565b606091505b5050505050565b601160009054906101000a900473ffffffffffffffffffffffffffffffffffffffff1673ffffffffffffffffffffffffffffffffffffffff168282604051602401610d17929190612c1c565b6040516020818303038152906040527f45c15b42000000000000000000000000000000000000000000000000000000007bffffffffffffffffffffffffffffffffffffffffffffffffffffffff19166020820180517bffffffffffffffffffffffffffffffffffffffffffffffffffffffff8381831617835250505050604051610da19190612abc565b600060405180830381855af49150503d8060008114610ddc576040519150601f19603f3d011682016040523d82523d6000602084013e610de1565b606091505b5050505050565b600260009054906101000a900473ffffffffffffffffffffffffffffffffffffffff1673ffffffffffffffffffffffffffffffffffffffff163373ffffffffffffffffffffffffffffffffffffffff1614610e4257610e54565b670de0b6b3a764000081026008819055505b50565b600e5481565b601160009054906101000a900473ffffffffffffffffffffffffffffffffffffffff1681565b601160009054906101000a900473ffffffffffffffffffffffffffffffffffffffff1673ffffffffffffffffffffffffffffffffffffffff166040516024016040516020818303038152906040527f8222cf20000000000000000000000000000000000000000000000000000000007bffffffffffffffffffffffffffffffffffffffffffffffffffffffff19166020820180517bffffffffffffffffffffffffffffffffffffffffffffffffffffffff8381831617835250505050604051610f4c9190612abc565b600060405180830381855af49150503d8060008114610f87576040519150601f19603f3d011682016040523d82523d6000602084013e610f8c565b606091505b505050565b600260009054906101000a900473ffffffffffffffffffffffffffffffffffffffff1673ffffffffffffffffffffffffffffffffffffffff163373ffffffffffffffffffffffffffffffffffffffff1614610feb57610ff3565b806010819055505b50565b600260009054906101000a900473ffffffffffffffffffffffffffffffffffffffff1681565b60095481565b6000600d60008373ffffffffffffffffffffffffffffffffffffffff1673ffffffffffffffffffffffffffffffffffffffff16815260200190815260200160002060009054906101000a900460ff169050919050565b601160009054906101000a900473ffffffffffffffffffffffffffffffffffffffff1673ffffffffffffffffffffffffffffffffffffffff166040516024016040516020818303038152906040527f9443a6e0000000000000000000000000000000000000000000000000000000007bffffffffffffffffffffffffffffffffffffffffffffffffffffffff19166020820180517bffffffffffffffffffffffffffffffffffffffffffffffffffffffff83818316178352505050506040516111419190612abc565b600060405180830381855af49150503d806000811461117c576040519150601f19603f3d011682016040523d82523d6000602084013e611181565b606091505b505050565b600a5481565b600260009054906101000a900473ffffffffffffffffffffffffffffffffffffffff1673ffffffffffffffffffffffffffffffffffffffff163373ffffffffffffffffffffffffffffffffffffffff16146111e657611228565b80601160006101000a81548173ffffffffffffffffffffffffffffffffffffffff021916908373ffffffffffffffffffffffffffffffffffffffff1602179055505b50565b600d6020528060005260406000206000915054906101000a900460ff1681565b6000600b60008373ffffffffffffffffffffffffffffffffffffffff1673ffffffffffffffffffffffffffffffffffffffff168152602001908152602001600020600101549050919050565b60085481565b600160009054906101000a900473ffffffffffffffffffffffffffffffffffffffff1681565b60045481565b60065481565b6000801515600d60003373ffffffffffffffffffffffffffffffffffffffff1673ffffffffffffffffffffffffffffffffffffffff16815260200190815260200160002060009054906101000a900460ff16151514801561135c57508273ffffffffffffffffffffffffffffffffffffffff163373ffffffffffffffffffffffffffffffffffffffff1614155b1561136a576000905061148d565b600083905060005b600380549050811015611486576003818154811061138c57fe5b90600052602060002090600c020160060160009054906101000a900473ffffffffffffffffffffffffffffffffffffffff1673ffffffffffffffffffffffffffffffffffffffff168273ffffffffffffffffffffffffffffffffffffffff1614156114795760008414156114365760016003828154811061140957fe5b90600052602060002090600c0201600a0160016101000a81548160ff02191690831515021790555061146e565b60006003828154811061144557fe5b90600052602060002090600c0201600a0160016101000a81548160ff0219169083151502179055505b60019250505061148d565b8080600101915050611372565b5060009150505b92915050565b600160009054906101000a900473ffffffffffffffffffffffffffffffffffffffff1673ffffffffffffffffffffffffffffffffffffffff166323b872dd600160009054906101000a900473ffffffffffffffffffffffffffffffffffffffff1630846040518463ffffffff1660e01b815260040161151493929190612aee565b602060405180830381600087803b15801561152e57600080fd5b505af1158015611542573d6000803e3d6000fd5b505050506040513d601f19601f82011682018060405250810190611566919061231b565b50600061157d60028361201090919063ffffffff16565b90506000818303905061159b8260095461205a90919063ffffffff16565b6009819055506115b68160055461205a90919063ffffffff16565b600581905550505050565b6000801515600d60003373ffffffffffffffffffffffffffffffffffffffff1673ffffffffffffffffffffffffffffffffffffffff16815260200190815260200160002060009054906101000a900460ff16151514156116245760009050611907565b6000604051806101a0016040528060038054905081526020018a81526020018981526020018881526020018781526020018681526020018573ffffffffffffffffffffffffffffffffffffffff1681526020018573ffffffffffffffffffffffffffffffffffffffff1681526020016000815260200160008152602001841515815260200160001515815260200142815250905060005b600380549050811015611759576000600382815481106116d757fe5b90600052602060002090600c020160060160009054906101000a900473ffffffffffffffffffffffffffffffffffffffff1690508573ffffffffffffffffffffffffffffffffffffffff168173ffffffffffffffffffffffffffffffffffffffff16141561174b5760009350505050611907565b5080806001019150506116bb565b5060038190806001815401808255809150506001900390600052602060002090600c02016000909190919091506000820151816000015560208201518160010190805190602001906117ac929190612110565b5060408201518160020190805190602001906117c9929190612110565b5060608201518160030190805190602001906117e6929190612110565b506080820151816004019080519060200190611803929190612110565b5060a0820151816005015560c08201518160060160006101000a81548173ffffffffffffffffffffffffffffffffffffffff021916908373ffffffffffffffffffffffffffffffffffffffff16021790555060e08201518160070160006101000a81548173ffffffffffffffffffffffffffffffffffffffff021916908373ffffffffffffffffffffffffffffffffffffffff1602179055506101008201518160080155610120820151816009015561014082015181600a0160006101000a81548160ff02191690831515021790555061016082015181600a0160016101000a81548160ff02191690831515021790555061018082015181600b0155505060019150505b979650505050505050565b61191a61219e565b600b60008373ffffffffffffffffffffffffffffffffffffffff1673ffffffffffffffffffffffffffffffffffffffff16815260200190815260200160002060405180608001604052908160008201805480602002602001604051908101604052809291908181526020016000905b828210156119fb578382906000526020600020018054806020026020016040519081016040528092919081815260200182805480156119e757602002820191906000526020600020905b8154815260200190600101908083116119d3575b505050505081526020019060010190611989565b50505050815260200160018201548152602001600282015481526020016003820160009054906101000a900460ff1615151515815250509050919050565b600260009054906101000a900473ffffffffffffffffffffffffffffffffffffffff1673ffffffffffffffffffffffffffffffffffffffff163373ffffffffffffffffffffffffffffffffffffffff1614611a9357611ab6565b670de0b6b3a76400008102600681905550670de0b6b3a76400008102600a819055505b50565b60606003805480602002602001604051908101604052809291908181526020016000905b82821015611eac57838290600052602060002090600c0201604051806101a001604052908160008201548152602001600182018054600181600116156101000203166002900480601f016020809104026020016040519081016040528092919081815260200182805460018160011615610100020316600290048015611ba45780601f10611b7957610100808354040283529160200191611ba4565b820191906000526020600020905b815481529060010190602001808311611b8757829003601f168201915b50505050508152602001600282018054600181600116156101000203166002900480601f016020809104026020016040519081016040528092919081815260200182805460018160011615610100020316600290048015611c465780601f10611c1b57610100808354040283529160200191611c46565b820191906000526020600020905b815481529060010190602001808311611c2957829003601f168201915b50505050508152602001600382018054600181600116156101000203166002900480601f016020809104026020016040519081016040528092919081815260200182805460018160011615610100020316600290048015611ce85780601f10611cbd57610100808354040283529160200191611ce8565b820191906000526020600020905b815481529060010190602001808311611ccb57829003601f168201915b50505050508152602001600482018054600181600116156101000203166002900480601f016020809104026020016040519081016040528092919081815260200182805460018160011615610100020316600290048015611d8a5780601f10611d5f57610100808354040283529160200191611d8a565b820191906000526020600020905b815481529060010190602001808311611d6d57829003601f168201915b50505050508152602001600582015481526020016006820160009054906101000a900473ffffffffffffffffffffffffffffffffffffffff1673ffffffffffffffffffffffffffffffffffffffff1673ffffffffffffffffffffffffffffffffffffffff1681526020016007820160009054906101000a900473ffffffffffffffffffffffffffffffffffffffff1673ffffffffffffffffffffffffffffffffffffffff1673ffffffffffffffffffffffffffffffffffffffff1681526020016008820154815260200160098201548152602001600a820160009054906101000a900460ff16151515158152602001600a820160019054906101000a900460ff16151515158152602001600b8201548152505081526020019060010190611add565b50505050905090565b600b6020528060005260406000206000915090508060010154908060020154908060030160009054906101000a900460ff16905083565b600260009054906101000a900473ffffffffffffffffffffffffffffffffffffffff1673ffffffffffffffffffffffffffffffffffffffff163373ffffffffffffffffffffffffffffffffffffffff1614611f4657612006565b6001811415611fac576001600d60008473ffffffffffffffffffffffffffffffffffffffff1673ffffffffffffffffffffffffffffffffffffffff16815260200190815260200160002060006101000a81548160ff021916908315150217905550612005565b6000600d60008473ffffffffffffffffffffffffffffffffffffffff1673ffffffffffffffffffffffffffffffffffffffff16815260200190815260200160002060006101000a81548160ff0219169083151502179055505b5b5050565b60055481565b600061205283836040518060400160405280601a81526020017f536166654d6174683a206469766973696f6e206279207a65726f0000000000008152506120af565b905092915050565b6000808284019050838110156120a5576040517f08c379a000000000000000000000000000000000000000000000000000000000815260040161209c90612bbf565b60405180910390fd5b8091505092915050565b600080831182906120f6576040517f08c379a00000000000000000000000000000000000000000000000000000000081526004016120ed9190612b7d565b60405180910390fd5b50600083858161210257fe5b049050809150509392505050565b828054600181600116156101000203166002900490600052602060002090601f016020900481019282612146576000855561218d565b82601f1061215f57805160ff191683800117855561218d565b8280016001018555821561218d579182015b8281111561218c578251825591602001919060010190612171565b5b50905061219a91906121c8565b5090565b60405180608001604052806060815260200160008152602001600081526020016000151581525090565b5b808211156121e15760008160009055506001016121c9565b5090565b60006121f86121f384612cad565b612c7c565b90508281526020810184848401111561221057600080fd5b61221b848285612e91565b509392505050565b60008135905061223281612ee6565b92915050565b60008135905061224781612efd565b92915050565b60008151905061225c81612efd565b92915050565b60008135905061227181612f14565b92915050565b600082601f83011261228857600080fd5b81356122988482602086016121e5565b91505092915050565b6000813590506122b081612f2b565b92915050565b6000602082840312156122c857600080fd5b60006122d684828501612223565b91505092915050565b600080604083850312156122f257600080fd5b600061230085828601612223565b9250506020612311858286016122a1565b9150509250929050565b60006020828403121561232d57600080fd5b600061233b8482850161224d565b91505092915050565b60006020828403121561235657600080fd5b600061236484828501612262565b91505092915050565b600080600080600080600080610100898b03121561238a57600080fd5b600089013567ffffffffffffffff8111156123a457600080fd5b6123b08b828c01612277565b985050602089013567ffffffffffffffff8111156123cd57600080fd5b6123d98b828c01612277565b975050604089013567ffffffffffffffff8111156123f657600080fd5b6124028b828c01612277565b965050606089013567ffffffffffffffff81111561241f57600080fd5b61242b8b828c01612277565b955050608061243c8b828c016122a1565b94505060a061244d8b828c01612223565b93505060c061245e8b828c01612223565b92505060e061246f8b828c01612238565b9150509295985092959890939650565b600080600080600080600060e0888a03121561249a57600080fd5b600088013567ffffffffffffffff8111156124b457600080fd5b6124c08a828b01612277565b975050602088013567ffffffffffffffff8111156124dd57600080fd5b6124e98a828b01612277565b965050604088013567ffffffffffffffff81111561250657600080fd5b6125128a828b01612277565b955050606088013567ffffffffffffffff81111561252f57600080fd5b61253b8a828b01612277565b945050608061254c8a828b016122a1565b93505060a061255d8a828b01612223565b92505060c061256e8a828b01612238565b91505092959891949750929550565b60006020828403121561258f57600080fd5b600061259d848285016122a1565b91505092915050565b600080604083850312156125b957600080fd5b60006125c7858286016122a1565b92505060206125d8858286016122a1565b9150509250929050565b60006125ee8383612739565b905092915050565b6000612602838361290d565b905092915050565b60006126168383612a9e565b60208301905092915050565b61262b81612e37565b82525050565b61263a81612dcb565b82525050565b61264981612dcb565b82525050565b600061265a82612d0d565b6126648185612d6b565b93508360208202850161267685612cdd565b8060005b858110156126b2578484038952815161269385826125e2565b945061269e83612d44565b925060208a0199505060018101905061267a565b50829750879550505050505092915050565b60006126cf82612d18565b6126d98185612d7c565b9350836020820285016126eb85612ced565b8060005b85811015612727578484038952815161270885826125f6565b945061271383612d51565b925060208a019950506001810190506126ef565b50829750879550505050505092915050565b600061274482612d23565b61274e8185612d8d565b935061275983612cfd565b8060005b8381101561278a578151612771888261260a565b975061277c83612d5e565b92505060018101905061275d565b5085935050505092915050565b6127a081612def565b82525050565b6127af81612def565b82525050565b60006127c082612d2e565b6127ca8185612d9e565b93506127da818560208601612ea0565b80840191505092915050565b6127ef81612e49565b82525050565b600061280082612d39565b61280a8185612da9565b935061281a818560208601612ea0565b61282381612ed5565b840191505092915050565b600061283982612d39565b6128438185612dba565b9350612853818560208601612ea0565b61285c81612ed5565b840191505092915050565b6000612874602683612dba565b91507f4f776e61626c653a206e6577206f776e657220697320746865207a65726f206160008301527f64647265737300000000000000000000000000000000000000000000000000006020830152604082019050919050565b60006128da601b83612dba565b91507f536166654d6174683a206164646974696f6e206f766572666c6f7700000000006000830152602082019050919050565b60006101a0830160008301516129266000860182612a9e565b506020830151848203602086015261293e82826127f5565b9150506040830151848203604086015261295882826127f5565b9150506060830151848203606086015261297282826127f5565b9150506080830151848203608086015261298c82826127f5565b91505060a08301516129a160a0860182612a9e565b5060c08301516129b460c0860182612631565b5060e08301516129c760e0860182612631565b506101008301516129dc610100860182612a9e565b506101208301516129f1610120860182612a9e565b50610140830151612a06610140860182612797565b50610160830151612a1b610160860182612797565b50610180830151612a30610180860182612a9e565b508091505092915050565b60006080830160008301518482036000860152612a58828261264f565b9150506020830151612a6d6020860182612a9e565b506040830151612a806040860182612a9e565b506060830151612a936060860182612797565b508091505092915050565b612aa781612e2d565b82525050565b612ab681612e2d565b82525050565b6000612ac882846127b5565b915081905092915050565b6000602082019050612ae86000830184612640565b92915050565b6000606082019050612b036000830186612622565b612b106020830185612640565b612b1d6040830184612aad565b949350505050565b60006020820190508181036000830152612b3f81846126c4565b905092915050565b6000602082019050612b5c60008301846127a6565b92915050565b6000602082019050612b7760008301846127e6565b92915050565b60006020820190508181036000830152612b97818461282e565b905092915050565b60006020820190508181036000830152612bb881612867565b9050919050565b60006020820190508181036000830152612bd8816128cd565b9050919050565b60006020820190508181036000830152612bf98184612a3b565b905092915050565b6000602082019050612c166000830184612aad565b92915050565b6000604082019050612c316000830185612aad565b612c3e6020830184612aad565b9392505050565b6000606082019050612c5a6000830186612aad565b612c676020830185612aad565b612c7460408301846127a6565b949350505050565b6000604051905081810181811067ffffffffffffffff82111715612ca357612ca2612ed3565b5b8060405250919050565b600067ffffffffffffffff821115612cc857612cc7612ed3565b5b601f19601f8301169050602081019050919050565b6000819050602082019050919050565b6000819050602082019050919050565b6000819050602082019050919050565b600081519050919050565b600081519050919050565b600081519050919050565b600081519050919050565b600081519050919050565b6000602082019050919050565b6000602082019050919050565b6000602082019050919050565b600082825260208201905092915050565b600082825260208201905092915050565b600082825260208201905092915050565b600081905092915050565b600082825260208201905092915050565b600082825260208201905092915050565b6000612dd682612e0d565b9050919050565b6000612de882612e0d565b9050919050565b60008115159050919050565b6000612e0682612ddd565b9050919050565b600073ffffffffffffffffffffffffffffffffffffffff82169050919050565b6000819050919050565b6000612e4282612e6d565b9050919050565b6000612e5482612e5b565b9050919050565b6000612e6682612e0d565b9050919050565b6000612e7882612e7f565b9050919050565b6000612e8a82612e0d565b9050919050565b82818337600083830152505050565b60005b83811015612ebe578082015181840152602081019050612ea3565b83811115612ecd576000848401525b50505050565bfe5b6000601f19601f8301169050919050565b612eef81612dcb565b8114612efa57600080fd5b50565b612f0681612def565b8114612f1157600080fd5b50565b612f1d81612dfb565b8114612f2857600080fd5b50565b612f3481612e2d565b8114612f3f57600080fd5b5056fea2646970667358221220e9ad840c4f6babbb702dcaa71d370a8487daf8b8af4d484bc365453dca67449764736f6c63430007060033",
  "immutableReferences": {},
  "source": "// SPDX-License-Identifier: Unlicensed\r\npragma solidity ^0.7.6;\r\n\r\npragma experimental ABIEncoderV2;\r\nimport \"./DaiToken.sol\";\r\n\r\n\r\n\r\n/// @title A contract that stores the recipient charities and enables staking (staking is not currently operational)\r\n/// @author Bofan Wu\r\n/// @dev All function calls are currently implemented without side effects\r\ncontract TokenFarm {\r\n    /// @notice Name of contract\r\n\tstring public name = \"Dapp Token Farm\";\r\n\t/// @notice Links the protocol token, to be used for staking (not implemented yet)\r\n\tDaiToken public daiToken;\r\n\t/// @notice owner of the smart contract\r\n\taddress public owner;\r\n\tusing SafeMath for uint256;\r\n\r\n\t/// @notice data structure of a recipient charity organization\r\n\tstruct individual_charity{\r\n\t      uint id;\r\n\t      string name;\r\n\t      string description;\r\n\t      string details;\r\n\t      string url;\r\n\t      uint ein;\r\n\t      address wallet_address;\r\n\t      address deposit_address;\r\n\t      uint uncollected_rewards;\r\n\t      uint vote_allocation;\r\n\t      bool us_tax_deduction;\r\n\t      bool is_deleted;\r\n\t      uint genesis;\r\n\t}\r\n\t/// @notice data structure of a token holder for staking purposes (not implemented yet)\r\n\tstruct individual_token_holder{\r\n\t    uint[][] supported_charities;\r\n\t    uint uncollected_rewards;\r\n\t    uint total_staked;\r\n\t    bool exists;\r\n\t}\r\n\r\n/////////////////////////////////////////////////////////////////////////////////////////////////////////////////////////////////\r\n/////////////////////////////////////////////////////////////////////////////////////////////////////////////////////////////////\r\n\t  individual_charity[] approved_charities;\r\n\t  /// @notice staking token rewards reserved for charities\r\n\t  uint public initial_charity_reward_allocation = 20000000 * 10**18;\r\n\t  /// @notice staking token rewards currently yet to be distributed to charities\r\n\t  uint public current_rewards_for_charities;\r\n\t  /// @notice minimum threshold to trigger reward distribution\r\n\t  uint public minimum_distribution_threshold_charities = 3 * 10**18;\r\n/////////////////////////////////////////////////////////////////////////////////////////////////////////////////////////////////\r\n/////////////////////////////////////////////////////////////////////////////////////////////////////////////////////////////////\r\n\t /// @notice staking token rewards reserved for stakers\r\n\t uint public initial_token_staking_reward_allocation = 20000000 * 10**18;//initial token supply that is allocated to token holder rewards (20% of total supply)\r\n\t /// @notice amount of tokens rewarded every reward cycle\r\n\t uint public staking_reward_distribution_increment= 100 * 10**18; \r\n\t /// @notice rewards currently yet to be distributed to stakers\r\n\t uint public current_rewards_for_token_holders;\r\n\t /// @notice minimum threshold to trigger reward distribution\r\n\t uint public minimum_distribution_threshold_token_holders = 3 * 10**18;\r\n\t /// @notice record of users and their staking data\r\n\t mapping (address => individual_token_holder) public stakingAllocation;\r\n\t address[] staking_addresses;\r\n\t /// @notice record of admin privilages\r\n\t mapping (address => bool) public is_admin;\r\n\t /// @notice total number of token holder staking - used to determine charity rewards allocation\r\n\t uint public total_charity_votes;\r\n/////////////////////////////////////////////////////////////////////////////////////////////////////////////////////////////////\r\n/////////////////////////////////////////////////////////////////////////////////////////////////////////////////////////////////\r\n\t /// @notice last block that staking rewards were released\r\n\t uint public last_reward_block;\r\n\t /// @notice how frequent rewards are released\r\n\t uint public reward_interval;\r\n\t /// @notice pointer to delegate_call smart contract for upgradability\r\n\t address public delegate_address;\r\n\r\n\tconstructor() public {\r\n\t\towner = msg.sender;\r\n\t\tis_admin[msg.sender]=true;\r\n\t\tlast_reward_block=0;\r\n\t\treward_interval=1;\r\n\r\n\r\n//////////////////////////////////////////////////////////////////////////////////////////////////////////////////////////////////////////////////////////////////////////////////////////////////////////////////////////////////////////////////////////////////\r\n\t\t//add_charity(\"Our Dev Team\", \"Project Development\", \"This is a community-driven project. You can support us simply by staking. Our allocated rewards will go towards project development.\", \"https://google.com\", \"ourplanet_logo.png\", msg.sender, false);\r\n\t\t//add_charity(\"Ocean CleanUp\", \"Environmental Restoration\", \"The Ocean Cleanup is a non-profit organization developing advanced technologies to rid the oceans of plastic.\", \"https://theoceancleanup.com\", \"ocean_cleanup_foundation.jpg\", 0x03cAA949852054FB5B783114BfA60f7Da423cC99, true);\r\n\t\t//add_charity(\"World Wildlife Fund\", \"Wildlife Conservation\", \"Our mission is to conserve nature and reduce the most pressing threats to the diversity of life on Earth.\", \"https://www.worldwildlife.org\", \"wwf.jpg\", 0xdC990Ca62Babc72F597a15C3b34F028eeaCD1F07, true);\r\n //////////////////////////////////////////////////////////////////////////////////////////////////////////////////////////////   \r\n\r\n\t}\r\n\r\n/// @notice Adds a recipient charity organization\r\n/// @param _name  name of the charity\r\n/// @param _description  industry of the charity\r\n/// @param _details  brief 200 char. details of the charity\r\n/// @param _url  website of the charity\r\n/// @param _ein  ein of the charity\r\n/// @param _charity_address  Ethereum address of the charity\r\n/// @param _is_tax_deductible tax deductible status of the charity\r\nfunction add_charity(string memory _name, string memory _description, string memory _details, string memory _url, uint _ein, address _charity_address, bool _is_tax_deductible) public returns (bool){//add charity to approved charities - only dev team can access. Later will be managed by DAO\r\n\t\r\n\t//require(is_admin[msg.sender] == false, \"only admin can access\");\r\n\tif(is_admin[msg.sender] == false){\r\n\t\t\treturn false;\r\n\t}\r\n\r\n\tindividual_charity memory charity_to_add = individual_charity({id:approved_charities.length, name:_name, description:_description, details:_details, url:_url, ein:_ein, wallet_address:_charity_address, deposit_address:_charity_address, uncollected_rewards:0, vote_allocation:0, us_tax_deduction:_is_tax_deductible, is_deleted:false, genesis:block.timestamp});\r\n\r\n\r\n\tfor(uint i =0; i<approved_charities.length; i++){\r\n\t\taddress address_check=approved_charities[i].wallet_address;\r\n\t\tif(address_check==_charity_address){\r\n\t\t\treturn false;//fail - each wallet can only have 1 associated charity\r\n\t\t}\r\n\t}\r\n\r\n\tapproved_charities.push(charity_to_add);\r\n\treturn true;\r\n}\r\n\r\n/// @notice Updates an existing charity's information\r\n/// @param _name  name of the charity\r\n/// @param _description  industry of the charity\r\n/// @param _details  brief 200 char. details of the charity\r\n/// @param _url  website of the charity\r\n/// @param _ein  ein of the charity\r\n/// @param _charity_address  Ethereum address of the charity\r\n/// @param _deposit_address  Ethereum address of the charity\r\n/// @param _is_tax_deductible tax deductible status of the charity\r\nfunction update_charity_info(string memory _name, string memory _description, string memory _details, string memory _url, uint _ein, address _charity_address, address _deposit_address, bool _is_tax_deductible)  public returns (bool){// update info associated with an approved charity (can only change certain variables - NOT the associated wallet address)\r\n\r\n\tif(is_admin[msg.sender] == false){\r\n\t\t\treturn false;\r\n\t}\r\n\r\n\taddress address_to_change = _charity_address;\r\n\tfor(uint i =0; i<approved_charities.length; i++){\r\n\t\tif(address_to_change==approved_charities[i].wallet_address){\r\n\t\t\tapproved_charities[i].name=_name;\r\n\t\t\tapproved_charities[i].description=_description;\r\n\t\t\tapproved_charities[i].details=_details;\r\n\t\t\tapproved_charities[i].url=_url;\r\n\t\t\tapproved_charities[i].ein=_ein;\r\n\t\t\tapproved_charities[i].deposit_address=_deposit_address;\r\n\t\t\tapproved_charities[i].us_tax_deduction=_is_tax_deductible;\r\n\t\t\treturn true;\r\n\t\t}\r\n\t}\r\n\treturn false;\r\n\r\n}\r\n\r\n/// @notice Activate or Deactive a charity for users to donate to\r\n/// @param charity_wallet_address  address of the charity\r\n/// @param _type  0 to deactivate, 1 to reactivate\r\nfunction activate_deactivate_charity(address charity_wallet_address, uint _type) public returns (bool){//remove charity from approved charities - only dev team OR the charity itself can access. Later will be managed by DAO\r\n\tif(is_admin[msg.sender] == false && msg.sender!=charity_wallet_address){\r\n\t\treturn false;\r\n\t}\r\n\taddress address_to_delete = charity_wallet_address;\r\n\r\n\tfor(uint i =0; i<approved_charities.length; i++){\r\n\t\tif(address_to_delete==approved_charities[i].wallet_address){\r\n\t\t\tif(_type==0){//deactivate\r\n\t\t\t\tapproved_charities[i].is_deleted=true;\r\n\t\t\t}\r\n\t\t\telse{//reactivate\r\n\t\t\t\tapproved_charities[i].is_deleted=false;\r\n\t\t\t}\r\n\t\t\t\r\n\t\t\treturn true;\r\n\t\t}\t\t\t\r\n\t}\r\n\treturn false;\r\n}\r\n\r\n\r\n\r\n//////////////////////////////////////////////////////////Do Not include in Donation Only MVP////////////////////////////////////////////\r\n////////////////////////////////////////////////////////////////////////////////////////////////////////////////////////////////////\r\nfunction transfer_tax_to_reward_pool(uint _amount) external{\r\n\r\n\tdaiToken.transferFrom(address(daiToken), address(this), _amount);\r\n\r\n\tuint token_holder_allocation=_amount.div(2);\r\n\tuint charity_allocation=_amount-token_holder_allocation;\r\n\r\n\tcurrent_rewards_for_token_holders = current_rewards_for_token_holders.add(token_holder_allocation);\r\n\tcurrent_rewards_for_charities = current_rewards_for_charities.add(charity_allocation);\r\n\r\n\treturn;\r\n}\r\nfunction collect_staker_rewards() external{//Token Holders have to interact with our front-facing app to collect their rewards\r\n\tdelegate_address.delegatecall(abi.encodeWithSignature(\"collect_staker_rewards()\"));\r\n}\r\n\r\nfunction collect_charity_rewards() external{//Charities have to interact with our front-facing app to collect their rewards\r\n    delegate_address.delegatecall(abi.encodeWithSignature(\"collect_charity_rewards()\"));\r\n}\r\nfunction add_stake_charity_allocation(uint _amount, uint selected_charity_id) external{//each charity will have its own staking pool and users will choose what charities to support by staking\r\n \tdelegate_address.delegatecall(abi.encodeWithSignature(\"add_stake_charity_allocation(uint256,uint256)\", _amount, selected_charity_id));   \r\n}\r\n\r\nfunction remove_stake_charity_allocation(uint _amount, uint selected_charity_id) external{\r\n\tdelegate_address.delegatecall(abi.encodeWithSignature(\"remove_stake_charity_allocation(uint256,uint256)\", _amount, selected_charity_id));\r\n}\r\n////////////////////////////////////////////////////////////////////////////////////////////////////////////////////////////////////\r\n////////////////////////////////////////////////////////////////////////////////////////////////////////////////////////////////////\r\n\r\n\r\n/////////////////////////////////////////////////////////////////////////////////////////////////////////////////////////////////\r\n///////////////////////////////////////////////Utility Functions - leave as public for now/////////////////////////////////////////////////////////////////\r\n/////////////////////////////////////////////////////////////////////////////////////////////////////////////////////////////////\r\n\r\nfunction link_protocol_token(DaiToken _daiToken) public {\r\n\tif(msg.sender!=owner){\r\n\t\treturn;\r\n\t}\r\n\tdaiToken = _daiToken;\r\n}\r\nfunction transfer_owner(address newOwner) public{//not tested yet\r\n\tif(msg.sender!=owner){\r\n\t\treturn;\r\n\t}\r\n\trequire(newOwner != address(0), \"Ownable: new owner is the zero address\");\r\n\towner = newOwner;\r\n}\r\n\r\nfunction set_staking_reward_distribution_increment(uint _amount) public{\r\n\tif(msg.sender!=owner){\r\n\t\treturn;\r\n\t}\r\n\tstaking_reward_distribution_increment=_amount * 10**18;\r\n}\r\nfunction set_minimum_distribution_threshold(uint _min_amount) public{\r\n\tif(msg.sender!=owner){\r\n\t\treturn;\r\n\t}\r\n\tminimum_distribution_threshold_charities=_min_amount * 10**18;\r\n\tminimum_distribution_threshold_token_holders=_min_amount * 10**18;\r\n}\r\nfunction set_reward_interval(uint _new_interval) public{\r\n\tif(msg.sender!=owner){\r\n\t\treturn;\r\n\t}\r\n\treward_interval=_new_interval;\r\n}\r\nfunction add_remove_admin(address _address, uint _type) public{\r\n\tif(msg.sender!=owner){//only owner can add new admins\r\n\t\treturn;\r\n\t}\r\n\r\n\tif(_type==1){///add\r\n\t\tis_admin[_address]=true;\r\n\t}\r\n\telse{///remove\r\n\t\tis_admin[_address]=false;\r\n\t}\r\n\treturn;\r\n}\r\nfunction check_if_admin(address account) external view returns(bool) {\r\n\treturn is_admin[account];\r\n}\r\nfunction get_user_data(address user_account) external view returns (individual_token_holder memory){\r\n\treturn stakingAllocation[user_account];\r\n}\r\nfunction get_approved_charities_list() external view returns (individual_charity[] memory){\r\n\treturn approved_charities;\r\n}\r\n\r\nfunction get_user_uncollected_rewards(address user_address) external view returns (uint){\r\n\treturn stakingAllocation[user_address].uncollected_rewards;\r\n}\r\nfunction get_total_charity_votes() external view returns (uint){\r\n\treturn total_charity_votes;\r\n}\r\nfunction set_delegate_address(address _contract_address) external{\r\n    if(msg.sender!=owner){//only owner can change\r\n            return;\r\n    }\r\n    delegate_address=_contract_address;\r\n    return;\r\n}\r\n\r\n\t\r\n}",
  "sourcePath": "C:/Users/Bofan/github/blockchain-developer-bootcamp-final-project/src/contracts/TokenFarm.sol",
  "compiler": {
    "name": "solc",
    "version": "0.7.6+commit.7338295f.Emscripten.clang"
  },
  "schemaVersion": "3.2.3",
  "updatedAt": "2021-11-23T02:57:14.409Z",
  "networkType": "ethereum",
  "devdoc": {
    "author": "Bofan Wu",
    "details": "All function calls are currently implemented without side effects",
    "kind": "dev",
    "methods": {
      "activate_deactivate_charity(address,uint256)": {
        "params": {
          "_type": "0 to deactivate, 1 to reactivate",
          "charity_wallet_address": "address of the charity"
        }
      },
      "add_charity(string,string,string,string,uint256,address,bool)": {
        "params": {
          "_charity_address": "Ethereum address of the charity",
          "_description": "industry of the charity",
          "_details": "brief 200 char. details of the charity",
          "_ein": "ein of the charity",
          "_is_tax_deductible": "tax deductible status of the charity",
          "_name": "name of the charity",
          "_url": "website of the charity"
        }
      },
      "update_charity_info(string,string,string,string,uint256,address,address,bool)": {
        "params": {
          "_charity_address": "Ethereum address of the charity",
          "_deposit_address": "Ethereum address of the charity",
          "_description": "industry of the charity",
          "_details": "brief 200 char. details of the charity",
          "_ein": "ein of the charity",
          "_is_tax_deductible": "tax deductible status of the charity",
          "_name": "name of the charity",
          "_url": "website of the charity"
        }
      }
    },
    "title": "A contract that stores the recipient charities and enables staking (staking is not currently operational)",
    "version": 1
  },
  "userdoc": {
    "kind": "user",
    "methods": {
      "activate_deactivate_charity(address,uint256)": {
        "notice": "Activate or Deactive a charity for users to donate to"
      },
      "add_charity(string,string,string,string,uint256,address,bool)": {
        "notice": "Adds a recipient charity organization"
      },
      "current_rewards_for_charities()": {
        "notice": "staking token rewards currently yet to be distributed to charities"
      },
      "current_rewards_for_token_holders()": {
        "notice": "rewards currently yet to be distributed to stakers"
      },
      "daiToken()": {
        "notice": "Links the protocol token, to be used for staking (not implemented yet)"
      },
      "delegate_address()": {
        "notice": "pointer to delegate_call smart contract for upgradability"
      },
      "initial_charity_reward_allocation()": {
        "notice": "staking token rewards reserved for charities"
      },
      "initial_token_staking_reward_allocation()": {
        "notice": "staking token rewards reserved for stakers"
      },
      "is_admin(address)": {
        "notice": "record of admin privilages"
      },
      "last_reward_block()": {
        "notice": "last block that staking rewards were released"
      },
      "minimum_distribution_threshold_charities()": {
        "notice": "minimum threshold to trigger reward distribution"
      },
      "minimum_distribution_threshold_token_holders()": {
        "notice": "minimum threshold to trigger reward distribution"
      },
      "name()": {
        "notice": "Name of contract"
      },
      "owner()": {
        "notice": "owner of the smart contract"
      },
      "reward_interval()": {
        "notice": "how frequent rewards are released"
      },
      "stakingAllocation(address)": {
        "notice": "record of users and their staking data"
      },
      "staking_reward_distribution_increment()": {
        "notice": "amount of tokens rewarded every reward cycle"
      },
      "total_charity_votes()": {
        "notice": "total number of token holder staking - used to determine charity rewards allocation"
      },
      "update_charity_info(string,string,string,string,uint256,address,address,bool)": {
        "notice": "Updates an existing charity's information"
      }
    },
    "version": 1
  }
}