{
  "contractName": "TokenFarm_Upgrade",
  "abi": [
    {
      "inputs": [],
      "stateMutability": "nonpayable",
      "type": "constructor"
    },
    {
      "inputs": [],
      "name": "current_rewards_for_charities",
      "outputs": [
        {
          "internalType": "uint256",
          "name": "",
          "type": "uint256"
        }
      ],
      "stateMutability": "view",
      "type": "function"
    },
    {
      "inputs": [],
      "name": "current_rewards_for_token_holders",
      "outputs": [
        {
          "internalType": "uint256",
          "name": "",
          "type": "uint256"
        }
      ],
      "stateMutability": "view",
      "type": "function"
    },
    {
      "inputs": [],
      "name": "daiToken",
      "outputs": [
        {
          "internalType": "contract DaiToken",
          "name": "",
          "type": "address"
        }
      ],
      "stateMutability": "view",
      "type": "function"
    },
    {
      "inputs": [],
      "name": "initial_charity_reward_allocation",
      "outputs": [
        {
          "internalType": "uint256",
          "name": "",
          "type": "uint256"
        }
      ],
      "stateMutability": "view",
      "type": "function"
    },
    {
      "inputs": [],
      "name": "initial_token_staking_reward_allocation",
      "outputs": [
        {
          "internalType": "uint256",
          "name": "",
          "type": "uint256"
        }
      ],
      "stateMutability": "view",
      "type": "function"
    },
    {
      "inputs": [
        {
          "internalType": "address",
          "name": "",
          "type": "address"
        }
      ],
      "name": "is_admin",
      "outputs": [
        {
          "internalType": "bool",
          "name": "",
          "type": "bool"
        }
      ],
      "stateMutability": "view",
      "type": "function"
    },
    {
      "inputs": [],
      "name": "last_reward_block",
      "outputs": [
        {
          "internalType": "uint256",
          "name": "",
          "type": "uint256"
        }
      ],
      "stateMutability": "view",
      "type": "function"
    },
    {
      "inputs": [],
      "name": "minimum_distribution_threshold_charities",
      "outputs": [
        {
          "internalType": "uint256",
          "name": "",
          "type": "uint256"
        }
      ],
      "stateMutability": "view",
      "type": "function"
    },
    {
      "inputs": [],
      "name": "minimum_distribution_threshold_token_holders",
      "outputs": [
        {
          "internalType": "uint256",
          "name": "",
          "type": "uint256"
        }
      ],
      "stateMutability": "view",
      "type": "function"
    },
    {
      "inputs": [],
      "name": "name",
      "outputs": [
        {
          "internalType": "string",
          "name": "",
          "type": "string"
        }
      ],
      "stateMutability": "view",
      "type": "function"
    },
    {
      "inputs": [],
      "name": "owner",
      "outputs": [
        {
          "internalType": "address",
          "name": "",
          "type": "address"
        }
      ],
      "stateMutability": "view",
      "type": "function"
    },
    {
      "inputs": [],
      "name": "reward_interval",
      "outputs": [
        {
          "internalType": "uint256",
          "name": "",
          "type": "uint256"
        }
      ],
      "stateMutability": "view",
      "type": "function"
    },
    {
      "inputs": [
        {
          "internalType": "address",
          "name": "",
          "type": "address"
        }
      ],
      "name": "stakingAllocation",
      "outputs": [
        {
          "internalType": "uint256",
          "name": "uncollected_rewards",
          "type": "uint256"
        },
        {
          "internalType": "uint256",
          "name": "total_staked",
          "type": "uint256"
        },
        {
          "internalType": "bool",
          "name": "exists",
          "type": "bool"
        }
      ],
      "stateMutability": "view",
      "type": "function"
    },
    {
      "inputs": [],
      "name": "staking_reward_distribution_increment",
      "outputs": [
        {
          "internalType": "uint256",
          "name": "",
          "type": "uint256"
        }
      ],
      "stateMutability": "view",
      "type": "function"
    },
    {
      "inputs": [],
      "name": "total_charity_votes",
      "outputs": [
        {
          "internalType": "uint256",
          "name": "",
          "type": "uint256"
        }
      ],
      "stateMutability": "view",
      "type": "function"
    },
    {
      "inputs": [],
      "name": "collect_staker_rewards",
      "outputs": [],
      "stateMutability": "nonpayable",
      "type": "function"
    },
    {
      "inputs": [],
      "name": "collect_charity_rewards",
      "outputs": [],
      "stateMutability": "nonpayable",
      "type": "function"
    },
    {
      "inputs": [
        {
          "internalType": "uint256",
          "name": "_amount",
          "type": "uint256"
        },
        {
          "internalType": "uint256",
          "name": "selected_charity_id",
          "type": "uint256"
        }
      ],
      "name": "add_stake_charity_allocation",
      "outputs": [],
      "stateMutability": "nonpayable",
      "type": "function"
    },
    {
      "inputs": [
        {
          "internalType": "uint256",
          "name": "_amount",
          "type": "uint256"
        },
        {
          "internalType": "uint256",
          "name": "selected_charity_id",
          "type": "uint256"
        }
      ],
      "name": "remove_stake_charity_allocation",
      "outputs": [],
      "stateMutability": "nonpayable",
      "type": "function"
    }
  ],
  "bytecode": "0x60806040526040518060400160405280600f81526020017f4461707020546f6b656e204661726d0000000000000000000000000000000000815250600090805190602001906200005192919062000142565b506a108b2a2c280290940000006004556729a2241af62c00006006556a108b2a2c2802909400000060075568056bc75e2d631000006008556729a2241af62c0000600a55348015620000a257600080fd5b5033600260006101000a81548173ffffffffffffffffffffffffffffffffffffffff021916908373ffffffffffffffffffffffffffffffffffffffff1602179055506001600d60003373ffffffffffffffffffffffffffffffffffffffff1673ffffffffffffffffffffffffffffffffffffffff16815260200190815260200160002060006101000a81548160ff021916908315150217905550620001f8565b828054600181600116156101000203166002900490600052602060002090601f0160209004810192826200017a5760008555620001c6565b82601f106200019557805160ff1916838001178555620001c6565b82800160010185558215620001c6579182015b82811115620001c5578251825591602001919060010190620001a8565b5b509050620001d59190620001d9565b5090565b5b80821115620001f4576000816000905550600101620001da565b5090565b612b7c80620002086000396000f3fe608060405234801561001057600080fd5b50600436106101215760003560e01c80638ea13d35116100ad578063be22f54611610071578063be22f546146102b0578063bec747f0146102ce578063c3a94f25146102ec578063ea24e3ba1461030a578063f7c9ebb81461033c57610121565b80638ea13d351461021c5780639443a6e01461023a578063a3f24bf314610244578063aac132de14610262578063b3f616b21461029257610121565b8063448f42e1116100f4578063448f42e11461019e57806345c15b42146101ba5780636710337f146101d65780638222cf20146101f45780638da5cb5b146101fe57610121565b806306fdde0314610126578063089e82331461014457806328a2414914610162578063317f448814610180575b600080fd5b61012e61035a565b60405161013b919061294b565b60405180910390f35b61014c6103f8565b60405161015991906129ad565b60405180910390f35b61016a6103fe565b60405161017791906129ad565b60405180910390f35b610188610404565b60405161019591906129ad565b60405180910390f35b6101b860048036038101906101b39190612734565b61040a565b005b6101d460048036038101906101cf9190612734565b610a75565b005b6101de611303565b6040516101eb91906129ad565b60405180910390f35b6101fc611309565b005b61020661145a565b604051610213919061289a565b60405180910390f35b610224611480565b60405161023191906129ad565b60405180910390f35b610242611486565b005b61024c611626565b60405161025991906129ad565b60405180910390f35b61027c600480360381019061027791906126e2565b61162c565b6040516102899190612915565b60405180910390f35b61029a61164c565b6040516102a791906129ad565b60405180910390f35b6102b8611652565b6040516102c59190612930565b60405180910390f35b6102d6611678565b6040516102e391906129ad565b60405180910390f35b6102f461167e565b60405161030191906129ad565b60405180910390f35b610324600480360381019061031f91906126e2565b611684565b604051610333939291906129c8565b60405180910390f35b6103446116bb565b60405161035191906129ad565b60405180910390f35b60008054600181600116156101000203166002900480601f0160208091040260200160405190810160405280929190818152602001828054600181600116156101000203166002900480156103f05780601f106103c5576101008083540402835291602001916103f0565b820191906000526020600020905b8154815290600101906020018083116103d357829003601f168201915b505050505081565b60075481565b60105481565b600f5481565b81600b60003373ffffffffffffffffffffffffffffffffffffffff1673ffffffffffffffffffffffffffffffffffffffff16815260200190815260200160002060020154101561045957610a71565b6000600b60003373ffffffffffffffffffffffffffffffffffffffff1673ffffffffffffffffffffffffffffffffffffffff168152602001908152602001600020600001805480602002602001604051908101604052809291908181526020016000905b8282101561052f5783829060005260206000200180548060200260200160405190810160405280929190818152602001828054801561051b57602002820191906000526020600020905b815481526020019060010190808311610507575b5050505050815260200190600101906104bd565b50505050905060005b8151811015610a6e578282828151811061054e57fe5b602002602001015160018151811061056257fe5b60200260200101511415610a615783600b60003373ffffffffffffffffffffffffffffffffffffffff1673ffffffffffffffffffffffffffffffffffffffff16815260200190815260200160002060000182815481106105be57fe5b906000526020600020016000815481106105d457fe5b906000526020600020015410156105ec575050610a71565b6105f8838560006116c1565b61067884600b60003373ffffffffffffffffffffffffffffffffffffffff1673ffffffffffffffffffffffffffffffffffffffff168152602001908152602001600020600001838154811061064957fe5b9060005260206000200160008154811061065f57fe5b9060005260206000200154611b7590919063ffffffff16565b600b60003373ffffffffffffffffffffffffffffffffffffffff1673ffffffffffffffffffffffffffffffffffffffff16815260200190815260200160002060000182815481106106c557fe5b906000526020600020016000815481106106db57fe5b906000526020600020018190555061073e84600b60003373ffffffffffffffffffffffffffffffffffffffff1673ffffffffffffffffffffffffffffffffffffffff16815260200190815260200160002060020154611b7590919063ffffffff16565b600b60003373ffffffffffffffffffffffffffffffffffffffff1673ffffffffffffffffffffffffffffffffffffffff1681526020019081526020016000206002018190555061079984600e54611b7590919063ffffffff16565b600e819055506000600b60003373ffffffffffffffffffffffffffffffffffffffff1673ffffffffffffffffffffffffffffffffffffffff16815260200190815260200160002060000182815481106107ee57fe5b9060005260206000200160008154811061080457fe5b9060005260206000200154116109a25760008190505b6001600b60003373ffffffffffffffffffffffffffffffffffffffff1673ffffffffffffffffffffffffffffffffffffffff168152602001908152602001600020600001805490500381101561093757600b60003373ffffffffffffffffffffffffffffffffffffffff1673ffffffffffffffffffffffffffffffffffffffff16815260200190815260200160002060000160018201815481106108ba57fe5b90600052602060002001600b60003373ffffffffffffffffffffffffffffffffffffffff1673ffffffffffffffffffffffffffffffffffffffff168152602001908152602001600020600001828154811061091157fe5b906000526020600020019080546109299291906125c6565b50808060010191505061081a565b50600b60003373ffffffffffffffffffffffffffffffffffffffff1673ffffffffffffffffffffffffffffffffffffffff16815260200190815260200160002060000180548061098357fe5b60019003818190600052602060002001600061099f9190612618565b90555b6109aa611bbf565b600160009054906101000a900473ffffffffffffffffffffffffffffffffffffffff1673ffffffffffffffffffffffffffffffffffffffff1663a9059cbb33866040518363ffffffff1660e01b8152600401610a079291906128ec565b602060405180830381600087803b158015610a2157600080fd5b505af1158015610a35573d6000803e3d6000fd5b505050506040513d601f19601f82011682018060405250810190610a59919061270b565b505050610a71565b8080600101915050610538565b50505b5050565b600160009054906101000a900473ffffffffffffffffffffffffffffffffffffffff1673ffffffffffffffffffffffffffffffffffffffff166323b872dd3330856040518463ffffffff1660e01b8152600401610ad4939291906128b5565b602060405180830381600087803b158015610aee57600080fd5b505af1158015610b02573d6000803e3d6000fd5b505050506040513d601f19601f82011682018060405250810190610b26919061270b565b506000600b60003373ffffffffffffffffffffffffffffffffffffffff1673ffffffffffffffffffffffffffffffffffffffff16815260200190815260200160002060405180608001604052908160008201805480602002602001604051908101604052809291908181526020016000905b82821015610c0a57838290600052602060002001805480602002602001604051908101604052809291908181526020018280548015610bf657602002820191906000526020600020905b815481526020019060010190808311610be2575b505050505081526020019060010190610b98565b50505050815260200160018201548152602001600282015481526020016003820160009054906101000a900460ff161515151581525050905060001515816060015115151415610e8b576000600267ffffffffffffffff81118015610c6e57600080fd5b50604051908082528060200260200182016040528015610c9d5781602001602082028036833780820191505090505b5090508381600081518110610cae57fe5b6020026020010181815250508281600181518110610cc857fe5b602002602001018181525050610ce0838560016116c1565b600c339080600181540180825580915050600190039060005260206000200160009091909190916101000a81548173ffffffffffffffffffffffffffffffffffffffff021916908373ffffffffffffffffffffffffffffffffffffffff160217905550600b60003373ffffffffffffffffffffffffffffffffffffffff1673ffffffffffffffffffffffffffffffffffffffff16815260200190815260200160002060000181908060018154018082558091505060019003906000526020600020016000909190919091509080519060200190610dbe929190612639565b5083600b60003373ffffffffffffffffffffffffffffffffffffffff1673ffffffffffffffffffffffffffffffffffffffff168152602001908152602001600020600201819055506001600b60003373ffffffffffffffffffffffffffffffffffffffff1673ffffffffffffffffffffffffffffffffffffffff16815260200190815260200160002060030160006101000a81548160ff021916908315150217905550610e7684600e54611bfc90919063ffffffff16565b600e81905550610e84611bbf565b50506112ff565b6000600b60003373ffffffffffffffffffffffffffffffffffffffff1673ffffffffffffffffffffffffffffffffffffffff168152602001908152602001600020600001805480602002602001604051908101604052809291908181526020016000905b82821015610f6157838290600052602060002001805480602002602001604051908101604052809291908181526020018280548015610f4d57602002820191906000526020600020905b815481526020019060010190808311610f39575b505050505081526020019060010190610eef565b50505050905060005b8151811015611134576000828281518110610f8157fe5b602002602001015190508481600181518110610f9957fe5b6020026020010151141561112657610fb3858760016116c1565b610fda8682600081518110610fc457fe5b6020026020010151611bfc90919063ffffffff16565b81600081518110610fe757fe5b60200260200101818152505080600b60003373ffffffffffffffffffffffffffffffffffffffff1673ffffffffffffffffffffffffffffffffffffffff168152602001908152602001600020600001838154811061104157fe5b90600052602060002001908051906020019061105e929190612639565b506110b486600b60003373ffffffffffffffffffffffffffffffffffffffff1673ffffffffffffffffffffffffffffffffffffffff16815260200190815260200160002060020154611bfc90919063ffffffff16565b600b60003373ffffffffffffffffffffffffffffffffffffffff1673ffffffffffffffffffffffffffffffffffffffff1681526020019081526020016000206002018190555061110f86600e54611bfc90919063ffffffff16565b600e8190555061111d611bbf565b505050506112ff565b508080600101915050610f6a565b506000600267ffffffffffffffff8111801561114f57600080fd5b5060405190808252806020026020018201604052801561117e5781602001602082028036833780820191505090505b509050848160008151811061118f57fe5b60200260200101818152505083816001815181106111a957fe5b6020026020010181815250506111c1848660016116c1565b600b60003373ffffffffffffffffffffffffffffffffffffffff1673ffffffffffffffffffffffffffffffffffffffff1681526020019081526020016000206000018190806001815401808255809150506001900390600052602060002001600090919091909150908051906020019061123c929190612639565b5061129285600b60003373ffffffffffffffffffffffffffffffffffffffff1673ffffffffffffffffffffffffffffffffffffffff16815260200190815260200160002060020154611bfc90919063ffffffff16565b600b60003373ffffffffffffffffffffffffffffffffffffffff1673ffffffffffffffffffffffffffffffffffffffff168152602001908152602001600020600201819055506112ed85600e54611bfc90919063ffffffff16565b600e819055506112fb611bbf565b5050505b5050565b600e5481565b6000600b60003373ffffffffffffffffffffffffffffffffffffffff1673ffffffffffffffffffffffffffffffffffffffff1681526020019081526020016000206001015490506000811161135e5750611458565b6000600b60003373ffffffffffffffffffffffffffffffffffffffff1673ffffffffffffffffffffffffffffffffffffffff16815260200190815260200160002060010181905550600160009054906101000a900473ffffffffffffffffffffffffffffffffffffffff1673ffffffffffffffffffffffffffffffffffffffff1663a9059cbb33836040518363ffffffff1660e01b81526004016114039291906128ec565b602060405180830381600087803b15801561141d57600080fd5b505af1158015611431573d6000803e3d6000fd5b505050506040513d601f19601f82011682018060405250810190611455919061270b565b50505b565b600260009054906101000a900473ffffffffffffffffffffffffffffffffffffffff1681565b60095481565b60005b600380549050811015611622573373ffffffffffffffffffffffffffffffffffffffff16600382815481106114ba57fe5b90600052602060002090600c020160060160009054906101000a900473ffffffffffffffffffffffffffffffffffffffff1673ffffffffffffffffffffffffffffffffffffffff1614156116155760006003828154811061151757fe5b90600052602060002090600c02016008015490506000811161153a575050611624565b60006003838154811061154957fe5b90600052602060002090600c020160080181905550600160009054906101000a900473ffffffffffffffffffffffffffffffffffffffff1673ffffffffffffffffffffffffffffffffffffffff1663a9059cbb33836040518363ffffffff1660e01b81526004016115bb9291906128ec565b602060405180830381600087803b1580156115d557600080fd5b505af11580156115e9573d6000803e3d6000fd5b505050506040513d601f19601f8201168201806040525081019061160d919061270b565b505050611624565b8080600101915050611489565b505b565b600a5481565b600d6020528060005260406000206000915054906101000a900460ff1681565b60085481565b600160009054906101000a900473ffffffffffffffffffffffffffffffffffffffff1681565b60045481565b60065481565b600b6020528060005260406000206000915090508060010154908060020154908060030160009054906101000a900460ff16905083565b60055481565b60005b600380549050811015611b6e576000600382815481106116e057fe5b90600052602060002090600c0201604051806101a001604052908160008201548152602001600182018054600181600116156101000203166002900480601f01602080910402602001604051908101604052809291908181526020018280546001816001161561010002031660029004801561179d5780601f106117725761010080835404028352916020019161179d565b820191906000526020600020905b81548152906001019060200180831161178057829003601f168201915b50505050508152602001600282018054600181600116156101000203166002900480601f01602080910402602001604051908101604052809291908181526020018280546001816001161561010002031660029004801561183f5780601f106118145761010080835404028352916020019161183f565b820191906000526020600020905b81548152906001019060200180831161182257829003601f168201915b50505050508152602001600382018054600181600116156101000203166002900480601f0160208091040260200160405190810160405280929190818152602001828054600181600116156101000203166002900480156118e15780601f106118b6576101008083540402835291602001916118e1565b820191906000526020600020905b8154815290600101906020018083116118c457829003601f168201915b50505050508152602001600482018054600181600116156101000203166002900480601f0160208091040260200160405190810160405280929190818152602001828054600181600116156101000203166002900480156119835780601f1061195857610100808354040283529160200191611983565b820191906000526020600020905b81548152906001019060200180831161196657829003601f168201915b50505050508152602001600582015481526020016006820160009054906101000a900473ffffffffffffffffffffffffffffffffffffffff1673ffffffffffffffffffffffffffffffffffffffff1673ffffffffffffffffffffffffffffffffffffffff1681526020016007820160009054906101000a900473ffffffffffffffffffffffffffffffffffffffff1673ffffffffffffffffffffffffffffffffffffffff1673ffffffffffffffffffffffffffffffffffffffff1681526020016008820154815260200160098201548152602001600a820160009054906101000a900460ff16151515158152602001600a820160019054906101000a900460ff16151515158152602001600b8201548152505090508481600001511415611b60576001831415611b0557611ade8460038481548110611abe57fe5b90600052602060002090600c020160090154611bfc90919063ffffffff16565b60038381548110611aeb57fe5b90600052602060002090600c020160090181905550611b59565b611b368460038481548110611b1657fe5b90600052602060002090600c020160090154611b7590919063ffffffff16565b60038381548110611b4357fe5b90600052602060002090600c0201600901819055505b5050611b70565b5080806001019150506116c4565b505b505050565b6000611bb783836040518060400160405280601e81526020017f536166654d6174683a207375627472616374696f6e206f766572666c6f770000815250611c51565b905092915050565b6000429050611bdb601054600f54611bfc90919063ffffffff16565b8110611bf957611be9611cac565b611bf16121bf565b80600f819055505b50565b600080828401905083811015611c47576040517f08c379a0000000000000000000000000000000000000000000000000000000008152600401611c3e9061296d565b60405180910390fd5b8091505092915050565b6000838311158290611c99576040517f08c379a0000000000000000000000000000000000000000000000000000000008152600401611c90919061294b565b60405180910390fd5b5060008385039050809150509392505050565b6000600e541415611cbc576121bd565b60085460045410611d0257611cde600854600454611b7590919063ffffffff16565b600481905550611cfb600854600554611bfc90919063ffffffff16565b6005819055505b60065460055411611d12576121bd565b6000805b60038054905081101561219f57600060038281548110611d3257fe5b90600052602060002090600c0201604051806101a001604052908160008201548152602001600182018054600181600116156101000203166002900480601f016020809104026020016040519081016040528092919081815260200182805460018160011615610100020316600290048015611def5780601f10611dc457610100808354040283529160200191611def565b820191906000526020600020905b815481529060010190602001808311611dd257829003601f168201915b50505050508152602001600282018054600181600116156101000203166002900480601f016020809104026020016040519081016040528092919081815260200182805460018160011615610100020316600290048015611e915780601f10611e6657610100808354040283529160200191611e91565b820191906000526020600020905b815481529060010190602001808311611e7457829003601f168201915b50505050508152602001600382018054600181600116156101000203166002900480601f016020809104026020016040519081016040528092919081815260200182805460018160011615610100020316600290048015611f335780601f10611f0857610100808354040283529160200191611f33565b820191906000526020600020905b815481529060010190602001808311611f1657829003601f168201915b50505050508152602001600482018054600181600116156101000203166002900480601f016020809104026020016040519081016040528092919081815260200182805460018160011615610100020316600290048015611fd55780601f10611faa57610100808354040283529160200191611fd5565b820191906000526020600020905b815481529060010190602001808311611fb857829003601f168201915b50505050508152602001600582015481526020016006820160009054906101000a900473ffffffffffffffffffffffffffffffffffffffff1673ffffffffffffffffffffffffffffffffffffffff1673ffffffffffffffffffffffffffffffffffffffff1681526020016007820160009054906101000a900473ffffffffffffffffffffffffffffffffffffffff1673ffffffffffffffffffffffffffffffffffffffff1673ffffffffffffffffffffffffffffffffffffffff1681526020016008820154815260200160098201548152602001600a820160009054906101000a900460ff16151515158152602001600a820160019054906101000a900460ff16151515158152602001600b82015481525050905060008161012001519050600061210b600554836124ab90919063ffffffff16565b90506000612124600e548361251b90919063ffffffff16565b9050612157816003878154811061213757fe5b90600052602060002090600c020160080154611bfc90919063ffffffff16565b6003868154811061216457fe5b90600052602060002090600c02016008018190555061218c8187611bfc90919063ffffffff16565b9550505050508080600101915050611d16565b506121b581600554611b7590919063ffffffff16565b600581905550505b565b6000600e5414156121cf576124a9565b60085460075410612215576121f1600854600754611b7590919063ffffffff16565b60078190555061220e600854600954611bfc90919063ffffffff16565b6009819055505b600a5460095411612225576124a9565b6000805b600c8054905081101561248b576000600c828154811061224557fe5b9060005260206000200160009054906101000a900473ffffffffffffffffffffffffffffffffffffffff1690506000600b60008373ffffffffffffffffffffffffffffffffffffffff1673ffffffffffffffffffffffffffffffffffffffff16815260200190815260200160002060405180608001604052908160008201805480602002602001604051908101604052809291908181526020016000905b828210156123555783829060005260206000200180548060200260200160405190810160405280929190818152602001828054801561234157602002820191906000526020600020905b81548152602001906001019080831161232d575b5050505050815260200190600101906122e3565b50505050815260200160018201548152602001600282015481526020016003820160009054906101000a900460ff161515151581525050905060008160400151905060006123ae600954836124ab90919063ffffffff16565b905060006123c7600e548361251b90919063ffffffff16565b905061241e81600b60008873ffffffffffffffffffffffffffffffffffffffff1673ffffffffffffffffffffffffffffffffffffffff16815260200190815260200160002060010154611bfc90919063ffffffff16565b600b60008773ffffffffffffffffffffffffffffffffffffffff1673ffffffffffffffffffffffffffffffffffffffff168152602001908152602001600020600101819055506124778188611bfc90919063ffffffff16565b965050505050508080600101915050612229565b506124a181600954611b7590919063ffffffff16565b600981905550505b565b6000808314156124be5760009050612515565b60008284029050828482816124cf57fe5b0414612510576040517f08c379a00000000000000000000000000000000000000000000000000000000081526004016125079061298d565b60405180910390fd5b809150505b92915050565b600061255d83836040518060400160405280601a81526020017f536166654d6174683a206469766973696f6e206279207a65726f000000000000815250612565565b905092915050565b600080831182906125ac576040517f08c379a00000000000000000000000000000000000000000000000000000000081526004016125a3919061294b565b60405180910390fd5b5060008385816125b857fe5b049050809150509392505050565b8280548282559060005260206000209081019282156126075760005260206000209182015b828111156126065782548255916001019190600101906125eb565b5b5090506126149190612686565b5090565b50805460008255906000526020600020908101906126369190612686565b50565b828054828255906000526020600020908101928215612675579160200282015b82811115612674578251825591602001919060010190612659565b5b5090506126829190612686565b5090565b5b8082111561269f576000816000905550600101612687565b5090565b6000813590506126b281612b01565b92915050565b6000815190506126c781612b18565b92915050565b6000813590506126dc81612b2f565b92915050565b6000602082840312156126f457600080fd5b6000612702848285016126a3565b91505092915050565b60006020828403121561271d57600080fd5b600061272b848285016126b8565b91505092915050565b6000806040838503121561274757600080fd5b6000612755858286016126cd565b9250506020612766858286016126cd565b9150509250929050565b61277981612a63565b82525050565b61278881612a1b565b82525050565b61279781612a2d565b82525050565b6127a681612a75565b82525050565b60006127b7826129ff565b6127c18185612a0a565b93506127d1818560208601612abd565b6127da81612af0565b840191505092915050565b60006127f2601b83612a0a565b91507f536166654d6174683a206164646974696f6e206f766572666c6f7700000000006000830152602082019050919050565b6000612832602183612a0a565b91507f536166654d6174683a206d756c7469706c69636174696f6e206f766572666c6f60008301527f77000000000000000000000000000000000000000000000000000000000000006020830152604082019050919050565b61289481612a59565b82525050565b60006020820190506128af600083018461277f565b92915050565b60006060820190506128ca6000830186612770565b6128d7602083018561277f565b6128e4604083018461288b565b949350505050565b60006040820190506129016000830185612770565b61290e602083018461288b565b9392505050565b600060208201905061292a600083018461278e565b92915050565b6000602082019050612945600083018461279d565b92915050565b6000602082019050818103600083015261296581846127ac565b905092915050565b60006020820190508181036000830152612986816127e5565b9050919050565b600060208201905081810360008301526129a681612825565b9050919050565b60006020820190506129c2600083018461288b565b92915050565b60006060820190506129dd600083018661288b565b6129ea602083018561288b565b6129f7604083018461278e565b949350505050565b600081519050919050565b600082825260208201905092915050565b6000612a2682612a39565b9050919050565b60008115159050919050565b600073ffffffffffffffffffffffffffffffffffffffff82169050919050565b6000819050919050565b6000612a6e82612a99565b9050919050565b6000612a8082612a87565b9050919050565b6000612a9282612a39565b9050919050565b6000612aa482612aab565b9050919050565b6000612ab682612a39565b9050919050565b60005b83811015612adb578082015181840152602081019050612ac0565b83811115612aea576000848401525b50505050565b6000601f19601f8301169050919050565b612b0a81612a1b565b8114612b1557600080fd5b50565b612b2181612a2d565b8114612b2c57600080fd5b50565b612b3881612a59565b8114612b4357600080fd5b5056fea2646970667358221220788801c58186223adf630cf40652596e549e466f05ea82a2f944d9eda02780bd64736f6c63430007060033",
  "immutableReferences": {},
  "source": "pragma solidity ^0.7.6;\r\n//pragma solidity ^0.6.12;\r\n// SPDX-License-Identifier: Unlicensed\r\npragma experimental ABIEncoderV2;\r\nimport \"./DaiToken.sol\";\r\n\r\n\r\n\r\n\r\ncontract TokenFarm_Upgrade {\r\n\tstring public name = \"Dapp Token Farm\";\r\n\tDaiToken public daiToken;\r\n\taddress public owner;\r\n\tusing SafeMath for uint256;\r\n\r\n\tstruct individual_charity{\r\n\t      uint id;\r\n\t      string name;\r\n\t      string description;\r\n\t      string details;\r\n\t      string url;\r\n\t      uint ein;\r\n\t      address wallet_address;\r\n\t      address deposit_address;\r\n\t      uint uncollected_rewards;\r\n\t      uint vote_allocation;\r\n\t      bool us_tax_deduction;\r\n\t      bool is_deleted;\r\n\t      uint genesis;\r\n\t}\r\n\tstruct individual_token_holder{\r\n\t    uint[][] supported_charities;\r\n\t    uint uncollected_rewards;\r\n\t    uint total_staked;\r\n\t    bool exists;\r\n\t}\r\n\r\n/////////////////////////////////////////////////////////////////////////////////////////////////////////////////////////////////\r\n/////////////////////////////////////////////////////////////////////////////////////////////////////////////////////////////////\r\n\t  individual_charity[] approved_charities;//array of individual charities\r\n\r\n\t  uint public initial_charity_reward_allocation = 20000000 * 10**18;//initial token supply that is allocated to charity rewards (20% of total supply)\r\n\t  uint public current_rewards_for_charities;//rewards currently yet to be distributed to charities\r\n\t  uint public minimum_distribution_threshold_charities = 3 * 10**18;\r\n/////////////////////////////////////////////////////////////////////////////////////////////////////////////////////////////////\r\n/////////////////////////////////////////////////////////////////////////////////////////////////////////////////////////////////\r\n\t uint public initial_token_staking_reward_allocation = 20000000 * 10**18;//initial token supply that is allocated to token holder rewards (20% of total supply)\r\n\t uint public staking_reward_distribution_increment= 100 * 10**18; //amount of tokens rewarded every reward cycle\r\n\t uint public current_rewards_for_token_holders;//rewards currently yet to be distributed to stakers\r\n\t uint public minimum_distribution_threshold_token_holders = 3 * 10**18;\r\n\t mapping (address => individual_token_holder) public stakingAllocation;\r\n\t address[] staking_addresses;\r\n\t mapping (address => bool) public is_admin;\r\n\t uint public total_charity_votes;//total number of token holder votes that determine charity fund allocation\r\n/////////////////////////////////////////////////////////////////////////////////////////////////////////////////////////////////\r\n/////////////////////////////////////////////////////////////////////////////////////////////////////////////////////////////////\r\n\t uint public last_reward_block;//integer\r\n\t uint public reward_interval; //integer\r\n\r\n\r\n\tconstructor() public {\r\n\t\towner = msg.sender;\r\n\t\tis_admin[msg.sender]=true;\r\n\t}\r\n\r\n\r\n\r\n\r\n\r\n\r\nfunction collect_staker_rewards() external{//Token Holders have to interact with our front-facing app to collect their rewards\r\n\r\n    uint balance = stakingAllocation[msg.sender].uncollected_rewards;\r\n    if(balance<=0){\r\n    \treturn;//fail\r\n    }\r\n    \r\n    stakingAllocation[msg.sender].uncollected_rewards = 0;\r\n    daiToken.transfer(msg.sender, balance);\r\n    return;\r\n}\r\n\r\nfunction collect_charity_rewards() external{//Charities have to interact with our front-facing app to collect their rewards\r\n    \r\n    //Fetch staking balance\r\n    \r\n    for(uint i =0; i<approved_charities.length; i++){ // loop through approved_charities and find the matching charity based on wallet address msg.sender; \r\n      if(approved_charities[i].wallet_address == msg.sender){\r\n        uint balance = approved_charities[i].uncollected_rewards;\r\n        if(balance<=0){\r\n        \treturn;//fail\r\n        }\r\n\r\n\r\n        approved_charities[i].uncollected_rewards = 0;\r\n        daiToken.transfer(msg.sender, balance);//transfer rewards to the charity's wallet\r\n        return;//pass\r\n      }\r\n    }\r\n    return;//should not reach here\r\n}\r\n\r\nfunction update_charity_vote_allocation(uint charity_id, uint vote_allocation, uint add_or_subtract) internal{////add_or_subtract 1 = add, 0 = subtract\r\n    for(uint i =0; i<approved_charities.length; i++){\r\n\r\n    \tindividual_charity memory this_charity = approved_charities[i];\r\n\r\n      if(this_charity.id==charity_id){\r\n        if(add_or_subtract==1){\r\n            approved_charities[i].vote_allocation=approved_charities[i].vote_allocation.add(vote_allocation);\r\n        }\r\n        else{\r\n            approved_charities[i].vote_allocation=approved_charities[i].vote_allocation.sub(vote_allocation);     \r\n        }\r\n        return;\r\n      }\r\n    }\r\n\r\n\r\n}\r\n\r\nfunction add_stake_charity_allocation(uint _amount, uint selected_charity_id) external{//each charity will have its own staking pool and users will choose what charities to support by staking\r\n    \r\n\t\r\n   // require(_amount > 0, \"amount cannot be 0\");\r\n    daiToken.transferFrom(msg.sender, address(this), _amount);//transfer in value first - in case user balance is not enough, function will revert here\r\n\r\n\r\n    individual_token_holder memory token_holder=stakingAllocation[msg.sender];//finds current user's stake allocation\r\n\r\n\tif(token_holder.exists == false){//if user has not staked before\r\n\r\n\t\tuint[] memory new_stake_allocation = new uint[](2);//structure of array: [allocation size, charity id]\r\n\t\tnew_stake_allocation[0]=_amount;\r\n\t\tnew_stake_allocation[1]=selected_charity_id;\r\n\r\n\r\n\t      update_charity_vote_allocation(selected_charity_id, _amount, 1);\r\n\t      staking_addresses.push(msg.sender);\r\n\t      stakingAllocation[msg.sender].supported_charities.push(new_stake_allocation);\r\n\t      stakingAllocation[msg.sender].total_staked=_amount;\r\n\t      stakingAllocation[msg.sender].exists=true;\r\n\t      total_charity_votes=total_charity_votes.add(_amount);\r\n\t      time_to_distribute_rewards();\r\n\t      return;\r\n\t    \t//return 0;\r\n    }\r\n    else{///current user has already staked before\r\n\r\n    \tuint[][] memory existing_user_stake_allocation= stakingAllocation[msg.sender].supported_charities;\r\n\r\n    \tfor(uint i =0; i<existing_user_stake_allocation.length; i++){\r\n    \t\tuint[] memory this_charity_allocation = existing_user_stake_allocation[i];//structure of array: [allocation size, charity id]\r\n\r\n\r\n\r\n\t         if(this_charity_allocation[1]==selected_charity_id){///user has already staked for this specific charity\r\n\r\n\r\n\t            update_charity_vote_allocation(selected_charity_id, _amount, 1);\r\n    \t\t\tthis_charity_allocation[0]=this_charity_allocation[0].add(_amount);\r\n\t            stakingAllocation[msg.sender].supported_charities[i] = this_charity_allocation;\r\n    \t\t\tstakingAllocation[msg.sender].total_staked = stakingAllocation[msg.sender].total_staked.add(_amount);\r\n\t            total_charity_votes = total_charity_votes.add(_amount);\r\n\t            time_to_distribute_rewards();\r\n\t            return;\r\n\t            //return 1;\r\n          \t}\r\n    \t}\r\n \t \t//////////////////////////////////////////user has staked before, but not for this specific charity    \r\n \t \tuint[] memory new_stake_allocation = new uint[](2);\r\n \t\tnew_stake_allocation[0]=_amount;\r\n\t \tnew_stake_allocation[1]=selected_charity_id;\r\n\r\n\t\tupdate_charity_vote_allocation(selected_charity_id, _amount, 1);\r\n\t    stakingAllocation[msg.sender].supported_charities.push(new_stake_allocation);\r\n\t    stakingAllocation[msg.sender].total_staked = stakingAllocation[msg.sender].total_staked.add(_amount);\r\n    \ttotal_charity_votes = total_charity_votes.add(_amount);\r\n    \ttime_to_distribute_rewards();\r\n    \treturn;\r\n      \t//return 1;\r\n    }\r\n\r\n}\r\n\r\nfunction remove_stake_charity_allocation(uint _amount, uint selected_charity_id) external{\r\n\r\n\t\tif(stakingAllocation[msg.sender].total_staked <_amount){//can't unstake more than the total staked\r\n\t\t\treturn;//fail\r\n\t\t}\r\n\r\n\t\tuint[][] memory existing_user_stake_allocation= stakingAllocation[msg.sender].supported_charities;//finds current user's stake allocation\r\n\r\n      for(uint i =0; i<existing_user_stake_allocation.length; i++){\r\n         if(existing_user_stake_allocation[i][1]==selected_charity_id){\r\n         \tif(stakingAllocation[msg.sender].supported_charities[i][0] <_amount){//can't unstake more than the amount staked for this charity\r\n         \t\treturn;//fail\r\n         \t}\r\n\r\n            update_charity_vote_allocation(selected_charity_id, _amount, 0);\r\n            stakingAllocation[msg.sender].supported_charities[i][0] = stakingAllocation[msg.sender].supported_charities[i][0].sub(_amount);\r\n            stakingAllocation[msg.sender].total_staked = stakingAllocation[msg.sender].total_staked.sub(_amount);\r\n            total_charity_votes = total_charity_votes.sub(_amount);\r\n\r\n            if(stakingAllocation[msg.sender].supported_charities[i][0] <= 0){//remove this specific charity from user's charity array\r\n\t\t\t\tfor(uint j =i; j<stakingAllocation[msg.sender].supported_charities.length - 1; j++){///uses more gas than unordered deletion\r\n\t\t\t\t\tstakingAllocation[msg.sender].supported_charities[j]=stakingAllocation[msg.sender].supported_charities[j+1];\r\n\t\t\t\t}\r\n\t\t\t\t//stakingAllocation[msg.sender].supported_charities.length--;\r\n\t\t\t\tstakingAllocation[msg.sender].supported_charities.pop();\r\n            }\r\n            \r\n            time_to_distribute_rewards();\r\n            daiToken.transfer(msg.sender, _amount);//only transfer out tokens after passing the checks above\r\n\r\n            return;//pass\r\n          }\r\n      }\r\n}\r\n\r\n\r\nfunction distribute_rewards_token_holders()internal{ //////////////////////////Rewards are distributed to token holders based on how much they stake\r\n\tif(total_charity_votes==0){/// no charity votes yet\r\n\t\treturn;//fail\r\n\t}\r\n\r\n\tif(initial_token_staking_reward_allocation >= staking_reward_distribution_increment){\r\n\r\n\t\tinitial_token_staking_reward_allocation = initial_token_staking_reward_allocation.sub(staking_reward_distribution_increment);\r\n\t\tcurrent_rewards_for_token_holders = current_rewards_for_token_holders.add(staking_reward_distribution_increment);\r\n\t}\r\n\r\n\r\n\r\n\tif(current_rewards_for_token_holders<=minimum_distribution_threshold_token_holders){/// not enough rewards to distribute\r\n\t\treturn;//fail\r\n\t}\t    \r\n\r\n    uint total_distributed_rewards = 0;\r\n    for(uint i =0; i<staking_addresses.length; i++){//loops through each address that is staking\r\n    \taddress this_address=staking_addresses[i];\r\n    \tindividual_token_holder memory token_holder=stakingAllocation[this_address];\r\n    \tuint total_staked=token_holder.total_staked;\r\n\r\n    \tuint pre_div=total_staked.mul(current_rewards_for_token_holders);\r\n    \tuint new_rewards = pre_div.div(total_charity_votes);\r\n    \t//return new_rewards;\r\n        stakingAllocation[this_address].uncollected_rewards = stakingAllocation[this_address].uncollected_rewards.add(new_rewards);\r\n        total_distributed_rewards = total_distributed_rewards.add(new_rewards);\r\n    }\r\n   \tcurrent_rewards_for_token_holders= current_rewards_for_token_holders.sub(total_distributed_rewards);// should not just set to 0, incase math calculations cause rounding errors\r\n\r\n\r\n\treturn;//pass\r\n}\r\nfunction distribute_rewards_charities()internal{\r\n\tif(total_charity_votes==0){/// no charity votes yet\r\n\t\treturn;//fail\r\n\t}\r\n\r\n\tif(initial_charity_reward_allocation >= staking_reward_distribution_increment){\r\n\r\n\t\tinitial_charity_reward_allocation = initial_charity_reward_allocation.sub(staking_reward_distribution_increment);\r\n\t\tcurrent_rewards_for_charities = current_rewards_for_charities.add(staking_reward_distribution_increment);\r\n\t}\r\n\r\n\r\n\tif(current_rewards_for_charities<=minimum_distribution_threshold_charities){/// not enough rewards to distribute\r\n\t\treturn;//fail\r\n\t}\r\n\r\n\r\n    uint total_distributed_rewards = 0;\r\n\r\n    for(uint i =0; i<approved_charities.length; i++){ //Rewards are distributed to charities based on allocation decided by token holders\r\n\r\n        individual_charity memory this_charity = approved_charities[i];\r\n        //uint old_uncollected_rewards = this_charity.uncollected_rewards;//unused variable\r\n        uint charity_votes = this_charity.vote_allocation;\r\n\r\n        uint pre_div=charity_votes.mul(current_rewards_for_charities);\r\n        uint new_rewards = pre_div.div(total_charity_votes);\r\n        approved_charities[i].uncollected_rewards = approved_charities[i].uncollected_rewards.add(new_rewards);\r\n        total_distributed_rewards = total_distributed_rewards.add(new_rewards);\r\n    }    \r\n\r\n    current_rewards_for_charities= current_rewards_for_charities.sub(total_distributed_rewards);// should not just set to 0, incase math calculations cause rounding errors\r\n    return;//pass\r\n}\r\n\r\nfunction time_to_distribute_rewards()  internal{ //distribute rewards based on a time interval\r\n\t//currently checks after every stake/unstake transaction whether to distribute rewards\r\n\tuint current_block = block.timestamp;\r\n\r\n\r\n    if(current_block >= last_reward_block.add(reward_interval)){\r\n      \tdistribute_rewards_charities();\r\n      \tdistribute_rewards_token_holders();\r\n      \tlast_reward_block = current_block;\r\n    }\r\n    return;\r\n  \r\n}\r\n\r\n\r\n\t\r\n}",
  "sourcePath": "C:/Users/Bofan/defi_tutorial/src/contracts/TokenFarm_Upgrade.sol",
  "compiler": {
    "name": "solc",
    "version": "0.7.6+commit.7338295f.Emscripten.clang"
  },
  "schemaVersion": "3.2.3",
  "updatedAt": "2021-08-28T16:06:11.317Z",
  "networkType": "ethereum",
  "devdoc": {
    "kind": "dev",
    "methods": {},
    "version": 1
  },
  "userdoc": {
    "kind": "user",
    "methods": {},
    "version": 1
  }
}